:020000040800F2
:10000000080500204501000833140008F912000813
:1000100031140008DD01000821180008000000006C
:10002000000000000000000000000000371400087D
:10003000DF01000800000000351400083914000832
:100040005F0100085F0100085F0100085F01000810
:100050005F0100085F0100085F0100085F01000800
:100060005F0100085F0100085F0100085F010008F0
:100070005F0100085F0100085F0100085F010008E0
:100080005F0100085F0100085F0100085F010008D0
:100090005F0100085F0100085F0100085F010008C0
:1000A0005F0100085F0100085F0100085F010008B0
:1000B000D11400085F0100085F0100085F0100081B
:1000C0005F0100085F0100085F0100085F01000890
:1000D0005F010008151800085F0100085F010008B3
:1000E0005F0100085F0100085F0100085F01000870
:1000F0005F0100085F0100085F0100085F01000860
:100100005F0100085F0100085F0100085F0100084F
:100110005F0100085F0100085F0100085F0100083F
:100120005F0100085F0100085F0100085F0100082F
:10013000DFF80CD000F040F800480047311A000802
:10014000080500200648804706480047FEE7FEE70E
:10015000FEE7FEE7FEE7FEE7FEE7FEE7FEE7FEE777
:100160008914000831010008D2B201E000F8012B27
:10017000491EFBD270470022F6E710B513460A4627
:1001800004461946FFF7F0FF204610BD30B50B4678
:10019000014600202022012409E021FA02F59D42B7
:1001A00005D303FA02F5491B04FA02F52844151E8B
:1001B000A2F10102F1DC30BD064C074D06E0E0681B
:1001C00040F0010394E8070098471034AC42F6D39E
:1001D000FFF7B2FFCC1A0008EC1A0008FEE77047E0
:1001E000704700002DE9F05F90F8211000240229EB
:1001F00003D004218163012485E001680A6822F0AC
:100200000E020A6001680A6822F001020A603F4E8D
:100210003E4FB215DFF8F4C0DFF8F090DFF8ECA045
:10022000DFF8E8B0DFF8E4E00168783F1301150279
:10023000ACF1640CA9F15009AAF13C0AABF1280B0E
:10024000AEF1140E4FF48018B14227D9B9420ED046
:10025000614512D049451DD0514518D0594518D097
:10026000714501D1424615E0294EB14201D101222A
:1002700010E0274E1436B14201D110220AE0244E7C
:100280002836B14206D0224A3C32914201D11A4668
:1002900000E02A461E49091F0A602BE0B94213D02C
:1002A000614517D0494522D051451DD059451DD033
:1002B000714501D142461AE0B14202D14FF080723D
:1002C00015E0134EB14201D1012210E0104E143658
:1002D000B14201D110220AE00D4E2836B14206D0BB
:1002E0000B4A3C32914201D11A4600E02A460749A6
:1002F00080394A60012180F82110002180F8201007
:10030000416B01B188472046BDE8F09F8000024064
:100310000804024070B5044600F016F90546601C5A
:1003200002D004480078044400F00EF9401BA042BB
:10033000FAD370BD200000202DE9F84FDFF8C891F6
:10034000002409F1040A0AF1040B23460F270BF1DC
:10035000040ED1E00125A54006EA0502AA4276D1A5
:10036000DFF8A8C14E68A6EB0C0866452BD00DDC63
:10037000032E34D005DC36B3012E19D0022E2FD136
:100380001BE0112E16D0122E2AD119E0B8F5881FC5
:1003900019D006DCB8F5803F15D0B8F5801F1FD105
:1003A00011E0B8F5001F0ED0B8F5041F18D10AE00F
:1003B000CB6815E0CB681B1D12E0CB6808330FE05B
:1003C000CB680C330CE08B682BB1012B4FF008038A
:1003D00003D0456104E0042302E0056100E000234E
:1003E000FF2A01D8064601E000F104064FEA840521
:1003F00001D9A5F12005D6F8008007FA05FC28EA06
:100400000C0803FA05F548EA0508C6F800804D68AF
:10041000ED0070D53E4DAE6946F00106AE61AD69A6
:1004200024F0030605F0010500953A4D06EB050C96
:10043000DCF80850A607360F07FA06F825EA080583
:10044000DFF8D480404503D14FF0000825E052E0AA
:10045000DFF8C880404502D14FF001081DE0DFF809
:10046000C080404502D14FF0020816E0DFF8B480AA
:10047000404502D14FF003080FE0DFF8AC80404563
:1004800002D14FF0040808E0DFF8A080404502D117
:100490004FF0050801E04FF0060808FA06F848EAB0
:1004A0000508CCF808804D68D9F80060ED034D468A
:1004B00001D5164300E096432E604D68DAF80060DF
:1004C000AD03554601D5164300E096432E604D68B6
:1004D000DBF80060ED025D4601D5164300E096436F
:1004E0002E604D68DEF80060AD02754601D51643FA
:1004F00000E096432E60641C0A681646E2407FF4D2
:1005000029AFBDE8F88F0000000401400000111081
:10051000001002400000014000080140000C0140B2
:10052000001001400014014000180140001C01406F
:10053000C2680A4201D041617047016170470AB147
:10054000016170470904FBE70148806870470000BB
:1005500020000020024881680278114481607047C1
:1005600020000020074810B5016841F0100101602B
:10057000032000F075F8002000F006F800F024F8E1
:10058000002010BD0020024070B50D4D04464FF410
:100590007A712878B1FBF0F00A490968B1FBF0F0F4
:1005A00000F0ECFA48B9102C07D200222146501E68
:1005B00000F036F800206C6070BD012070BD0000B6
:1005C000200000202C0000200C4808B5816941F073
:1005D00001018161816901F001010091C16941F06E
:1005E0008051C161C06900F08050009004484168AA
:1005F00021F0E06141F08061416008BD00100240DF
:1006000000000140002809DB00F01F020121914099
:100610004009800000F1E020C0F8001170470000A0
:10062000F0B40E4B1B680C46C3F30223C3F107055D
:10063000042D00D90425191D072901D2002300E04B
:10064000DB1E012606FA05F1491E214099409E4015
:10065000761E16403143F0BC01F008B90CED00E005
:10066000064900F0070208684FF6FF03184040EA09
:100670000220034A10430860704700000CED00E0C0
:100680000000FA052DE9F0470F46050061D0434E02
:10069000306800F00700B84209D2306820F0070047
:1006A00038433060306800F00700B84251D1286804
:1006B0003B4C810712D5400703D5606840F4E060E9
:1006C00060602878000703D5606840F4605060607F
:1006D0006068A96820F0F000084360602878C007CF
:1006E00028D06868012810D02168022810D0890716
:1006F00000292EDA616821F0030101436160FFF7F0
:1007000023FF804641F288390DE021688903EFE735
:100710008901EDE7FFF718FFA0EB0801494502D971
:100720000320BDE8F0876068696800F00C00B0EB5A
:10073000810FEFD1306800F00700B8420BD9306864
:1007400020F0070038433060306800F00700B842FE
:1007500001D00120E5E72878400705D56068E96801
:1007600020F4E060084360602878000706D56068E0
:10077000296920F4605040EAC100606000F038F858
:100780006168084AC1F30311515CC840064908601A
:1007900006480068FFF7F8FE0020C2E7002002408C
:1007A00000100240B41A00082C0000202400002091
:1007B0000448054900684968044AC1F30221515CB4
:1007C000C84070472C00002000100240C41A0008E6
:1007D0000448054900684968044AC1F3C221515CD4
:1007E000C84070472C00002000100240C41A0008C6
:1007F00012A185B00FC98DE80F0014A0144A00683B
:1008000004905168134801F00C03042B10D0082BFE
:100810000ED1C1F38343C9031DF803000AD5516803
:1008200004AAC1F34041515C0A4A5043B0FBF1F0C5
:1008300005B0704708494843FAE700000203040581
:10084000060708090A0B0C0D0E0F1010010200001C
:100850000010024000127A0000093D002DE9F84F17
:10086000040070D02078C04DC00749D06868C0F33C
:100870008100012807D06868C0F38100022809D1EF
:100880006868C00306D52868800339D560680028E9
:10089000E7D035E06068B0F5803F0BD010B1B0F51F
:1008A000A02F11D0286820F480302860286820F418
:1008B000802002E0286840F480302860606890B1B1
:1008C000FFF742FE06460AE0286840F480202860D0
:1008D000F0E700BFFFF738FE801B642873D8286854
:1008E0008003F7D50CE0FFF72FFE064605E000BFBA
:1008F000FFF72AFE801B6428F0D828688003F7D40D
:1009000020789A4E80074FF001094FF0000839D542
:10091000686810F00C0F07D06868C0F381000228E7
:1009200009D16868C00306D42868800714D52069F7
:10093000012808D110E02069B0B1C6F80090FFF797
:1009400003FE074605E00AE1FFF7FEFDC01B022893
:10095000C4D828688007F7D52868616920F0F800B6
:1009600040EAC10028600DE0C6F80080FFF7ECFD0A
:10097000074604E0FFF7E8FDC01B022823D82868DB
:100980008007F7D4207800072CD57948A169D9B120
:10099000C0F80090FFF7D8FD074604E0FFF7D4FD4C
:1009A000C01B02280FD8686A8007F7D571484FF43A
:1009B000FA510068B0FBF1F0009000BF0098411EB2
:1009C0000091FAD20EE080E0C0F80080FFF7BCFD95
:1009D000074604E0FFF7B8FDC01B022875D8686A17
:1009E0008007F7D42078400760D5E8690027C00069
:1009F00008D4E86940F08050E861E869012700F018
:100A0000805000905C480168C90513D40168834692
:100A100041F480710160FFF797FD824606E000BF58
:100A2000FFF792FDA0EB0A0064284ED8DBF8000027
:100A3000C005F5D5E06801280AD008B1052813D013
:100A4000286A20F001002862286A20F0040002E0F1
:100A5000286A40F001002862E06841F2883B98B1C2
:100A6000FFF772FD82460BE0286A40F0040028621E
:100A7000EEE700BFFFF768FDA0EB0A0159455AD821
:100A8000286A8007F6D50CE0FFF75EFD824605E098
:100A9000FFF75AFDA0EB0A0159454CD8286A800798
:100AA000F6D41FB1E86920F08050E861E06988B3AE
:100AB0006968C1F38101022944D00228C6F8608028
:100AC00004D0FFF741FD044638E034E0FFF73CFD79
:100AD000074604E0FFF738FDC01B02282BD8286822
:100AE0008001F7D4206AB0F5803F05D16868A1681D
:100AF00020F4003008436860D4E9080108436968BD
:100B000021F4741108436860C6F86090FFF71CFD7B
:100B1000044606E025E000BFFFF716FD001B022893
:100B200009D828688001F7D51BE000BFFFF70CFD4E
:100B3000001B022802D90320BDE8F88F2868800135
:100B4000F4D40EE00128F7D06868226A00F48031FE
:100B5000914204D1616A00F47010884201D00120F2
:100B6000EAE70020E8E700000010024000004242EF
:100B7000800442422C0000200070004010B5401E4E
:100B8000B0F1807F01D3012010BD4FF0E0246061FF
:100B90000F21601700F06AFE0020A061072020618D
:100BA000002010BD7047704770B590F83C20012AB6
:100BB00019D0012400F83C4F0222427050F83C3C0E
:100BC0005A689D6822F070060A684968324325F029
:100BD000800529435A6050F83C2C916044700021F4
:100BE0000170084670BD022070BD10B5040003D02E
:100BF00094F83D0010B107E0012010BD002084F8FA
:100C00003C00204600F00CF8022084F83D00211D35
:100C1000206800F063FC012084F83D00002010BD36
:100C200008B50068B0F1804F12D10A48C16941F09F
:100C30000101C161C069002200F00100009011466D
:100C40001C20FFF7EDFCBDE808401C20FFF7DABCD4
:100C500008BD0000001002400168CA6842F00102AD
:100C6000CA600068816801F00701062903D00168A5
:100C700041F0010101600020704770B5044690F812
:100C80003C00012817D0012584F83C50022084F84C
:100C90003D002068826822F0770222F47F42826061
:100CA0000868502830D00DDC20284DD005DC98B3E2
:100CB00010283BD148E0022070BD302844D04028A5
:100CC00034D139E0602828D0702806D0B0F5805F94
:100CD0002CD0B0F5005F29D10AE0CB68D1E9012121
:100CE000206800F041FC2068816841F0770109E04C
:100CF000CB68D1E90121206800F036FC20688168CA
:100D000041F48041816011E0CA684968206800F0C0
:100D10003DFC5021206807E016E0CA684968206859
:100D200000F045FC6021206800F028FC84F83D506C
:100D3000002084F83C0070BDCA684968206800F053
:100D400025FC40212068EFE7226801461046EBE7CA
:100D5000704770B50446006801694FF00005C9434B
:100D6000890715D4C168C943890711D4E91E0161F7
:100D700001202077206880698007204602D0FFF795
:100D8000E7FF04E000F098F8204600F096F8257799
:100D900020680169C943490717D4C168C943490795
:100DA00013D46FF00401016102202077206880696C
:100DB00010F4407F204602D0FFF7CAFF04E000F0A5
:100DC0007BF8204600F079F8257720680169C9434F
:100DD000090716D4C168C943090712D46FF0080186
:100DE0000161042020772068C0698007204602D076
:100DF000FFF7AEFF04E000F05FF8204600F05DF87A
:100E0000257720680169C943C90617D4C168C94359
:100E1000C90613D46FF01001016108202077206803
:100E2000C06910F4407F204602D0FFF791FF04E034
:100E300000F042F8204600F040F82577206801696C
:100E4000C943C90708D1C168C943C90704D1891E6C
:100E50000161204600F032F820680169C9430906A3
:100E600009D4C168C943090605D46FF08001016146
:100E70002046FFF797FE20680169C943490609D457
:100E8000C168C943490605D46FF04001016120469D
:100E900000F03CF820680169C94389060BD4C16899
:100EA000C943890607D46FF0200101612046BDE8DF
:100EB0007040FFF778BE70BD7047704710B50421D1
:100EC0001048FFF735FB1048C178491CC9B2C17002
:100ED000022916D10021C1708278521CD2B28270D0
:100EE0003C2A0ED14278521CD2B2427081703C2A08
:100EF00007D141700278521CD2B20270182A00D178
:100F0000017010BD001401400000002070477047C0
:100F100070B5026804461068D168536910F00F0F6D
:100F200051D003F0010501F4907635435DD0C2073E
:100F300005D0CA0503D5E26B42F00102E263420725
:100F400005D5DA0703D0E26B42F00202E2638207C2
:100F500005D5DA0703D0E26B42F00402E263020730
:100F600005D5DA0703D0E26B42F00802E263E26BD8
:100F7000002A34D0800604D5880602D5204600F029
:100F80003EFB20684069E16BC0F3801001F008016E
:100F90000143204624D000F024FB20684169490623
:100FA0001AD5416921F040014161606BA0B11B4934
:100FB0004163606BFFF716F9002810D0606B416B3E
:100FC000BDE87040084783060FD58B060DD5204637
:100FD000BDE8704000F013BB2046FFF798FF70BDDE
:100FE000FFF795FF0020E06370BD030606D50B06F2
:100FF00004D52046BDE8704000F0A8BB4006F3D5FC
:101000004806F1D5D168204621F04001D160202169
:1010100084F8391000F06FF970BD0000D315000896
:1010200070B5040004D094F83900002510B106E032
:10103000012070BD84F83850204600F023F82420A9
:1010400084F839002068C16821F40051C16020464D
:1010500000F020FB2068016921F4904101612068C3
:10106000416921F02A0141612068C16841F40051C1
:10107000C160E563202084F8390084F83A0000203C
:1010800070BD000030B585B0002400940194029436
:1010900003940068184988422CD11848816941F4AA
:1010A00080418161816901F480410491816941F04D
:1010B000040181618069124D00F0040004904FF436
:1010C000007000900220019003200390694628469A
:1010D000FFF732F92815CDE9000469462846029445
:1010E000FFF72AF9002211462520FFF799FA25205B
:1010F000FFF788FA05B030BD00380140001002400B
:101100000008014090F83A30202B22D1F9B1F2B119
:1011100090F83830012B1CD081628285C285002175
:10112000C163222280F83A2080F838100168CA682A
:1011300042F48072CA6001684A6942F001024A6161
:101140000068C16841F02001C160002070470120A3
:10115000704702207047000038B500681E49884279
:1011600038D11E480178BF2934D18178FB2931D18B
:101170004278491D1A481B4CA02A07D0A12A0ED03C
:10118000A07800906378227817A110E00022FFF782
:10119000D6F9A0780090637822781BA107E001229D
:1011A000FFF7CDF9A0780090637822781CA10B4856
:1011B000403800F047FB094942F2107340224039A1
:1011C0001D4800F03BF8BDE83840032203491A48A7
:1011D000FFF798BF38BD00000038014074000020C0
:1011E000000801400000002025643A25643A256487
:1011F00020D5E2CAC7D2BBB8F6B4EDCEF3B5C4C3AE
:10120000FCC1EE200D0A000025643A25643A2564ED
:10121000204C454430B4F2BFAA200D0A0000000063
:1012200025643A25643A2564204C454430B9D8B148
:10123000D5200D0A00000000C40000202DE9F8436D
:10124000044690F839001F4616460D46202850D116
:10125000A5B19EB194F8380001284AD0012084F845
:1012600038004FF00008C4F83C80212084F8390091
:10127000FFF76AF9A6848146E68426E00120BDE8EE
:10128000F883E08C401EE084A0684B46B0F5805F98
:101290004FF000024FF080012046009703D000F08D
:1012A00086FAE8B90DE000F082FAC8B9288821680A
:1012B000C0F308004860206908B16D1C05E0AD1C52
:1012C00003E0216815F8010B4860E08C0028D8D1B4
:1012D0004B46002240212046009700F068FA08B1F2
:1012E0000320CCE7202084F8390084F838800020DF
:1012F000C5E70220C3E77047FEE700002DE9F04193
:1013000086B00024204800940194029403948169DB
:1013100041F010018161816901F01001049181693E
:1013200041F020018161816901F02001049181690E
:1013300041F0040181618069144F00F004004FF412
:1013400080750490002229463846FFF7F8F8DFF848
:101350004080002204214046FFF7F1F80095022664
:1013600001250396CDE9015469463846FEF7E4FFAE
:101370000420CDE90005CDE9024669464046FEF766
:10138000DBFF06B0BDE8F08100100240000801401C
:101390000014014010B586B0002416480094019452
:1013A0000294039404944FF080410594016047F641
:1013B000FF41C0E901148911C0E903148461FFF7FA
:1013C00014FC08B1FEF70CFF4FF480500090694602
:1013D0000848FFF752FC08B1FEF702FF049404A985
:1013E00004480594FFF7E0FB002801D0FEF7F8FE63
:1013F00006B010BD840000200C4810B50A490160F9
:101400004FF416514160002181600C22C160C0E997
:1014100004128161C161FFF703FE002803D0BDE81B
:101420001040FEF7DDBE10BD00380140C4000020B2
:10143000FEE7704770477047FFF78CB830B58FB044
:1014400028216846FEF797FE14210AA8FEF793FEAE
:1014500001210804CDE90010002402940225049122
:10146000CDE90750C00009906846FFF7F7F90F2053
:101470000A90CDE90B540D9401210AA80E94FFF7B0
:1014800001F90FB030BD00000D48016841F00101C5
:10149000016041680B4A1140416001680A4A1140ED
:1014A0000160016821F480210160416821F4FE019E
:1014B00041604FF41F0181600449C0030860704718
:1014C000001002400000FFF8FFFFF6FE08ED00E00C
:1014D0000148FFF73EBC000084000020F0B5026820
:1014E0001C4B1D4D1D4E1E4F1E4C4FF0804C984204
:1014F00009D0A04207D0604505D0A84203D0B04231
:1015000001D0B84204D122F0700E4A6842EA0E02BD
:10151000984209D0A04207D0604505D0A84203D028
:10152000B04201D0B84203D122F44075CA682A43C0
:101530004D6922F080022A4302608A68C2620A680A
:101540008262984201D0A04201D109690163012160
:101550004161F0BD002C0140000400400008004043
:10156000000C00400034014010B5846842EA0322B8
:1015700024F47F440A432243826010BD826822F033
:1015800070020A4342F007018160704710B5036A98
:10159000046A24F001040462846924F0F00444EA3B
:1015A000021423F00A020A438461026210BD10B5DE
:1015B000036A23F0100303628369046A23F470430F
:1015C00043EA023224F0A00343EA0111826101627E
:1015D00010BD10B5406A0021C185C184FFF797FC9A
:1015E00010BD0168CA6822F49072CA6001684A6935
:1015F00022F001024A61202180F83A10704710B5AC
:1016000090F83A10222901D0022010BD8168B1F56E
:10161000805F11D00169002901681FD0496801F07D
:101620007F03816A4A1C82620B70C18D491E0904C6
:10163000090CC18518D02BE00269816A002A026872
:10164000526805D0D2B20A80816A491C8162ECE7F7
:10165000C2F308020A80816A891CF7E74A68816A36
:101660004B1C83620A70E0E70168CA6822F020021E
:10167000CA600168CA6822F48072CA6001684A6957
:1016800022F001024A61202180F83A10FFF764FD40
:10169000002010BD2DE9F041044600680169E268B0
:1016A00021F44051114301612169A0680843616937
:1016B00008432168CA6841F20C639A430243CA6036
:1016C00020684169A26921F44071114341611E49BA
:1016D000206864253226884202D1FFF779F801E0BC
:1016E000FFF766F800EBC00101EB001160686FF0D6
:1016F00018078000B1FBF0F2B2FBF5F2B1FBF0F39A
:101700007A4303EB8202B1FBF0F306EB0212B2FB69
:10171000F5F2B3FBF5F302F0F00202EB0312B1FBBA
:10172000F0F3B1FBF0F0B0FBF5F0784303EB800091
:1017300006EB0010B0FBF5F0216800F00F0010443C
:101740008860BDE8F08100000038014090F8391051
:10175000212901D0022070478168B1F5805F016ABC
:101760000BD04A1C0262026809785160C18C491E84
:101770000904090CC1840ED017E009880268C1F37E
:101780000801516001690029016A02D0491C016207
:10179000ECE7891CFBE70168CA6822F08002CA6096
:1017A0000068C16841F04001C160002070472DE928
:1017B000F041984617460E460446069D1DE0681CFB
:1017C0001BD02DB1FEF7C0FEA0EB0800A84214D933
:1017D0002068C16821F4D071C1602068416921F09E
:1017E00001014161202084F8390084F83A0000208A
:1017F00084F838000320BDE8F0812068006836EAEC
:10180000000004D00020B842D9D00020F3E7012026
:10181000F9E700000148FFF77BBB0000C40000208F
:10182000FEE700000FB4054B10B503A9044A029867
:1018300000F03CF810BC5DF814FB0000191A000819
:10184000300000200FB4084B10B504A902AA039879
:1018500000F02CF8044602A9002000F0D1F8204640
:1018600010BC5DF814FB0000011A00080907090EFE
:10187000002804DB00F1E02080F80014704700F03D
:101880000F0000F1E02080F8141D704702E008C846
:10189000121F08C1002AFAD170477047002001E0EA
:1018A00001C1121F002AFBD1704700002DE9FF4F34
:1018B00089B09B460446002506E025280BD05A46F1
:1018C0000B999047641C6D1C20780028F5D10DB051
:1018D0002846BDE8F08F0027B8460122474900E0BE
:1018E000074314F8013F203B02FA03F00842F7D106
:1018F00020782E2819D114F8010F47F004072A2860
:101900000ED06FF02F022078A0F1300109290CD8F9
:1019100008EB880102EB410100EB0108641CF2E7CF
:101920000A98641C50F8048B0A9020780028CED0C6
:10193000642808D0692806D075281ED05A460B990D
:1019400090476D1C58E00A994FF00A0901C90A91A5
:10195000002802DA40422D2102E0390504D52B216E
:101960008DF82010012103E0F90704D02021F7E7CA
:101970008A4608AE0DE00021FAE70A994FF00A09FD
:1019800001C90A91F7E74946FEF700FC303106F835
:10199000011D0028F7D1ADEB060000F12009780702
:1019A00001D44FF00108C84502DDA8EB090000E0B2
:1019B00000208046002706E008A85A46C05D0B9923
:1019C00090476D1C7F1C5745F6DB04E030205A46DB
:1019D0000B9990476D1CB8F10001A8F10108F5DCE6
:1019E00005E016F8010B5A460B9990476D1CB9F1AA
:1019F0000001A9F10109F4DC641C65E70928010074
:101A00000A68531C0B6010707047002000BF011E55
:101A1000A0F10100FBD1704713B542F2107301220F
:101A200069460248FFF70AFC00981CBDC40000206C
:101A30000024FFF7EAFFFEF795FDFFF7FFFCFFF735
:101A40005DFCFFF7A7FCFFF7D7FC42F210731B22E7
:101A50000F491048FFF7F2FB03220F490D48FFF72B
:101A600051FB0E48FFF7F8F8094D4FF47A762D1F19
:101A700077102246A9780AA0FFF7D4FE3046FEF779
:101A800049FCBC4201DD0024F3E7641CF1E70000DF
:101A900004000020C4000020740000208400002006
:101AA0007373CAC7A3BA25642CB5DA2564B4CE0D06
:101AB0000A00000000000000000000000102030412
:101AC000060708090000000001020304EC1A0008E0
:101AD00000000020340000008C180008201B0008C3
:101AE00034000020D40400009C180008000000000E
:101AF0003D3D3D3D3D3D3D53544D3332BBB6D3ADF1
:101B0000C4FA3D3D3D3D3D3D0D0A00000100000091
:101B100010000000000000000024F400000000009D
:0400000508000131BD
:00000001FF
