:020000040800F2
:10000000B004002045010008871B0008D117000834
:10001000851B000875070008E91F000800000000A4
:100020000000000000000000000000008B1B000822
:100030007707000800000000891B00088D1B0008DE
:100040005F0100085F0100085F0100085F01000810
:100050005F0100085F010008790700085F010008E0
:100060005F0100085F0100085F0100085F010008F0
:100070005F0100085F0100085F0100085F010008E0
:100080005F0100085F0100085F0100085F010008D0
:100090005F0100085F0100085F0100085F010008C0
:1000A0005F0100085F0100085F0100085F010008B0
:1000B0005F0100085F0100085F0100085F010008A0
:1000C0005F0100085F0100085F0100085F01000890
:1000D0005F010008DD1F00085F0100085F010008E4
:1000E0005F0100085F0100085F0100085F01000870
:1000F0005F0100085F0100085F0100085F01000860
:100100005F0100085F0100085F0100085F0100084F
:100110005F0100085F0100085F0100085F0100083F
:100120005F0100085F0100085F0100085F0100082F
:10013000DFF80CD000F00CFB00480047192900083C
:10014000B00400200648804706480047FEE7FEE767
:10015000FEE7FEE7FEE7FEE7FEE7FEE7FEE7FEE777
:10016000DB1B000831010008202A04DB203A21FAB9
:1001700002F00021704721FA02F3D040C2F12002C0
:100180009140084319467047D2B201E000F8012BB4
:10019000491EFBD270470022F6E710B513460A4607
:1001A00004461946FFF7F0FF204610BD2DE9FE4F2B
:1001B000804681EA0300C00F0C46009021F0004108
:1001C00023F00045B8EB0200A94105D24046214684
:1001D00090461C460B46024623F00040104347D091
:1001E000270DC7F30A00C3F30A510290401A019089
:1001F00040286BDAC3F3130040F4801B009892464A
:1002000020B10023D2EB030A63EB0B0B0198594694
:10021000C0F14002504600F004FA06460D46504632
:100220005946019A00F00CFA10EB080061410024D5
:1002300087EA115284EAE7731A4340D0009A62B306
:10024000019A012A4FEA075215DC001B61EB0201FB
:100250004FF0004202EA0752CDE90042001C41F58E
:10026000801132462B4600F00CFA03B0BDE8F08F47
:1002700040462146F9E7001B61EB0201001C41F5F5
:10028000801300185B412018A2F5001747EB03010B
:1002900040EAD570B6196D4111E06D084FEA360697
:1002A00045EAC0754FEA0752001B61EB0201001CD2
:1002B00041F5801149084FEA30000019514132469A
:1002C0002B4603B0BDE8F04F00F0CCB900980122F6
:1002D00040000023D0EB020263EBE073009821465C
:1002E0004FEAE074B8EB000061EB0401E9E783F04A
:1002F00000435BE781F0004158E72DE9FE4F81EABA
:10030000030404F0004421F0004100944FF0000B7E
:1003100023F0004350EA01045ED052EA03045BD0AC
:10032000C3F30A54C1F30A552C44A4F2F3340194E4
:10033000A0FB0254C1F3130141F48011C3F3130372
:1003400043F4801301FB024400FB034E840A970A26
:1003500044EA815447EA8357A4FB076802958D0A53
:1003600005FB07854FEA932C04FB0C542705029DDF
:100370004FEA065847EA1637B5EB08056EEB070C4F
:10038000870E920E47EA811742EA8312A7FB020109
:10039000B6EB0B0164EB00042B0D43EA0C335E1843
:1003A00044EB1C50DA465146E7FB0201C5F3130447
:1003B0004FEA0B3343EA14534FEA0432019C43EAF9
:1003C0000603A4F10C040294009CCDE900B400F0F3
:1003D00058F903B0BDE8F08F00200146F9E72DE998
:1003E000F04D81EA030404F0004B21F0004514466F
:1003F0004FF0000A23F0004150EA050220D054EAF1
:1004000001021DD0C5F30A570246C5F31303C1F319
:100410001300C1F30A5640F4801543F48013A7EB90
:100420000608101BD64608F2FD3873EB050002D310
:1004300008F1010801E092185B41B8F1000F03DAFE
:1004400000200146BDE8F08D00204FF480110646E3
:1004500084460EE0171B73EB050705D3121B63EBF5
:10046000050306434CEA010C49084FEA3000921894
:100470005B4150EA0107EDD152EA030012D082EA53
:10048000040083EA0501084305D0101BAB4106D2E6
:100490000122002306E000224FF0004302E06FF04B
:1004A000010253101AEB06004CEB085110EB0A0046
:1004B00041EB0B01BDE8F04D00F0D4B870B521F070
:1004C000004303430CD0C1F30A550024D5EB0405C7
:1004D00064EB0403D617AD1AB34102DB00200146DA
:1004E00070BD201841EB025170BD0EB5C10F80EAFE
:1004F000E0700844CA07002140F233438DE80E0043
:100500000A460B4600F0BDF803B000BD0EB540F240
:10051000334102910021CDE900110A460B4600F05B
:10052000B0F803B000BD70B5C1F30A5201F0004548
:100530000024C1F3130140F2FF3341F480119A42C9
:1005400001DA002070BD40F233439A42A2F23342F6
:1005500003DC5242FFF708FE00E090402C43F1D04C
:10056000404270BD30B5041E71F1000404DB4FF051
:100570000044404264EB0101141E73F1000405DBEA
:100580001C464FF00043524263EB0403994208BFFC
:10059000904230BD30B50B46014600202022012498
:1005A00009E021FA02F59D4205D303FA02F5491B41
:1005B00004FA02F52844151EA2F10102F1DC30BD57
:1005C0002DE9F05F0546002092469B468846064688
:1005D000814640241BE02846414647462246FFF715
:1005E000C3FD53465A46C01A914110D311461846CE
:1005F000224600F016F82D1A67EB01084F462246F6
:100600000120002100F00DF817EB00094E41201EDB
:10061000A4F10104DFDC484631462A464346BDE8E2
:10062000F09F202A04DB203A00FA02F100207047F4
:100630009140C2F1200320FA03F319439040704720
:10064000202A06DBCB17203A41FA02F043EAE07396
:1006500006E041FA02F3D040C2F120029140084383
:100660001946704710B5141E73F1000408DA401CD7
:1006700041F1000192185B411A4301D120F00100C1
:1006800010BD2DE9F04D92469B4611B1B1FA81F2B1
:1006900002E0B0FA80F220329046FFF7C2FF044633
:1006A0000F4640EA0A0041EA0B0153465A46084306
:1006B00013D0114653EA010019D0C8F14002504648
:1006C000FFF752FD05460E46504659464246FFF793
:1006D000A8FF084305D0012004E020463946BDE8C4
:1006E000F08D0020054346EAE0762C4337430A9814
:1006F0006305E40AA0EB08000022FD0A44EA47541F
:100700000A3002D500200146E9E7010510196941C8
:10071000DDE9084500196941BDE8F04DA2E7C1F3E4
:100720000A52C1F3130140F2FF3341F480119A429F
:1007300002DA00200146704740F233439A42A2F2A7
:10074000334202DC5242FFF70FBDFFF76ABF0000E1
:10075000064C074D06E0E06840F0010394E807000E
:1007600098471034AC42F6D3FFF7E6FC8429000822
:10077000A4290008FEE77047012000F0ADB87047DB
:100780002DE9F05F90F821100024022903D0042104
:100790008163012485E001680A6822F00E020A6084
:1007A00001680A6822F001020A603F4E3E4FB2150E
:1007B000DFF8F4C0DFF8F090DFF8ECA0DFF8E8B085
:1007C000DFF8E4E00168783F13011502ACF1640C36
:1007D000A9F15009AAF13C0AABF1280BAEF1140EB5
:1007E0004FF48018B14227D9B9420ED0614512D0DA
:1007F00049451DD0514518D0594518D0714501D1F2
:10080000424615E0294EB14201D1012210E0274EA7
:100810001436B14201D110220AE0244E2836B142EA
:1008200006D0224A3C32914201D11A4600E02A46C3
:100830001E49091F0A602BE0B94213D0614517D049
:10084000494522D051451DD059451DD0714501D192
:1008500042461AE0B14202D14FF0807215E0134EC9
:10086000B14201D1012210E0104E1436B14201D143
:1008700010220AE00D4E2836B14206D00B4A3C3217
:10088000914201D11A4600E02A46074980394A6060
:10089000012180F82110002180F82010416B01B166
:1008A00088472046BDE8F09F8000024008040240CF
:1008B00070B5044600F018F90546601C02D00448E3
:1008C0000078044400F010F9401BA042FAD370BD38
:1008D0000800002070470000044910B50A68024271
:1008E00002D00860FFF7F6FF10BD000014040140BD
:1008F0002DE9F84FDFF8C891002409F1040A0AF144
:10090000040B23460F270BF1040ED1E00125A5406F
:1009100006EA0502AA4276D1DFF8A8C14E68A6EB26
:100920000C0866452BD00DDC032E34D005DC36B325
:10093000012E19D0022E2FD11BE0112E16D0122E0F
:100940002AD119E0B8F5881F19D006DCB8F5803F28
:1009500015D0B8F5801F1FD111E0B8F5001F0ED0DB
:10096000B8F5041F18D10AE0CB6815E0CB681B1D51
:1009700012E0CB6808330FE0CB680C330CE08B68D7
:100980002BB1012B4FF0080303D0456104E0042391
:1009900002E0056100E00023FF2A01D8064601E0DD
:1009A00000F104064FEA840501D9A5F12005D6F827
:1009B000008007FA05FC28EA0C0803FA05F548EA66
:1009C0000508C6F800804D68ED0070D53E4DAE6953
:1009D00046F00106AE61AD6924F0030605F001059D
:1009E00000953A4D06EB050CDCF80850A607360FCB
:1009F00007FA06F825EA0805DFF8D480404503D158
:100A00004FF0000825E052E0DFF8C880404502D1F1
:100A10004FF001081DE0DFF8C080404502D14FF0E3
:100A2000020816E0DFF8B480404502D14FF0030819
:100A30000FE0DFF8AC80404502D14FF0040808E039
:100A4000DFF8A080404502D14FF0050801E04FF0EB
:100A5000060808FA06F848EA0508CCF808804D6848
:100A6000D9F80060ED034D4601D5164300E09643EA
:100A70002E604D68DAF80060AD03554601D5164387
:100A800000E096432E604D68DBF80060ED025D46A5
:100A900001D5164300E096432E604D68DEF80060F5
:100AA000AD02754601D5164300E096432E60641CE6
:100AB0000A681646E2407FF429AFBDE8F88F0000CF
:100AC000000401400000111000100240000001402D
:100AD00000080140000C01400010014000140140DA
:100AE00000180140001C0140014880687047000068
:100AF0000800002002488168027811448160704734
:100B000008000020074810B5016841F0100101609D
:100B1000032000F075F8002000F006F800F024F83B
:100B2000002010BD0020024070B50D4D04464FF46A
:100B30007A712878B1FBF0F00A490968B1FBF0F04E
:100B400000F0ECFA48B9102C07D200222146501EC2
:100B500000F036F800206C6070BD012070BD000010
:100B600008000020140000200C4808B5816941F0FD
:100B700001018161816901F001010091C16941F0C8
:100B80008051C161C06900F0805000900448416804
:100B900021F0E06141F08061416008BD0010024039
:100BA00000000140002809DB00F01F0201219140F4
:100BB0004009800000F1E020C0F8001170470000FB
:100BC000F0B40E4B1B680C46C3F30223C3F10705B8
:100BD000042D00D90425191D072901D2002300E0A6
:100BE000DB1E012606FA05F1491E214099409E4070
:100BF000761E16403143F0BC01F008BA0CED00E05F
:100C0000064900F0070208684FF6FF03184040EA63
:100C10000220034A10430860704700000CED00E01A
:100C20000000FA052DE9F0470F46050061D0434E5C
:100C3000306800F00700B84209D2306820F00700A1
:100C400038433060306800F00700B84251D128685E
:100C50003B4C810712D5400703D5606840F4E06043
:100C600060602878000703D5606840F460506060D9
:100C70006068A96820F0F000084360602878C00729
:100C800028D06868012810D02168022810D0890770
:100C900000292EDA616821F0030101436160FFF74A
:100CA00023FF804641F288390DE021688903EFE790
:100CB0008901EDE7FFF718FFA0EB0801494502D9CC
:100CC0000320BDE8F0876068696800F00C00B0EBB5
:100CD000810FEFD1306800F00700B8420BD93068BF
:100CE00020F0070038433060306800F00700B84259
:100CF00001D00120E5E72878400705D56068E9685C
:100D000020F4E060084360602878000706D560683A
:100D1000296920F4605040EAC100606000F038F8B2
:100D20006168084AC1F30311515CC8400649086074
:100D300006480068FFF7F8FE0020C2E700200240E6
:100D4000001002406C290008140000200C00002054
:100D50000448054900684968044AC1F30221515C0E
:100D6000C840704714000020001002407C29000891
:100D70000448054900684968044AC1F3C221515C2E
:100D8000C840704714000020001002407C29000871
:100D900012A185B00FC98DE80F0014A0144A006895
:100DA00004905168134801F00C03042B10D0082B59
:100DB0000ED1C1F38343C9031DF803000AD551685E
:100DC00004AAC1F34041515C0A4A5043B0FBF1F020
:100DD00005B0704708494843FAE7000002030405DC
:100DE000060708090A0B0C0D0E0F10100102000077
:100DF0000010024000127A0000093D002DE9F84F72
:100E0000040070D02078C04DC00749D06868C0F396
:100E10008100012807D06868C0F38100022809D149
:100E20006868C00306D52868800339D56068002843
:100E3000E7D035E06068B0F5803F0BD010B1B0F579
:100E4000A02F11D0286820F480302860286820F472
:100E5000802002E0286840F480302860606890B10B
:100E6000FFF742FE06460AE0286840F4802028602A
:100E7000F0E700BFFFF738FE801B642873D82868AE
:100E80008003F7D50CE0FFF72FFE064605E000BF14
:100E9000FFF72AFE801B6428F0D828688003F7D467
:100EA00020789A4E80074FF001094FF0000839D59D
:100EB000686810F00C0F07D06868C0F38100022842
:100EC00009D16868C00306D42868800714D5206952
:100ED000012808D110E02069B0B1C6F80090FFF7F2
:100EE00003FE074605E00AE1FFF7FEFDC01B0228EE
:100EF000C4D828688007F7D52868616920F0F80011
:100F000040EAC10028600DE0C6F80080FFF7ECFD64
:100F1000074604E0FFF7E8FDC01B022823D8286835
:100F20008007F7D4207800072CD57948A169D9B17A
:100F3000C0F80090FFF7D8FD074604E0FFF7D4FDA6
:100F4000C01B02280FD8686A8007F7D571484FF494
:100F5000FA510068B0FBF1F0009000BF0098411E0C
:100F60000091FAD20EE080E0C0F80080FFF7BCFDEF
:100F7000074604E0FFF7B8FDC01B022875D8686A71
:100F80008007F7D42078400760D5E8690027C000C3
:100F900008D4E86940F08050E861E869012700F072
:100FA000805000905C480168C90513D401688346ED
:100FB00041F480710160FFF797FD824606E000BFB3
:100FC000FFF792FDA0EB0A0064284ED8DBF8000082
:100FD000C005F5D5E06801280AD008B1052813D06E
:100FE000286A20F001002862286A20F0040002E04C
:100FF000286A40F001002862E06841F2883B98B11D
:10100000FFF772FD82460BE0286A40F00400286278
:10101000EEE700BFFFF768FDA0EB0A0159455AD87B
:10102000286A8007F6D50CE0FFF75EFD824605E0F2
:10103000FFF75AFDA0EB0A0159454CD8286A8007F2
:10104000F6D41FB1E86920F08050E861E06988B308
:101050006968C1F38101022944D00228C6F8608082
:1010600004D0FFF741FD044638E034E0FFF73CFDD3
:10107000074604E0FFF738FDC01B02282BD828687C
:101080008001F7D4206AB0F5803F05D16868A16877
:1010900020F4003008436860D4E908010843696817
:1010A00021F4741108436860C6F86090FFF71CFDD6
:1010B000044606E025E000BFFFF716FD001B0228EE
:1010C00009D828688001F7D51BE000BFFFF70CFDA9
:1010D000001B022802D90320BDE8F88F2868800190
:1010E000F4D40EE00128F7D06868226A00F4803159
:1010F000914204D1616A00F47010884201D001204D
:10110000EAE70020E8E70000001002400000424249
:1011100080044242140000200070004010B5401EC0
:10112000B0F1807F01D3012010BD4FF0E024606159
:101130000F21601700F06AFF0020A06107202061E6
:10114000002010BD10B590F83C20012A22D00122C9
:1011500080F83C20CA688C6822F4407222434C68B4
:1011600022F4806222430C6822F4006222430C695C
:1011700022F4805222434C6922F400522243C9696E
:10118000002322F480420A4301684A6480F83C301C
:10119000002010BD022010BD70B590F83C20012A3F
:1011A0002CD0012480F83C40022280F83D200368C6
:1011B0005A689D6822F070060A6832435A60104BE4
:1011C00002689A420ED00F4B9A420BD0B2F1804F78
:1011D00008D00D4B9A4205D00C4B9A4202D00C4BD2
:1011E0009A4204D1496825F080031943916080F840
:1011F0003D40002180F83C10084670BD022070BDC3
:10120000002C014000340140000400400008004070
:10121000000C004000B585B00021009101910291C1
:10122000039100680B49884212D10B48816941F053
:10123000040181618069694600F0040004904FF464
:10124000807000900220019003900448FFF750FB4B
:1012500005B000BD002C0140001002400008014014
:1012600070B5044690F83C000D4601280AD00120D4
:1012700084F83C0042B1042A18D0082A2AD00C2A4B
:101280004DD139E0022070BD206800F0FBFC2068E1
:10129000816941F0080181612068816921F00401C0
:1012A0008161206881692A69114311E0206800F09A
:1012B00019FD2068816941F40061816120688169BC
:1012C00021F480618161206881692A6941EA0221F3
:1012D000816124E0206800F03BFD2068C16941F095
:1012E0000801C1612068C16921F00401C161206861
:1012F000C1692A69114311E0206800F05DFD206892
:10130000C16941F40061C1612068C16921F4806153
:10131000C1612068C1692A6941EA0221C1610020D6
:1013200084F83C0070BD10B5040003D094F83D0073
:1013300010B107E0012010BD002084F83C002046D9
:1013400000F01EF8022084F83D00211D206800F006
:1013500045FC012084F8460084F83E0084F83F00F4
:1013600084F8400084F8410084F8420084F8430087
:1013700084F8440084F8450084F83D00002010BD46
:1013800008B500680649884208D10648816941F4D9
:1013900000618161806900F40060009008BD000078
:1013A000002C01400010024010B50446022249B151
:1013B00004290ED0082913D094F84100012816D032
:1013C000012010BD94F83E000128F9D184F83E2098
:1013D0000FE094F83F000128F2D184F83F2008E0A4
:1013E00094F840000128EBD184F8402001E084F813
:1013F00041200122206800F037FC13492068134A7D
:10140000884201D0904203D1436C43F400434364CB
:10141000206888420DD090420BD0B0F1804F08D0A8
:101420000B49884205D00B49884202D00A498842BC
:1014300004D1816801F00701062903D0016841F059
:1014400001010160002010BD002C0140003401406A
:101450000004004000080040000C004070470000FD
:1014600070B5026804461068D168536910F00F0F18
:1014700052D003F0010501F490762E435FD0C207ED
:1014800005D0CA0503D5E26B42F00102E2634207D0
:1014900005D5DA0703D0E26B42F00202E26382076D
:1014A00005D5DA0703D0E26B42F00402E2630207DB
:1014B00007D501F020022A4303D0E26B42F0080274
:1014C000E263E26B002A33D0800604D5880602D599
:1014D000204600F0AFFC20684069E16BC0F380104B
:1014E000090700D428B3204600F096FC2068416923
:1014F00049061AD5416921F040014161606BA0B1F4
:101500002D494163606BFFF73BF9002810D0606BF9
:10151000416BBDE870400847830610D58B060ED599
:101520002046BDE8704000F085BC2046FFF796FFDE
:1015300070BD2046FFF792FF0020E06370BD0306F8
:101540002BD50B0629D594F839002128F6D1A068AF
:10155000B0F5805F01D12069B0B1206A411C2162E1
:10156000216800784860E08C401E0004000CE08494
:10157000E4D12068C16821F08001C1602068C168A1
:1015800041F04001C16070BD206A0088C0F30800CE
:101590005060206A801C2062E5E74006F3D54806CB
:1015A000F1D5D168204621F04001D160202184F896
:1015B000391000F00CF970BD091E000870B5040068
:1015C00004D094F83900002510B106E0012070BD68
:1015D00084F83850204600F023F8242084F839009D
:1015E0002068C16821F40051C160204600F068FC09
:1015F0002068016921F4904101612068416921F06E
:101600002A0141612068C16841F40051C160E5636D
:10161000202084F8390084F83A00002070BD0000D2
:1016200030B585B0002400940194029403940068BE
:10163000184988422CD11848816941F48041816160
:10164000816901F480410491816941F00401816163
:101650008069124D00F0040004904FF40070009077
:10166000022001900320039069462846FFF740F9C5
:101670002815CDE90004694628460294FFF738F999
:10168000002211462520FFF79BFA2520FFF78AFA52
:1016900005B030BD00380140001002400008014094
:1016A00090F83A30202B22D1F9B1F2B190F83830CD
:1016B000012B1CD081628285C2850021C163222258
:1016C00080F83A2080F838100168CA6842F48072C5
:1016D000CA6001684A6942F001024A610068C16853
:1016E00041F02001C16000207047012070470220B6
:1016F0007047000000680749884209D10648007A0F
:10170000AA2803D0BB2803D100F064B800F094B835
:1017100070470000003801401C0000202DE9F8430C
:10172000044690F839001F4616460D4620284CD135
:10173000C5B1BEB194F83800012846D0012084F824
:1017400038004FF00008C4F83C80212084F83900AC
:10175000FFF7CAF9A6848146E684A068B0F5805FE9
:1017600003D004E00120BDE8F883206928B12E46AB
:101770005FF0000584F838800EE00026FAE780214B
:10178000204600F0F9FBA0B9AEB116F8010B2168B4
:101790004860E08C401EE084E08C4B464FF0000235
:1017A00000970028EBD14FF04001204600F0E4FB09
:1017B00030B10320D7E735F8020BC0F30800E6E7A5
:1017C000202084F839000020CDE70220CBE77047C5
:1017D000FEE7000010B510490220CC7822020C5C14
:1017E0001443401EFAD5B42C06D95A2000F0F2F862
:1017F0000AA000F0FBFB06E0204600F0EBF82146D3
:1018000009A000F0F3FB01F0A1F8BDE810400922A7
:1018100001490848FFF744BF1C00002074302E74B3
:1018200078743D223930220074302E7478743D2251
:1018300025642200700000202DE9F041364D354C22
:101840004FF00008E9782160E879022260600B021D
:10185000A95C19430302A81800791843521EF6D553
:10186000C4E9001044F617620A39914203D20428F1
:1018700001D9602809D34FF47A702060322060606B
:1018800026A000F0B3FB01F061F8D4E9000100F0FC
:101890006DF825A0216800F0A9FB01F057F825A0FC
:1018A000616800F0A3FB01F051F82068FEF72EFEFE
:1018B00002460B4600202249FEF791FD02460B46E8
:1018C00020A000F093FB01F041F82068FEF71EFE17
:1018D00006460F466068FEF719FE00221D4BFEF714
:1018E0000CFD32463B46FEF77AFD02460B461AA037
:1018F00000F07CFB01F02AF8002041462954401CEE
:101900000928FBDBBDE8F041092203491648FFF72F
:10191000C7BE0000000000201C0000207669732074
:101920007431322C3100000074342E7478743D22EE
:101930002564220074352E7478743D2225642200BB
:1019400000408F4074362E7478743D22252E326606
:10195000220000000000244074372E7478743D2269
:10196000252E3266220000007000002010B50C46C3
:10197000A0F10A0144F61662914222D8042C20DD1F
:10198000602C1EDAFEF7B1FD02460B4600200D4921
:10199000FEF725FD0522FEF791FD00220A4BFEF71A
:1019A0001EFD0022094BFEF7A2FCFEF7BCFD6321E1
:1019B000224600F07BF8BDE8104000210448FFF704
:1019C000F3BC10BD80842E41000059400000F03F60
:1019D0002800002010B5B52825D22D30FEF785FD52
:1019E00002460B4600201049FEF7F9FC02460B4662
:1019F00000200E49FEF7F3FC0522FEF75FFD0022F2
:101A00000B4BFEF7ECFC00220A4BFEF770FCFEF7D6
:101A10008AFD3222632100F049F8BDE81040002120
:101A20000548FFF7C1BC10BD00F9E54080842E4198
:101A3000000059400000F03F2800002000B585B0AC
:101A4000002003901648816941F01001816181698D
:101A500001F010010491816941F0200181618169E7
:101A600001F020010491816941F0040181618069E4
:101A7000694600F00400049001200090094801909C
:101A8000022002900848FEF733FF0022114606208C
:101A9000FFF796F80620FFF785F805B000BD0000B7
:101AA000001002400000111000080140F0B591B094
:101AB00000240E46074615460F941C2108A81094D2
:101AC000FEF769FB20216846FEF765FB1E481D49AD
:101AD000C0E90246046144618461C0E90017FFF770
:101AE00022FC08B1FEF74BFE0F940FA91648109484
:101AF000FFF752FB08B1FEF742FE60200890CDE9E7
:101B000009540B940C940D94002208A90E480E94CD
:101B1000FFF7A6FB08B1FEF732FE00944FF4005029
:101B2000CDE9044002940194039469460648079461
:101B3000FFF708FB08B1FEF722FE0348FFF76AFB38
:101B400011B0F0BD002C0140280000200C4810B559
:101B50000A4901604FF416514160002181600C2256
:101B6000C160C0E904128161C161FFF727FD00284F
:101B700003D0BDE81040FEF702BE10BD00380140A2
:101B800070000020FEE7704770477047FEF7B2BF55
:101B900030B58FB028216846FEF7FDFA14210AA857
:101BA000FEF7F9FA01210804CDE90010002402949F
:101BB00002250491CDE90750C00009906846FFF75F
:101BC0001DF90F200A90CDE90B540D9401210AA8AC
:101BD0000E94FFF727F80FB030BD7047F0B50268DC
:101BE0001C4B1D4D1D4E1E4F1E4C4FF0804C9842FD
:101BF00009D0A04207D0604505D0A84203D0B0422A
:101C000001D0B84204D122F0700E4A6842EA0E02B6
:101C1000984209D0A04207D0604505D0A84203D021
:101C2000B04201D0B84203D122F44075CA682A43B9
:101C30004D6922F080022A4302608A68C2620A6803
:101C40008262984201D0A04201D109690163012159
:101C50004161F0BD002C014000040040000800403C
:101C6000000C00400034014010B501F01F030121B9
:101C7000046A99408C430462016A9A4011430162EC
:101C800010BD0000F0B5026A22F001020262036A90
:101C900042688469124E24F073050C682C4323F0CB
:101CA00002058B682B430D4DA84201D0B04205D1EF
:101CB00023F00807CB683B4323F00403A84201D07C
:101CC000B04205D14D6922F4407215438A692A4316
:101CD00042608461496841630362F0BD002C0140A9
:101CE00000340140F0B5026A22F010020262026A7A
:101CF000436884690D6824F4E64444EA05248D6849
:101D000022F0200242EA05120F4D104EA84201D0E7
:101D1000B04206D1CF6822F0800242EA071222F0D8
:101D20004002A84201D0B04207D14D6923F440637C
:101D300043EA85038D6943EA85034360846149680A
:101D400081630262F0BD0000002C014000340140BC
:101D5000F0B5026A22F480720262026A4368C469C2
:101D600022F4007224F073050C68124E2C438D6827
:101D700042EA05220E4DA84201D0B04206D1CF68FA
:101D800022F4006242EA072222F48062A84201D0D3
:101D9000B04207D14D6923F4405343EA05138D69DE
:101DA00043EA05134360C4614968C1630262F0BD40
:101DB000002C01400034014030B5026A22F4805208
:101DC0000262046A4268C3690D6823F4E64343EA89
:101DD00005238D6824F4005444EA0534084DA842D4
:101DE00002D0084DA84204D14D6922F4804242EA53
:101DF00085124260C36149680164046230BD00001D
:101E0000002C01400034014010B5406A0021C1851A
:101E1000C184FFF723FB10BD0168CA6822F49072E9
:101E2000CA6001684A6922F001024A61202180F8F3
:101E30003A10704710B590F83A10222901D00220CC
:101E400010BD82684FF480539A4201D1016921B1DB
:101E5000816A9A421BD04AB10AE00268816A5268DC
:101E6000C2F308020A80816A891C08E0026972B123
:101E70000268526802F07F020A70816A491C81621E
:101E8000C18D491E0904090CC18503D016E0026802
:101E90005268F1E70168CA6822F02002CA6001684E
:101EA000CA6822F48072CA6001684A6922F001029D
:101EB0004A61202180F83A10FFF71CFC002010BD79
:101EC00070B5044600680169E26821F4405111438D
:101ED00001612169A0680843616908432168CA68F3
:101EE00041F20C639A430243CA6020684169A269C7
:101EF00021F44071114341611E492068884202D19A
:101F0000FEF736FF01E0FEF723FF00EBC00101EB17
:101F10000012606864218000B2FBF0F3B3FBF1F3C0
:101F20006FF018067343B2FBF0F5B2FBF0F605EB69
:101F30008305322303EB0515B5FBF1F5B6FBF1F68E
:101F400005F0F00505EB0615B2FBF0F6B2FBF0F07C
:101F5000B0FBF1F06FF01802504306EB800003EB8A
:101F60000010B0FBF1F0216800F00F0028448860F9
:101F700070BD0000003801402DE9F0419846174639
:101F80000E460446069D1DE0681C1BD02DB1FEF7D1
:101F9000ABFDA0EB0800A84214D92068C16821F469
:101FA000D071C1602068416921F0010141612020A8
:101FB00084F8390084F83A00002084F838000320BF
:101FC000BDE8F0812068006836EA000004D00020F7
:101FD000B842D9D00020F3E70120F9E70148FFF724
:101FE0003FBA000070000020FEE700000FB4054B70
:101FF00010B503A9044A029800F0EAF810BC5DF895
:1020000014FB000001290008180000200907090E30
:10201000002804DB00F1E02080F80014704700F095
:102020000F0000F1E02080F8141D704702E008C89E
:10203000121F08C1002AFAD170477047002001E042
:1020400001C1121F002AFBD1704700002DE9FF5F7C
:1020500082B00021DDE90430020DDDF840B0034319
:1020600018D044F61050A2F2FF32424315141198D2
:1020700001281FD0A5EB0B00401C5FEA000A4FF0BF
:1020800000064E4FDFF83891B046504615D5CAF1DC
:10209000000413E0119801244AA3012801D16FEA3A
:1020A0000B010298119AC0E90031C0E9024206B062
:1020B000BDE8F09FCBF10000DFE704460021404A75
:1020C000491842EB0450CDE9001012E0E00707D0B8
:1020D00032463B4640464946FEF70FF98046894660
:1020E00032463B4610461946FEF707F906460F46AC
:1020F0006410002CEAD1DDE90401DDE90023BAF126
:10210000000F06DAFEF7F9F842464B46FEF7F5F8FF
:1021100005E0FEF764F942464B46FEF760F90446D7
:102120000E460022284BFEF71DFA03D84FF0FF3071
:10213000014607E00022254B20463146FEF736F8DF
:10214000FEF7EDFA102409E0002C0ADB0A22002336
:10215000FEF736FA039B30321A55641E50EA01022C
:10216000F2D1641C039AC4F111031444119A012A98
:1021700003D0012208430DD10AE0084304D0002017
:102180004FF0110B119072E7A3EB0B056D1E0DE0E4
:102190005B4504DD4FF0000205F1010504E003DAC0
:1021A0004FF00002A5F10105002AECD00298119928
:1021B000C0E90231C0E9004579E7000000001440A1
:1021C0000000F03F300000000000F0430000E03F5E
:1021D0002DE9FF4F95B09B468946064600250FE244
:1021E000252877D100242746F84A0121059400E0EC
:1021F000044316F8013F203B01FA03F01042F7D1E7
:1022000030782A2811D06FF02F033078A0F13002F7
:10221000092A16D8059A44F0020402EB820203EB65
:1022200042021044761C0590EFE759F8042B059202
:10223000002A03DA504244F40054059044F00204AA
:10224000761C30782E2816D116F8010F44F00404BD
:102250002A280DD06FF02F023078A0F13003092B1F
:1022600009D807EB870302EB4303C718761CF3E793
:1022700059F8047B761C30786C280FD006DC4C288B
:1022800017D068280DD06A2814D104E0742810D023
:102290007A280FD10DE044F400140AE044F48014CD
:1022A00001E044F440147278824202D104F58014B3
:1022B000761C761C307866280BD013DC582877D033
:1022C00009DC002875D04528F6D04628F4D04728E8
:1022D0001AD19DE118E0632835D0642879D06528AB
:1022E00012D195E1702873D008DC6728F1D06928F5
:1022F0006FD06E280DD06F2806D1B5E073282CD092
:10230000752875D0782874D05A46179990476D1C57
:1023100075E1C4F30250022809D003280DD0D9F882
:10232000001004280DD00D6009F1040967E1D9F807
:102330000010EA17C1E90052F6E7D9F800100D8045
:10234000F2E70D70F0E719F8041B8DF8001000207B
:102350008DF80100EA46012003E059F804AB4FF084
:10236000FF3061074FF0000102D40DE008F10101D8
:102370008846B9420FDA8045F8DB1AF808100029C0
:10238000F4D108E008F1010188468142FADB1AF82D
:1023900008100029F6D105985B46A0EB08072146F6
:1023A0003846179A00F094FA284400EB080507E035
:1023B0004DE029E10DE01AF8010B5A4617999047B4
:1023C000B8F10108F7D25B4621463846179A13E167
:1023D00042E00A220092C4F302524FF0000A022A9D
:1023E00008D059F804CB032A4FEAEC710AD00DE06B
:1023F00029E02AE009F1070121F00702F2E802C111
:10240000914609E00FFA8CFC4FEAEC71042A03D1E3
:102410004FFA8CFC4FEAEC71002907DA0A460021DA
:10242000DCF1000C61EB02012D2202E0220504D553
:102430002B228DF80420012203E0E20701D02022A4
:10244000F7E7904659E00A2102E010220DE0102142
:102450004FF0000A00910BE010224FF0000A44F008
:1024600004040827009203E008224FF0000A0092BB
:10247000C4F30252022A05D059F804CB0021032AE2
:1024800008D009E009F1070121F00702F2E802C1D2
:10249000914605E01FFA8CFC042A01D10CF0FF0CD8
:1024A0004FF00008220728D5702806D0009B83F043
:1024B000100353EA0A0305D00EE040228DF80420F1
:1024C000012208E05CEA010206D030228DF80420E7
:1024D0008DF8050002229046009B83F0080353EA22
:1024E0000A030AD15CEA010201D1620705D5302254
:1024F0008DF804204FF001087F1E582804D034A026
:1025000003900EA802900DE036A0F9E7534660460E
:10251000009AFEF755F884460398825C0298401EA4
:10252000029002705CEA0100F0D1029806A9081A34
:1025300000F1200A600702D524F4803400E001276E
:10254000574502DDA7EB0A0000E0002000EB0A017E
:10255000009005984144401A0590E00306D45B467C
:102560002146179A059800F0B3F90544002706E0C4
:1025700001A85A46C05D179990476D1C7F1C4745BE
:10258000F6DBE0030CD55B462146179A059800F070
:102590009FF9054404E030205A46179990476D1C76
:1025A0000099481E00900029F5DC08E00298029985
:1025B0005A460078491C0291179990476D1CBAF150
:1025C0000001AAF1010AF1DC65E10000092801001F
:1025D0003031323334353637383961626364656699
:1025E000000000003031323334353637383941425B
:1025F000434445460000000000F058F90544761CAD
:10260000307800287FF4ECAD19B02846BDE8F08F93
:10261000620700D4062709F1070222F0070CFCE844
:102620000223E14603F000485FEA080C02D00FF2F3
:10263000702C0DE05FEA045C02D50FF2682C07E015
:102640005FEAC47C02D00FF2602C01E0AFF2700CA4
:102650004FF0FF3823F00043CDF850C065280CD070
:1026600006DC452809D046281DD047283DD13DE04D
:10267000662818D067287ED138E00021112F01DBB1
:10268000112000E0781CCDE9000106A90EA8FFF793
:10269000DDFCDDE90F010E9A03910021009207F1A4
:1026A000010A04914DE04FF000400097CDE9011080
:1026B00006A90EA8FFF7CAFCDDE90F0203920E9BE4
:1026C00011990022DDF80CA00093049211B9791C35
:1026D00000EB010AB7EB0A0004D4C0F1FF3007F1A8
:1026E000010A0490AAEB0700019044E0012F00DAF0
:1026F00001270021112F01DD112000E03846CDE92E
:10270000000106A90EA8FFF7A1FCDDE90F010E9A52
:102710000391002104910092BA4621070CD4039939
:10272000514500DA8A46BAF1010F05DD009AAAF197
:102730000101515C302908D0B84202DA10F1040FCF
:1027400006DA0121CDE9011015E0AAF10101E9E75E
:10275000002805DC049901440491AAEB000102E081
:10276000411C514500DD8A460499401A401C0190E5
:102770004FF000400290200704D40198504501DB3F
:10278000CDF8048000208DF84F0002980DF14F071E
:10279000B0F1004F25D02B200E9002984FF0020888
:1027A00000280CDA404202902D200E9007E00A210A
:1027B0000298FDF7EFFE3031029007F8011DB8F1E5
:1027C0000001A8F10108F2DC02980028EFD1791E7F
:1027D0000E980870307800F0200040F0450007F8AF
:1027E000020D12A8C01B00F107081498007800B170
:1027F000012000EB0A01019801EBE07105984144CA
:10280000401A401E0590E00306D45B462146179A05
:10281000059800F05DF805441498007818B15A4600
:10282000179990476D1CE00324D55B462146179A03
:10283000059800F04DF805441CE00498002807DBDB
:10284000DDE90301884203DD0098405C179901E04F
:10285000179930205A469047049805F10105401C0D
:1028600004900198401E019004D12E205A461799D9
:1028700090476D1CBAF10001AAF1010ADDDC05E008
:1028800017F8010B5A46179990476D1CB8F10001D3
:10289000A8F10108F4DC5B462146179A0598ABE6DF
:1028A0002D0000002B000000200000002DE9F04169
:1028B000044600251E461746880404D405E0394620
:1028C0002020B0476D1C641EF9D52846BDE8F08174
:1028D0002DE9F041044600251E469046C80301D567
:1028E000302700E02027880404D505E0414638461B
:1028F000B0476D1C641EF9D52846BDE8F081000084
:1029000013B542F21073012269460248FEF706FF32
:1029100000981CBD70000020FEF7F4F8FFF738F9AE
:10292000FFF78CF8FFF712F97820FFF753F84FF410
:102930007A70FDF7BDFF092202490348FEF7B0FE99
:10294000FEE700001C0000207000002008B505A074
:102950004FF47A7300680090032269460248FEF73C
:10296000DDFE08BDFFFFFF0070000020000000003A
:10297000000000000102030406070809000000002F
:1029800001020304A4290008000000201C0000002C
:102990002C200008C02900081C000020940400001E
:1029A0003C200008E80300003200000001000000A5
:1029B00010000000000000000024F40000000000EF
:0400000508000131BD
:00000001FF
