:020000040800F2
:100000004005002045010008BF1E00089D1D000896
:10001000BD1E0008E50700082D22000800000000B2
:10002000000000000000000000000000F91F0008B0
:100030000108000800000000C11E0008FB1F0008A6
:100040005F0100085F0100085F0100085F01000810
:100050005F0100085F0100085F0100085F01000800
:100060005F0100085F0100085F0100085F010008F0
:10007000E9070008F50700085F0100085F010008B4
:100080005F0100085F0100085F0100085F010008D0
:100090005F0100085F0100085F0100085F010008C0
:1000A0005F0100085F0100085F0100085F010008B0
:1000B0005F0100085F0100085F0100085F010008A0
:1000C0005F0100085F0100085F0100085F01000890
:1000D0005F010008212200085F0100085F0100089D
:1000E0005F0100085F0100085F0100085F01000870
:1000F0005F0100085F0100085F0100085F01000860
:100100005F0100085F0100085F0100085F0100084F
:100110005F0100085F0100085F0100085F0100083F
:100120005F0100085F0100085F0100085F0100082F
:10013000DFF80CD000F0A4FA00480047912B00082B
:10014000400500200648804706480047FEE7FEE7D6
:10015000FEE7FEE7FEE7FEE7FEE7FEE7FEE7FEE777
:100160004920000831010008202A04DB203A21FA46
:1001700002F00021704721FA02F3D040C2F12002C0
:100180009140084319467047D2B201E000F8012BB4
:10019000491EFBD270470022F6E710B513460A4607
:1001A00004461946FFF7F0FF204610BD2DE9FE4F2B
:1001B00081EA030404F0004421F0004100944FF070
:1001C000000B23F0004350EA01045ED052EA03041E
:1001D0005BD0C3F30A54C1F30A552C44A4F2F334A0
:1001E0000194A0FB0254C1F3130141F48011C3F345
:1001F000130343F4801301FB024400FB034E840A03
:10020000970A44EA815447EA8357A4FB076802959A
:100210008D0A05FB07854FEA932C04FB0C54270538
:10022000029D4FEA065847EA1637B5EB08056EEB14
:10023000070C870E920E47EA811742EA8312A7FB4A
:100240000201B6EB0B0164EB00042B0D43EA0C3307
:100250005E1844EB1C50DA465146E7FB0201C5F339
:1002600013044FEA0B3343EA14534FEA0432019C60
:1002700043EA0603A4F10C040294009CCDE900B407
:1002800000F0D8F803B0BDE8F08F00200146F9E790
:100290002DE9F04D81EA030404F0004B21F0004504
:1002A00014464FF0000A23F0004150EA050220D026
:1002B00054EA01021DD0C5F30A570246C5F31303E1
:1002C000C1F31300C1F30A5640F4801543F48013C0
:1002D000A7EB0608101BD64608F2FD3873EB0500A5
:1002E00002D308F1010801E092185B41B8F1000F58
:1002F00003DA00200146BDE8F08D00204FF48011A4
:10030000064684460EE0171B73EB050705D3121B48
:1003100063EB050306434CEA010C49084FEA300041
:1003200092185B4150EA0107EDD152EA030012D066
:1003300082EA040083EA0501084305D0101BAB41A3
:1003400006D20122002306E000224FF0004302E023
:100350006FF0010253101AEB06004CEB085110EB42
:100360000A0041EB0B01BDE8F04D00F054B80EB5AA
:1003700040F2334102910021CDE900110A460B46BB
:1003800000F058F803B000BD30B50B460146002020
:100390002022012409E021FA02F59D4205D303FA47
:1003A00002F5491B04FA02F52844151EA2F10102C8
:1003B000F1DC30BD2DE9F05F0546002092469B46FA
:1003C00088460646814640241BE02846414647466B
:1003D0002246FFF7C9FE53465A46C01A914110D330
:1003E00011461846224600F05DF92D1A67EB010808
:1003F0004F4622460120002100F054F917EB000976
:100400004E41201EA4F10104DFDC484631462A4655
:100410004346BDE8F09F10B5141E73F1000408DADE
:10042000401C41F1000192185B411A4301D120F0B8
:10043000010010BD2DE9F04D92469B4611B1B1FA75
:1004400081F202E0B0FA80F22032904600F02AF900
:1004500004460F4640EA0A0041EA0B0153465A4659
:10046000084313D0114653EA010019D0C8F14002E5
:100470005046FFF779FE05460E465046594642461D
:1004800000F010F9084305D0012004E02046394669
:10049000BDE8F08D0020054346EAE0762C43374363
:1004A0000A986305E40AA0EB08000022FD0A44EA6A
:1004B00047540A3002D500200146E9E7010510192A
:1004C0006941DDE9084500196941BDE8F04DA2E741
:1004D0002DE9FE4F804681EA0300C00F0C460090D4
:1004E00021F0004123F00045B8EB0200A94105D2FC
:1004F0004046214690461C460B46024623F00040EB
:10050000104347D0270DC7F30A00C3F30A510290E6
:10051000401A019040286BDAC3F3130040F4801BAB
:100520000098924620B10023D2EB030A63EB0B0B39
:1005300001985946C0F14002504600F0B3F8064613
:100540000D4650465946019A00F0BBF810EB0800E2
:100550006141002487EA115284EAE7731A4340D0CC
:10056000009A62B3019A012A4FEA075215DC001B78
:1005700061EB02014FF0004202EA0752CDE900426E
:10058000001C41F5801132462B46FFF753FF03B0A4
:10059000BDE8F08F40462146F9E7001B61EB020100
:1005A000001C41F5801300185B412018A2F50017CC
:1005B00047EB030140EAD570B6196D4111E06D08B3
:1005C0004FEA360645EAC0754FEA0752001B61EB59
:1005D0000201001C41F5801149084FEA3000001962
:1005E000514132462B4603B0BDE8F04FFFF713BF31
:1005F0000098012240000023D0EB020263EBE0737D
:10060000009821464FEAE074B8EB000061EB04016A
:10061000E9E783F000435BE781F0004158E7C1F36D
:100620000A52C1F3130140F2FF3341F480119A42A0
:1006300002DA00200146704740F233439A42A2F2A8
:10064000334202DC5242FFF78FBD00F02BB80000AE
:1006500030B5041E71F1000404DB4FF00044404249
:1006600064EB0101141E73F1000405DB1C464FF01E
:100670000043524263EB0403994208BF904230BDED
:10068000064C074D06E0E06840F0010394E80700DF
:1006900098471034AC42F6D3FFF74EFD3C2C0008CF
:1006A0005C2C0008202A04DB203A00FA02F100202A
:1006B00070479140C2F1200320FA03F319439040A0
:1006C0007047202A06DBCB17203A41FA02F043EAB2
:1006D000E07306E041FA02F3D040C2F120029140FB
:1006E0000843194670470000F8B52E4E0546002213
:1006F0001021304600F08EFB012002F023FA35B1C4
:10070000012D07D0022D08D0032D0BD108E04FF4A6
:10071000804407E04FF4A04404E04FF4C04401E0FB
:100720004FF4E0448A2044EA0005042040EA142003
:100730008DF800006423012269461B4800F0F9FF90
:10074000642301221949184800F046FF8DF8005033
:10075000642301226946144800F0EBFF1349642327
:100760000122491C104800F037FF104C60782178B6
:1007700040EA012060800EA001F05AFD617810A0CF
:1007800001F056FD628812A0114601F051FD0120D2
:1007900002F0D8F901221021304600F03BFB6088BE
:1007A000F8BD0000000801401C00002004000020EB
:1007B00072656164617461313A307825780D0A00A0
:1007C00072656164617461323A307825780D0A008F
:1007D000726561646174613A307825783D3D2564C5
:1007E0000D0A0000FEE70000014800F0A3B8000079
:1007F00074000020014800F09DB80000B8000020FF
:10080000704770472DE9F05F90F82110002402290D
:1008100003D004218163012485E001680A6822F085
:100820000E020A6001680A6822F001020A603F4E67
:100830003E4FB215DFF8F4C0DFF8F090DFF8ECA01F
:10084000DFF8E8B0DFF8E4E00168783F1301150253
:10085000ACF1640CA9F15009AAF13C0AABF1280BE8
:10086000AEF1140E4FF48018B14227D9B9420ED020
:10087000614512D049451DD0514518D0594518D071
:10088000714501D1424615E0294EB14201D1012204
:1008900010E0274E1436B14201D110220AE0244E56
:1008A0002836B14206D0224A3C32914201D11A4642
:1008B00000E02A461E49091F0A602BE0B94213D006
:1008C000614517D0494522D051451DD059451DD00D
:1008D000714501D142461AE0B14202D14FF0807217
:1008E00015E0134EB14201D1012210E0104E143632
:1008F000B14201D110220AE00D4E2836B14206D095
:100900000B4A3C32914201D11A4600E02A4607497F
:1009100080394A60012180F82110002180F82010E0
:10092000416B01B188472046BDE8F09F800002403E
:10093000080402402DE9F05FC16B0A6801680B688A
:10094000046C4FF0040808FA04F8844D844E854F77
:10095000DFF814C2DFF81492DFF814A2DFF814B243
:10096000DFF814E218EA020F65D05FEA437862D537
:100970000A68920603D40A6822F004020A60DFF8CB
:10098000F0814FF48062016808F114081301140229
:10099000414524D9A9420DD0B1420FD0B9421AD055
:1009A000614515D0494515D0514501D1120312E0DA
:1009B000594501D104220EE0714501D140220AE0DF
:1009C0006D4D1435A94206D06B4A2832914201D1AF
:1009D0001A4600E022466749091F0A6029E0A94239
:1009E00013D0B14215D0B94220D061451BD0494542
:1009F0001BD0514502D14FF4800217E0414502D18E
:100A00004FF0806212E0594501D104220EE0714599
:100A100001D140220AE0584D1435A94206D0564A69
:100A20002832914201D11A4600E022464B4908394A
:100A30004A60C16A71E04FF0020808FA04F818EA47
:100A4000020F70D05FEA83786DD50A68920606D4EB
:100A50000A6822F00A020A60012180F82110DFF8FA
:100A600010814FF40072016808F114081301140298
:100A7000414524D9A9420DD0B1420FD0B9421AD074
:100A8000614515D0494515D0514501D1120312E0F9
:100A9000594501D102220EE0714501D120220AE020
:100AA000354D1435A94206D0334A2832914201D13E
:100AB0001A4600E022462F49091F0A6029E0A94290
:100AC00013D0B14215D0B94220D061451BD0494561
:100AD0001BD0514502D14FF4001217E0414502D11D
:100AE0004FF0007212E0594501D102220EE071452B
:100AF00001D120220AE0204D1435A94206D01E4A19
:100B00002832914201D11A4600E0224613490839A1
:100B10004A60002180F82010816A00291CD0BDE8BD
:100B2000F05F0847FFE70825A540154214D01A07D3
:100B300012D50A6822F00E020A6090F84020C36BBA
:100B4000012101FA02F25A60816380F8211000212C
:100B500080F82010016BE0E7BDE8F09F080002403C
:100B60001C00024030000240440002405800024095
:100B70006C000240080402401C04024030B560B121
:100B80001A4B026814219A4209D2194B1344B3FB41
:100B9000F1F18900016417490AE0012030BD134BCF
:100BA0005B421344B3FBF1F1890001640F4908393A
:100BB000C163022180F82110136843F6F0718B4362
:100BC000F0E901142143D0E902452C432143046993
:100BD0002143446921438469214319431160002161
:100BE0004163012242770177084630BD0804024084
:100BF000F8FFFDBF0000024070B5044600F010F998
:100C00000546601C02D004480078044400F008F94E
:100C1000401BA042FAD370BD080000202DE9F84F18
:100C2000DFF8C891002409F1040A0AF1040B2346F5
:100C30000F270BF1040ED1E00125A54006EA0502BD
:100C4000AA4276D1DFF8A8C14E68A6EB0C0866452B
:100C50002BD00DDC032E34D005DC36B3012E19D099
:100C6000022E2FD11BE0112E16D0122E2AD119E000
:100C7000B8F5881F19D006DCB8F5803F15D0B8F557
:100C8000801F1FD111E0B8F5001F0ED0B8F5041F6A
:100C900018D10AE0CB6815E0CB681B1D12E0CB68C9
:100CA00008330FE0CB680C330CE08B682BB1012BC1
:100CB0004FF0080303D0456104E0042302E005611E
:100CC00000E00023FF2A01D8064601E000F10406F7
:100CD0004FEA840501D9A5F12005D6F8008007FA6E
:100CE00005FC28EA0C0803FA05F548EA0508C6F8E9
:100CF00000804D68ED0070D53E4DAE6946F00106AE
:100D0000AE61AD6924F0030605F0010500953A4D8A
:100D100006EB050CDCF80850A607360F07FA06F8B4
:100D200025EA0805DFF8D480404503D14FF00008DC
:100D300025E052E0DFF8C880404502D14FF00108BD
:100D40001DE0DFF8C080404502D14FF0020816E0F8
:100D5000DFF8B480404502D14FF003080FE0DFF820
:100D6000AC80404502D14FF0040808E0DFF8A080D5
:100D7000404502D14FF0050801E04FF0060808FA9F
:100D800006F848EA0508CCF808804D68D9F80060F4
:100D9000ED034D4601D5164300E096432E604D68A5
:100DA000DAF80060AD03554601D5164300E09643DE
:100DB0002E604D68DBF80060ED025D4601D51643FC
:100DC00000E096432E604D68DEF80060AD02754687
:100DD00001D5164300E096432E60641C0A6816464F
:100DE000E2407FF429AFBDE8F88F00000004014025
:100DF00000001110001002400000014000080140F6
:100E0000000C014000100140001401400018014096
:100E1000001C01400AB1016170470904FBE70000B2
:100E2000014880687047000008000020024881687F
:100E3000027811448160704708000020074810B50F
:100E4000016841F010010160032000F075F80020F6
:100E500000F006F800F024F8002010BD0020024049
:100E600070B50D4D04464FF47A712878B1FBF0F05F
:100E70000A490968B1FBF0F000F0FFFD48B9102CF9
:100E800007D200222146501E00F036F800206C6088
:100E900070BD012070BD000008000020140000207B
:100EA0000C4808B5816941F001018161816901F057
:100EB00001010091C16941F08051C161C06900F038
:100EC000805000900448416821F0E06141F0806169
:100ED000416008BD0010024000000140002809DB0D
:100EE00000F01F02012191404009800000F1E02044
:100EF000C0F8001170470000F0B40E4B1B680C46A0
:100F0000C3F30223C3F10705042D00D90425191DDD
:100F1000072901D2002300E0DB1E012606FA05F1B5
:100F2000491E214099409E40761E16403143F0BC38
:100F300001F08EB90CED00E0064900F007020868E8
:100F40004FF6FF03184040EA0220034A10430860AE
:100F5000704700000CED00E00000FA052DE9F047B5
:100F60000F46050061D0434E306800F00700B842DC
:100F700009D2306820F0070038433060306800F054
:100F80000700B84251D128683B4C810712D5400771
:100F900003D5606840F4E06060602878000703D5FE
:100FA000606840F4605060606068A96820F0F000FC
:100FB000084360602878C00728D06868012810D0EE
:100FC0002168022810D0890700292EDA616821F0F3
:100FD000030101436160FFF723FF804641F2883936
:100FE0000DE021688903EFE78901EDE7FFF718FFBE
:100FF000A0EB0801494502D90320BDE8F0876068ED
:10100000696800F00C00B0EB810FEFD1306800F0A0
:101010000700B8420BD9306820F007003843306031
:10102000306800F00700B84201D00120E5E72878D9
:10103000400705D56068E96820F4E0600843606017
:101040002878000706D56068296920F4605040EAD6
:10105000C100606000F038F86168084AC1F303110C
:10106000515CC8400649086006480068FFF7F8FE72
:101070000020C2E70020024000100240242C00089B
:10108000140000200C00002004480549006849684D
:10109000044AC1F30221515CC8407047140000208B
:1010A00000100240342C00080448054900684968D3
:1010B000044AC1F3C221515CC840704714000020AB
:1010C00000100240342C000812A185B00FC98DE831
:1010D0000F0014A0144A006804905168134801F0EE
:1010E0000C03042B10D0082B0ED1C1F38343C9038A
:1010F0001DF803000AD5516804AAC1F34041515CB0
:101100000A4A5043B0FBF1F005B070470849484324
:10111000FAE7000002030405060708090A0B0C0D94
:101120000E0F1010010200000010024000127A00A1
:1011300000093D002DE9F84F040070D02078C04D23
:10114000C00749D06868C0F38100012807D06868EB
:10115000C0F38100022809D16868C00306D5286859
:10116000800339D560680028E7D035E06068B0F5C5
:10117000803F0BD010B1B0F5A02F11D0286820F41B
:1011800080302860286820F4802002E0286840F43D
:1011900080302860606890B1FFF742FE06460AE0A2
:1011A000286840F480202860F0E700BFFFF738FE91
:1011B000801B642873D828688003F7D50CE0FFF7FC
:1011C0002FFE064605E000BFFFF72AFE801B6428BD
:1011D000F0D828688003F7D420789A4E80074FF023
:1011E00001094FF0000839D5686810F00C0F07D0DE
:1011F0006868C0F38100022809D16868C00306D47A
:101200002868800714D52069012808D110E02069DA
:10121000B0B1C6F80090FFF703FE074605E00AE10B
:10122000FFF7FEFDC01B0228C4D828688007F7D549
:101230002868616920F0F80040EAC10028600DE0EC
:10124000C6F80080FFF7ECFD074604E0FFF7E8FD75
:10125000C01B022823D828688007F7D4207800070D
:101260002CD57948A169D9B1C0F80090FFF7D8FD15
:10127000074604E0FFF7D4FDC01B02280FD8686AB8
:101280008007F7D571484FF4FA510068B0FBF1F0D0
:10129000009000BF0098411E0091FAD20EE080E05D
:1012A000C0F80080FFF7BCFD074604E0FFF7B8FD7B
:1012B000C01B022875D8686A8007F7D420784007D9
:1012C00060D5E8690027C00008D4E86940F0805084
:1012D000E861E869012700F0805000905C480168EF
:1012E000C90513D40168834641F480710160FFF79A
:1012F00097FD824606E000BFFFF792FDA0EB0A00D3
:1013000064284ED8DBF80000C005F5D5E068012858
:101310000AD008B1052813D0286A20F001002862FD
:10132000286A20F0040002E0286A40F001002862E8
:10133000E06841F2883B98B1FFF772FD82460BE00E
:10134000286A40F004002862EEE700BFFFF768FD5E
:10135000A0EB0A0159455AD8286A8007F6D50CE057
:10136000FFF75EFD824605E0FFF75AFDA0EB0A019C
:1013700059454CD8286A8007F6D41FB1E86920F097
:101380008050E861E06988B36968C1F3810102298E
:1013900044D00228C6F8608004D0FFF741FD04461F
:1013A00038E034E0FFF73CFD074604E0FFF738FD86
:1013B000C01B02282BD828688001F7D4206AB0F51A
:1013C000803F05D16868A16820F400300843686058
:1013D000D4E908010843696821F47411084368607E
:1013E000C6F86090FFF71CFD044606E025E000BF4C
:1013F000FFF716FD001B022809D828688001F7D5E1
:101400001BE000BFFFF70CFD001B022802D90320E0
:10141000BDE8F88F28688001F4D40EE00128F7D0E9
:101420006868226A00F48031914204D1616A00F454
:101430007010884201D00120EAE70020E8E70000B0
:10144000001002400000424280044242140000208A
:101450000070004070B5040009D0606A002540B1FA
:1014600025616561A56294F8510040B10CE001204E
:1014700070BD6068B0F5827FF4D0E561F2E784F872
:101480005050204600F040F8022084F851002068B7
:10149000016821F040010160A088218900F4827078
:1014A00001F404410843A18901F400610843217C4F
:1014B00001F002010843217D01F001010843218B65
:1014C00001F400710843217F01F03801084394F8CA
:1014D000201001F080010843218D01F400510843E0
:1014E00021680860A069042101EA10402168486071
:1014F0002068C16921F40061C1616565012084F83B
:101500005100002070BD00002DE9F04385B000249B
:101510000646009401940294039400682949884285
:101520004DD12948816941F480518161816901F47B
:1015300080510491816941F0040181618069234DEA
:1015400000F004000490A0200090022001900320ED
:10155000039069462846FFF761FB4020CDE900046F
:10156000694628460294FFF759FB1A4D1848802710
:10157000E5E802044FF480784FF48069A5E8900311
:10158000144845F81849EC61FFF7F8FA08B1FFF77D
:1015900038F9F5646E620F4D0D484435143001C5BD
:1015A0001020A5E891030B4845F818494430EC6138
:1015B000FFF7E4FA08B1FFF724F9B5646E6205B0ED
:1015C000BDE8F083003001400010024000080140F7
:1015D0001C000240740000202DE9F84F04464068CA
:1015E0000025984616460F464FF0040BB0F5827F53
:1015F00001D1A06888B194F85000012818D00120CA
:1016000084F85000FFF70CFC814694F851004FF02D
:10161000000A01280ED0022582E084F851B013465A
:101620000A462046CDF8008000F036F9BDE8F88F74
:101630000220FBE7002F72D0002E70D084F851B04A
:10164000C4F854A0A763A687E687C4F830A0A4F81E
:1016500034A0A4F836A0C4F840A0C4F844A0A06800
:10166000B0F5004F09D12068016821F04001016008
:101670002068016821F48041016020680168490602
:1016800003D4016841F040010160E068D8B139E05D
:1016900020688168C90709D0007BA16B0870A06B26
:1016A000401CA063E08F401EE0870CE0FFF7B8FB12
:1016B000A0EB0901414503D3B8F1FF3F03D036E069
:1016C000B8F1000F33D0E08F0028E1D11DE0206891
:1016D0008168C90709D0C068A16B0880A06B801C15
:1016E000A063E08F401EE0870CE0FFF799FBA0EBC2
:1016F0000901414503D3B8F1FF3F03D017E0B8F12A
:10170000000F14D0E08F0028E1D14A464146204620
:1017100000F0D7FB08B120206065606D00B10125A5
:10172000012084F8510084F850A028467EE7032564
:10173000F6E72DE9F84F044690F8500000271D46C3
:101740001646894601280DD04FF0010B84F850B0A1
:10175000FFF766FB804694F85100BA46012804D092
:10176000022793E00220BDE8F88FB9F1000F73D093
:10177000002E71D0032084F85100C4F854A0C4F89E
:101780003090A686E686C4F838A0A4F83CA0A4F859
:101790003EA0C4F844A0C4F840A0A068B0F5004F33
:1017A00009D12068016821F04001016020680168CA
:1017B00041F48041016020680168490603D4016852
:1017C00041F040010160E068B0F5006F606803D04F
:1017D00030B3012E24D041E008B1012E1CD1206B82
:1017E00021680088C86006E020688168890709D5FB
:1017F000216B0988C160206B801C2063E08E401E35
:10180000E08609E0FFF70CFBA0EB0800A84202D33A
:10181000681C01D031E07DB3E08E0028E4D120E0E7
:10182000206B21680078087306E0206881688907CA
:1018300009D5216B09780173206B401C2063E08E71
:10184000401EE0860AE0FFF7EBFAA0EB0800A84292
:1018500003D3681C02D010E017E06DB1E08E0028C1
:10186000E3D142462946204600F059FB08B120202A
:101870006065A06818B106E0FFE7032706E020686E
:10188000C16880680090606D00B1012784F851B094
:1018900084F850A0384666E72DE9F84F044690F8E2
:1018A000500000270A9E1D4692468B464FF00109C4
:1018B00001280ED0012084F85000FFF7B1FA8046CD
:1018C00094F85100616801280CD0B1F5827F07D1EE
:1018D00002E00220BDE8F88FA16809B9042801D010
:1018E0000227C2E0BBF1000F27D0BAF1000F24D0CD
:1018F0001DB394F85100042802D0052084F851004B
:1019000000206065C4F838A0E587A587C4F830B02A
:10191000E586A5862064606420680168490603D4D2
:10192000016841F040010160E068B0F5006F606857
:1019300005D0E8B3012D46D07FE0012795E008B13E
:10194000012D39D1206B21680088C860206B801C74
:101950002063E08E401EE0862EE0206881688907C3
:101960000FD5E18E69B1B9F1010F0AD1216B098858
:10197000C160206B801C2063E08E401EE0864FF02B
:10198000000920688168C9070CD0E18F51B1C06897
:10199000A16B0880A06B801CA063E08F401EE087D5
:1019A0004FF00109FFF73CFAA0EB0800B04200E05D
:1019B00009E001D3701C50D1E08E0028CDD1E08F1A
:1019C0000028CAD13FE0206B216800780873206BA3
:1019D000401C2063E08E401EE0862EE02068816877
:1019E00089070FD5E18E69B1B9F1010F0AD1216BD9
:1019F00009780173206B401C2063E08E401EE08656
:101A00004FF0000920688168C9070CD0E18F51B1FF
:101A1000C068A16B0870A06B401CA063E08F401EE3
:101A2000E0874FF00109FFF7FBF9A0EB0800B04297
:101A300002D3701C01D010E07EB1E08E0028CDD121
:101A4000E08F0028CAD142463146204600F067FAAE
:101A500028B101272020606507E0032705E0A06882
:101A600018B92068C16880680090012084F851008E
:101A7000002084F8500038462CE710B5401EB0F125
:101A8000807F01D3012010BD4FF0E02460610F2161
:101A9000601700F0DDFB0020A0610720206100201E
:101AA00010BD704770B5026804461068D16853696C
:101AB00010F00F0F53D003F0010501F490762E4380
:101AC0005FD0C20705D0CA0503D5E26B42F0010220
:101AD000E263420705D5DA0703D0E26B42F0020267
:101AE000E263820705D5DA0703D0E26B42F0040215
:101AF000E263020707D501F020022A4303D0E26B1C
:101B000042F00802E263E26B002A34D0800604D57A
:101B1000880602D5204600F0AEFA20684069E16BE5
:101B2000C0F3801001F008010143204624D000F0EA
:101B300094FA2068416949061AD5416921F04001AB
:101B40004161606BA0B12D494163606BFEF75AFEA5
:101B5000002810D0606B416BBDE8704008478306D9
:101B60000FD58B060DD52046BDE8704000F083BA36
:101B70002046FFF796FF70BDFFF793FF0020E0635C
:101B800070BD03062BD50B0629D594F83900212802
:101B9000F6D1A068B0F5805F01D12069B0B1206AAC
:101BA000411C2162216800784860E08C401E0004DE
:101BB000000CE084E4D12068C16821F08001C1609C
:101BC0002068C16841F04001C16070BD206A008892
:101BD000C0F308005060206A801C2062E5E74006E0
:101BE000F3D54806F1D5D168204621F04001D160F7
:101BF000202184F8391000F0D0F870BD4B20000887
:101C000070B5040004D094F83900002510B106E046
:101C1000012070BD84F83850204600F023F82420BD
:101C200084F839002068C16821F40051C160204661
:101C300000F068FA2068016921F490410161206890
:101C4000416921F02A0141612068C16841F40051D5
:101C5000C160E563202084F8390084F83A00002050
:101C600070BD000030B585B000240094019402944A
:101C700003940068184988422CD11848816941F4BE
:101C800080418161816901F480410491816941F061
:101C9000040181618069124D00F0040004904FF44A
:101CA00000700090022001900320039069462846AE
:101CB000FEF7B4FF2815CDE90004694628460294D2
:101CC000FEF7ACFF002211462520FFF715F925206D
:101CD000FFF704F905B030BD0038014000100240A4
:101CE00000080140704700002DE9F843044690F8D1
:101CF00039001F4616460D4620284CD1C5B1BEB14D
:101D000094F83800012846D0012084F838004FF0BC
:101D10000008C4F83C80212084F83900FFF780F8DF
:101D2000A6848146E684A068B0F5805F03D004E015
:101D30000120BDE8F883206928B12E465FF0000538
:101D400084F838800EE00026FAE78021204600F073
:101D500035FAA0B9AEB116F8010B21684860E08CE5
:101D6000401EE084E08C4B464FF0000200970028B4
:101D7000EBD14FF04001204600F020FA30B10320B3
:101D8000D7E735F8020BC0F30800E6E7202084F817
:101D900039000020CDE70220CBE77047FEE70000C6
:101DA0000D4808B5416941F00101416140690022D7
:101DB00000F00100009011460C20FFF79DF80C2068
:101DC000FFF78CF8002211460D20FFF795F8BDE8CB
:101DD00008400D20FFF782B80010024030B585B0F2
:101DE000002414480094019402940394816941F002
:101DF00020018161816901F020010491816941F034
:101E00000401816180690C4D00F0040004900022FF
:101E100010212846FEF7FEFF102000900120CDE99A
:101E200001040220039069462846FEF7F7FE05B03C
:101E300030BD00000010024000080140104810B5FD
:101E40000E4901604FF48271416000214FF400623D
:101E5000C0E9021292100161C0E90512C16101627C
:101E6000416281620A21C162FFF7F4FA002803D0BF
:101E7000BDE81040FEF7C5BC10BD000000300140B9
:101E80001C0000200C4810B50A4901604FF416519F
:101E90004160002181600C22C160C0E904128161AF
:101EA000C161FFF7ADFE002803D0BDE81040FEF78A
:101EB000A8BC10BD00380140FC000020FEE77047C0
:101EC0007047F8B5044640684FF48273984217D1C2
:101ED000A0684FF48065B0F5004F01D0A8420FD143
:101EE0002068066826F0400606606068984207D1C0
:101EF000A068A84204D100920B460022012103E011
:101F000000920B4600228021204600F019F800289C
:101F100004D0606D40F0200060650320F8BD38B546
:101F20000B46009204460022802100F009F80028A8
:101F300004D0606D40F020006065032038BD0000D3
:101F40002DE9F8431E46914688460446089DFEF753
:101F500067FF401B351AFEF763FF074625480068F8
:101F6000C0F3CB30684338E0701C37D0FEF758FF21
:101F7000C01BA84203D215B1009860B32CE02068C2
:101F8000416821F0E00141606068B0F5827F0BD1CB
:101F9000A068B0F5004F02D0B0F5806F04D1206882
:101FA000016821F040010160A06AB0F5005F09D12D
:101FB0002068016821F4005101602068016841F443
:101FC00000510160012084F85100002084F8500085
:101FD0000320BDE8F8830025401E0090206881683A
:101FE00038EA010004D000214945BDD10020F0E7C6
:101FF0000121F9E7140000207047FEF717BF30B544
:102000008FB028216846FEF7C6F814210AA8FEF70B
:10201000C2F80121080400240491CDE90010CDE9A3
:1020200008040294022507956846FFF783F80F20FD
:10203000CDE90A056802CDE90C4000210AA80E94FA
:10204000FEF78CFF0FB030BD704710B5406A00211D
:10205000C185C184FFF725FD10BD0168CA6822F45F
:102060009072CA6001684A6922F001024A61202127
:1020700080F83A10704710B590F83A10222901D034
:10208000022010BD82684FF480539A4201D1016949
:1020900021B1816A9A421BD04AB10AE00268816A82
:1020A0005268C2F308020A80816A891C08E002694A
:1020B00072B10268526802F07F020A70816A491C9C
:1020C0008162C18D491E0904090CC18503D016E047
:1020D00002685268F1E70168CA6822F02002CA600B
:1020E0000168CA6822F48072CA6001684A6922F0F5
:1020F00001024A61202180F83A10FFF7F3FD002029
:1021000010BD000070B5044600680169E26821F462
:102110004051114301612169A06808436169084386
:102120002168CA6841F20C639A430243CA6020687E
:102130004169A26921F44071114341611E4920683F
:10214000884202D1FEF7B0FF01E0FEF79DFF00EBF1
:10215000C00101EB0012606864218000B2FBF0F363
:10216000B3FBF1F36FF018067343B2FBF0F5B2FB6B
:10217000F0F605EB8305322303EB0515B5FBF1F50E
:10218000B6FBF1F605F0F00505EB0615B2FBF0F62F
:10219000B2FBF0F0B0FBF1F06FF01802504306EB29
:1021A000800003EB0010B0FBF1F0216800F00F009D
:1021B0002844886070BD0000003801402DE9F041DE
:1021C000984617460E460446069D1DE0681C1BD027
:1021D0002DB1FEF725FEA0EB0800A84214D9206817
:1021E000C16821F4D071C1602068416921F001010A
:1021F0004161202084F8390084F83A00002084F8F6
:1022000038000320BDE8F0812068006836EA00004D
:1022100004D00020B842D9D00020F3E70120F9E72C
:102220000148FFF73FBC0000FC000020FEE7000073
:102230000FB4054B10B503A9044A029800F0EAF860
:1022400010BC5DF814FB0000792B0008180000207A
:102250000907090E002804DB00F1E02080F80014D3
:10226000704700F00F0000F1E02080F8141D704767
:1022700002E008C8121F08C1002AFAD1704770474F
:10228000002001E001C1121F002AFBD170470000AD
:102290002DE9FF5F82B00021DDE90430020DDDF899
:1022A00040B0034318D044F61050A2F2FF3242432C
:1022B0001514119801281FD0A5EB0B00401C5FEAF4
:1022C000000A4FF000064E4FDFF83891B0465046F6
:1022D00015D5CAF1000413E0119801244AA301287E
:1022E00001D16FEA0B010298119AC0E90031C0E9EF
:1022F000024206B0BDE8F09FCBF10000DFE70446E4
:102300000021404A491842EB0450CDE9001012E088
:10231000E00707D032463B4640464946FDF746FFB8
:102320008046894632463B4610461946FDF73EFF39
:1023300006460F466410002CEAD1DDE90401DDE910
:102340000023BAF1000F06DAFDF730FF42464B4694
:10235000FDF72CFF05E0FDF79BFF42464B46FDF7DE
:1023600097FF04460E460022284BFEF771F903D86A
:102370004FF0FF30014607E00022254B2046314652
:10238000FEF7A6F8FEF74BF9102409E0002C0ADB53
:102390000A220023FEF70EF8039B30321A55641E02
:1023A00050EA0102F2D1641C039AC4F111031444EF
:1023B000119A012A03D0012208430DD10AE00843F3
:1023C00004D000204FF0110B119072E7A3EB0B0526
:1023D0006D1E0DE05B4504DD4FF0000205F10105C7
:1023E00004E003DA4FF00002A5F10105002AECD069
:1023F00002981199C0E90231C0E9004579E700006F
:10240000000014400000F03F300000000000F043E6
:102410000000E03F2DE9FF4F95B09B4689460646F8
:1024200000250FE2252877D100242746F84A01210C
:10243000059400E0044316F8013F203B01FA03F045
:102440001042F7D130782A2811D06FF02F0330785E
:10245000A0F13002092A16D8059A44F0020402EBD2
:10246000820203EB42021044761C0590EFE759F814
:10247000042B0592002A03DA504244F400540590DC
:1024800044F00204761C30782E2816D116F8010F7D
:1024900044F004042A280DD06FF02F023078A0F108
:1024A0003003092B09D807EB870302EB4303C71856
:1024B000761CF3E759F8047B761C30786C280FD033
:1024C00006DC4C2817D068280DD06A2814D104E007
:1024D000742810D07A280FD10DE044F400140AE0DB
:1024E00044F4801401E044F440147278824202D132
:1024F00004F58014761C761C307866280BD013DC2B
:10250000582877D009DC002875D04528F6D0462811
:10251000F4D047281AD19DE118E0632835D064280B
:1025200079D0652812D195E1702873D008DC67282E
:10253000F1D069286FD06E280DD06F2806D1B5E094
:1025400073282CD0752875D0782874D05A461799DE
:1025500090476D1C75E1C4F30250022809D003288E
:102560000DD0D9F8001004280DD00D6009F1040930
:1025700067E1D9F80010EA17C1E90052F6E7D9F887
:1025800000100D80F2E70D70F0E719F8041B8DF8CC
:10259000001000208DF80100EA46012003E059F800
:1025A00004AB4FF0FF3061074FF0000102D40DE0A3
:1025B00008F101018846B9420FDA8045F8DB1AF8C4
:1025C00008100029F4D108E008F101018846814291
:1025D000FADB1AF808100029F6D105985B46A0EB43
:1025E000080721463846179A00F094FA284400EB71
:1025F000080507E04DE029E10DE01AF8010B5A4605
:1026000017999047B8F10108F7D25B462146384642
:10261000179A13E142E00A220092C4F302524FF0EB
:10262000000A022A08D059F804CB032A4FEAEC71B9
:102630000AD00DE029E02AE009F1070121F00702A4
:10264000F2E802C1914609E00FFA8CFC4FEAEC7106
:10265000042A03D14FFA8CFC4FEAEC71002907DA07
:102660000A460021DCF1000C61EB02012D2202E0A0
:10267000220504D52B228DF80420012203E0E20775
:1026800001D02022F7E7904659E00A2102E010220B
:102690000DE010214FF0000A00910BE010224FF0E6
:1026A000000A44F004040827009203E008224FF0D7
:1026B000000A0092C4F30252022A05D059F804CB52
:1026C0000021032A08D009E009F1070121F00702DF
:1026D000F2E802C1914605E01FFA8CFC042A01D100
:1026E0000CF0FF0C4FF00008220728D5702806D008
:1026F000009B83F0100353EA0A0305D00EE040224A
:102700008DF80420012208E05CEA010206D03022A4
:102710008DF804208DF8050002229046009B83F07E
:10272000080353EA0A030AD15CEA010201D16207F5
:1027300005D530228DF804204FF001087F1E58285F
:1027400004D034A003900EA802900DE036A0F9E763
:1027500053466046009AFDF72DFE84460398825C3E
:102760000298401E029002705CEA0100F0D10298CB
:1027700006A9081A00F1200A600702D524F4803463
:1027800000E00127574502DDA7EB0A0000E000202A
:1027900000EB0A01009005984144401A0590E003BF
:1027A00006D45B462146179A059800F0B3F9054414
:1027B000002706E001A85A46C05D179990476D1C96
:1027C0007F1C4745F6DBE0030CD55B462146179A94
:1027D000059800F09FF9054404E030205A46179907
:1027E00090476D1C0099481E00900029F5DC08E018
:1027F000029802995A460078491C0291179990470D
:102800006D1CBAF10001AAF1010AF1DC65E10000DA
:1028100009280100303132333435363738396162B6
:10282000636465660000000030313233343536377A
:1028300038394142434445460000000000F058F951
:102840000544761C307800287FF4ECAD19B028469A
:10285000BDE8F08F620700D4062709F1070222F0D5
:10286000070CFCE80223E14603F000485FEA080C8D
:1028700002D00FF2702C0DE05FEA045C02D50FF27B
:10288000682C07E05FEAC47C02D00FF2602C01E004
:10289000AFF2700C4FF0FF3823F00043CDF850C07A
:1028A00065280CD006DC452809D046281DD04728CD
:1028B0003DD13DE0662818D067287ED138E0002160
:1028C000112F01DB112000E0781CCDE9000106A9E1
:1028D0000EA8FFF7DDFCDDE90F010E9A0391002140
:1028E000009207F1010A04914DE04FF0004000977B
:1028F000CDE9011006A90EA8FFF7CAFCDDE90F0219
:1029000003920E9B11990022DDF80CA00093049213
:1029100011B9791C00EB010AB7EB0A0004D4C0F12D
:10292000FF3007F1010A0490AAEB0700019044E090
:10293000012F00DA01270021112F01DD112000E015
:102940003846CDE9000106A90EA8FFF7A1FCDDE994
:102950000F010E9A0391002104910092BA462107BB
:102960000CD40399514500DA8A46BAF1010F05DD0E
:10297000009AAAF10101515C302908D0B84202DA6C
:1029800010F1040F06DA0121CDE9011015E0AAF1DA
:102990000101E9E7002805DC049901440491AAEB50
:1029A000000102E0411C514500DD8A460499401AAD
:1029B000401C01904FF000400290200704D4019881
:1029C000504501DBCDF8048000208DF84F000298BF
:1029D0000DF14F07B0F1004F25D02B200E9002983B
:1029E0004FF0020800280CDA404202902D200E9091
:1029F00007E00A210298FDF7C7FC3031029007F882
:102A0000011DB8F10001A8F10108F2DC02980028CC
:102A1000EFD1791E0E980870307800F0200040F059
:102A2000450007F8020D12A8C01B00F10708149812
:102A3000007800B1012000EB0A01019801EBE07180
:102A400005984144401A401E0590E00306D45B46B9
:102A50002146179A059800F05DF80544149800780F
:102A600018B15A46179990476D1CE00324D55B4670
:102A70002146179A059800F04DF805441CE004988B
:102A8000002807DBDDE90301884203DD0098405C94
:102A9000179901E0179930205A469047049805F19C
:102AA0000105401C04900198401E019004D12E2085
:102AB0005A46179990476D1CBAF10001AAF1010A14
:102AC000DDDC05E017F8010B5A46179990476D1C9D
:102AD000B8F10001A8F10108F4DC5B462146179A21
:102AE0000598ABE62D0000002B0000002000000040
:102AF0002DE9F041044600251E461746880404D4FB
:102B000005E039462020B0476D1C641EF9D52846E3
:102B1000BDE8F0812DE9F041044600251E469046AF
:102B2000C80301D5302700E02027880404D505E03C
:102B300041463846B0476D1C641EF9D52846BDE8AD
:102B4000F081000070B54FF0E0240022656909496A
:102B5000A36909684843A1699942FCD002D2A3EB5A
:102B6000010302E0A5EB010633441A440B468242FE
:102B7000F1D370BD0000002013B542F210730122A2
:102B800069460248FFF7B0F800981CBDFC00002021
:102B9000FEF754F9FFF733FAFFF720F9FFF700F9D2
:102BA000FFF74CF9FFF76EF9134EDFF85080DFF8AE
:102BB00050904FF47A750120FDF796FD04462846A3
:102BC000FEF71AF82046FDF7D2FB04460F462246D0
:102BD0003B460CA0FFF72CFB20463946002233462B
:102BE000FDF756FB42464B46FDF7E0FA02460B4620
:102BF00009A0FFF71DFBDEE70000E04083C0CAA18B
:102C000045B6074028646F75626C65296E756D3D29
:102C10003D256C660D0A0000256C6620760D0A0DB8
:102C20000A00000000000000000000000102030490
:102C30000607080900000000010203045C2C0008DC
:102C4000000000201C00000070220008782C000802
:102C50001C00002024050000802200080000000065
:102C60000000000001000000100000000000000053
:082C70000024F4000000000044
:0400000508000131BD
:00000001FF
