:020000040800F2
:1000000008080020CD0100081D050008B303000802
:10001000190500087D0200086B09000800000000B7
:100020000000000000000000000000000D070008B4
:100030008102000800000000A10600082108000855
:10004000E7010008E7010008E7010008E7010008F0
:10005000E7010008E7010008E7010008E7010008E0
:10006000E7010008E7010008E7010008E7010008D0
:10007000E7010008E7010008E7010008E7010008C0
:10008000E7010008E7010008E7010008E7010008B0
:10009000E7010008E7010008E7010008E7010008A0
:1000A000E7010008E7010008E7010008E701000890
:1000B000E7010008E7010008E7010008E701000880
:1000C000E7010008E7010008E7010008E701000870
:1000D000E701000885080008E7010008E7010008BB
:1000E000E7010008E7010008E7010008E701000850
:1000F000E7010008E7010008E7010008E701000840
:10010000E7010008E7010008E7010008E70100082F
:10011000E7010008E7010008E7010008E70100081F
:10012000E7010008E7010008E7010008E70100080F
:1001300000F002F800F03AF80AA090E8000C8244BF
:100140008344AAF10107DA4501D100F02FF8AFF29C
:10015000090EBAE80F0013F0010F18BFFB1A43F0A5
:1001600001031847C0090000E0090000103A24BF4D
:1001700078C878C1FAD8520724BF30C830C144BF0C
:1001800004680C607047000000230024002500264E
:10019000103A28BF78C1FBD8520728BF30C148BFEA
:1001A0000B6070471FB51FBD10B510BD00F033F8D0
:1001B0001146FFF7F7FF00F077FC00F051F803B4A9
:1001C000FFF7F2FF03BC00F0FEFB00000948804788
:1001D00009480047FEE7FEE7FEE7FEE7FEE7FEE729
:1001E000FEE7FEE7FEE7FEE704480549054A064B41
:1001F00070470000250800083101000808020020AF
:1002000008080020080400200804002070477047F8
:10021000704770477047754600F02CF8AE460500F1
:100220006946534620F00700854618B020B5FFF711
:10023000DBFFBDE820404FF000064FF000074FF015
:1002400000084FF0000B21F00701AC46ACE8C009F4
:10025000ACE8C009ACE8C009ACE8C0098D467047FD
:1002600010B50446AFF300802046BDE81040FFF70C
:10027000A6BF000000487047A801002000BFFEE7AD
:1002800070472DE9F041024600250026002000239A
:100290000024002791F803C00CF00F0591F803C06B
:1002A0000CF0100CBCF1000F03D091F802C04CEA26
:1002B000050591F800C0BCF1000F31D01468002092
:1002C0002BE04FF0010C0CFA00F3B1F800C00CEA7F
:1002D00003069E4220D183004FF00F0C0CFA03F767
:1002E000BC4305FA03FC4CEA040491F803C0BCF1DA
:1002F000280F06D14FF0010C0CFA00FCC2F814C014
:100300000AE091F803C0BCF1480F05D14FF0010C91
:100310000CFA00FCC2F810C0401C0828D1D31460AD
:10032000B1F800C0BCF1FF0F34DD546800202EE0AE
:1003300000F1080C4FF0010808FA0CF3B1F800C006
:100340000CEA03069E4221D183004FF00F0C0CFAF9
:1003500003F7BC4305FA03FC4CEA040491F803C01C
:10036000BCF1280F05D100F1080C08FA0CF8C2F80E
:10037000148091F803C0BCF1480F07D100F1080CBC
:100380004FF0010808FA0CF8C2F81080401C082849
:10039000CED35460BDE8F0810246002093680B4044
:1003A0000BB1012000E000207047416170470161FE
:1003B000704700BFFEE7000008B50121042000F0EF
:1003C00071F94FF4C050ADF8000003208DF8020021
:1003D00010208DF8030069460148FFF752FF08BD61
:1003E0000008014070B5044600F07EF9002529E0C0
:1003F0004FF400611548FFF7D8FF022000F02EFBF4
:1004000004F0800028B14FF480511048FFF7CFFF6F
:1004100004E04FF480510D48FFF7C7FF4FF400612F
:100420000A48FFF7C4FF022000F018FB4FF40061F8
:100430000648FFF7BAFF022000F010FB6006040E2A
:10044000681CC5B2082DD3DB70BD00000008014058
:1004500010B500F049F94FF480510E48FFF7A7FF9F
:100460004FF400610B48FFF7A2FF022000F0F6FAFC
:100470004FF480510748FFF798FF022000F0EEFA92
:100480004FF400610348FFF790FF022000F0E6FA06
:1004900010BD00000008014010B54FF400610A488B
:1004A000FFF785FF4FF480510748FFF77EFF0220DA
:1004B00000F0D4FA4FF480510348FFF778FF022090
:1004C00000F0CCFA10BD00000008014010B5002477
:1004D00000F0F8F84FF400610E48FFF768FF0220C3
:1004E00000F0BCFA05E0601CC4B2FA2C01DD01206A
:1004F00010BD4FF480510748FFF74EFF0028F2D19E
:100500004FF400610348FFF750FF022000F0A6FA05
:100510000020EDE70008014000BFFEE7704710B57E
:10052000002000F001F810BD70B50646002415E06B
:1005300004F1B001C8B200F01AFA002000F017FA76
:10054000102000F014FA002504E0304600F025FAEF
:10055000681CC5B2802DF8DB601CC4B2082CE7DB38
:1005600070BD10B5642000F053FAAE2000F0FFF922
:10057000202000F0FCF9102000F0F9F9B02000F084
:10058000F6F9C82000F0F3F9002000F0F0F910208F
:1005900000F0EDF9402000F0EAF9812000F0E7F9E1
:1005A000FF2000F0E4F9A12000F0E1F9A62000F01E
:1005B000DEF9A82000F0DBF93F2000F0D8F9A420F4
:1005C00000F0D5F9D32000F0D2F9002000F0CFF9E7
:1005D000D52000F0CCF9F02000F0C9F9D92000F0C6
:1005E000C6F9222000F0C3F9DA2000F0C0F9122089
:1005F00000F0BDF9DB2000F0BAF9202000F0B7F9D7
:100600008D2000F0B4F9142000F0B1F9AF2000F013
:10061000AEF910BD70B504460D4605F1B001C8B283
:1006200000F0A5F9102141EA141000F0A0F904F03F
:100630000F0141F0010000F09AF970BD2DE9F04181
:1006400007460D461646782F02DD0027681CC5B206
:1006500029463846FFF7DEFF002407E00F4A02EB89
:100660008611085D00F099F9601CC4B2102CF5DB0E
:10067000681CC1B23846FFF7CDFF002409E07100C5
:10068000491C064A02EB4111085D00F086F9601C26
:10069000C4B2102CF3DBBDE8F08100001400002090
:1006A0007047000029B1064A92690243044B9A61DF
:1006B00004E0034A92698243014B9A61704700004B
:1006C0000010024008B54FF48050ADF80000032040
:1006D0008DF8020048208DF8030069460148FFF7B5
:1006E000D0FD08BD0008014008B54FF48050ADF8BA
:1006F000000003208DF8020010208DF803006946E9
:100700000148FFF7BEFD08BD00080140704710B565
:1007100000F002F810BD00000CB500200190009020
:100720003348006840F480303149086000BF3048E9
:10073000006800F4003000900198401C019000987F
:1007400018B90198B0F5A06FF1D12948006800F4FC
:10075000003010B10120009001E0002000900098CE
:10076000012843D12348006840F010002149086067
:100770000846006820F0030008600846006840F062
:10078000020008601A4840681949486008464068F5
:1007900048600846406840F4806048600846406809
:1007A00020F47C1048600846406840F4E810486037
:1007B0000846006840F08070086000BF0C48006880
:1007C00000F000700028F9D00948406820F00300CC
:1007D000074948600846406840F00200486000BF92
:1007E0000348406800F00C000828F9D10CBD000057
:1007F0000010024000200240042808D14FF0E02100
:10080000096941F004014FF0E022116107E04FF067
:10081000E021096921F004014FF0E02211617047E5
:100820007047000010B51348006840F001001149FE
:10083000086008464068104908400E49486008466C
:1008400000680E4908400B4908600846006820F41B
:10085000802008600846406820F4FE0048604FF49D
:100860001F008860FFF753FF4FF0006004490860E5
:1008700010BD0000001002400000FFF8FFFFF6FE70
:1008800008ED00E010B540F225511D4800F03EF89B
:1008900010B31B4800F064F8C4B21A48008800F492
:1008A0000040C8B91748008800F4804060B10A2CA5
:1008B00003D000201349088020E01248008840F44B
:1008C00000401049088019E00D2C06D10D48008821
:1008D00040F480400B49088010E00A480088C0F3CB
:1008E0000D0009490C5407480088401C0549088040
:1008F00008460088C72801DD0020088010BD0000E0
:1009000000380140DC000020E000002070B5024605
:10091000002400230025002040F66A16B14200D1D1
:1009200000BFC1F3421501F01F03012606FA03F3CD
:10093000012D02D19689334006E0022D02D1168A9C
:10094000334001E0968A33400C12012606FA04F483
:100950001688344013B10CB1012000E0002070BDB6
:1009600001468888C0F30800704700BFFEE710B555
:100970000446FFF76DFD7820FFF734FDFFF7A6FD75
:100980000020FFF72FFDFFF7A1FD2046FFF72AFD0E
:10099000FFF79CFDFFF780FD10BD10B50446FFF783
:1009A00057FD7820FFF71EFDFFF790FD4020FFF771
:1009B00019FDFFF78BFD2046FFF714FDFFF786FDBD
:1009C000FFF76AFD10BD00BF7047000010B56FF063
:1009D0000400FFF711FF0A4800680A49B0FBF1F074
:1009E000094908700846007800EB4001C1EBC010CF
:1009F0004FF6FF7101EAC0000449088010BD0000F5
:100A00000000002000127A00D4000020D600002050
:100A10000146114A12884A434FF0E0235A610022EE
:100A20009A611A46126942F001021A6100BF4FF042
:100A3000E022106900F001021AB100F48032002AAD
:100A4000F5D04FF0E022126922F001024FF0E023CE
:100A50001A6100229A617047D60000200146114AAF
:100A600012784A434FF0E0235A6100229A611A46F5
:100A7000126942F001021A6100BF4FF0E0221069D2
:100A800000F001021AB100F48032002AF5D04FF0D4
:100A9000E022126922F001024FF0E0231A610022E5
:100AA0009A617047D400002008B5FFF785FCFFF776
:100AB0008DFFFFF756FD01210420FFF7F3FD102005
:100AC0008DF803000001ADF8000003208DF802004E
:100AD00069461348FFF7D5FB4FF480711048FFF7C4
:100AE00066FCFFF71CFD19E0002211461046FFF7D7
:100AF000A5FD012200211220FFF7A0FD4FF4807117
:100B00000748FFF752FC0220FFF782FF4FF4807185
:100B10000348FFF74CFC0820FFF77AFFE4E70000EA
:100B200000080140440B000800000020E000000025
:100B30006C010008240C0008E000002028070000D9
:100B40008801000800A24A04000000000000000024
:100B5000010203040607080920242424FE2322207E
:100B600020FF20222CA02000000000000000000038
:100B70000000000000000000000848847F0241409F
:100B800020130C142241F8000000000000000000B7
:100B9000000000000000000080642C342424EC32AB
:100BA0002222322E23A2600000000000000000007C
:100BB00000000000000000000041219189874D5590
:100BC0002525554D818080000000000000000000B8
:100BD0000000000000000000008060F807402018BE
:100BE0000F08C808082818000000000000000000D6
:100BF0000000000000000000010000FF00100C03D6
:100C000040807F0001061800000000000000000086
:100C100000000000000000000000000000000000D4
:040C200000000000D0
:04000005080001CD21
:00000001FF
