:020000040800F2
:10000000280600200101000821040008B9020008A8
:100010001D040008830100085B09000800000000BF
:10002000000000000000000000000000FD060008C5
:100030008701000800000000910600081108000870
:100040001B0100081B0100081B0100081B01000820
:100050001B0100081B0100081B0100081B01000810
:100060001B0100081B0100081B0100081B01000800
:100070001B0100081B0100081B0100081B010008F0
:100080001B0100081B0100081B0100081B010008E0
:100090001B0100081B0100081B0100081B010008D0
:1000A0001B0100081B0100081B0100081B010008C0
:1000B0001B0100081B0100081B0100081B010008B0
:1000C0001B0100081B0100081B0100081B010008A0
:1000D0001B010008750800081B0100081B0100082F
:1000E0001B0100081B0100081B010008DFF80CD0F1
:1000F00000F018F800480047B10A00082806002060
:100100000648804706480047FEE7FEE7FEE7FEE7B1
:10011000FEE7FEE7FEE7FEE7FEE7FEE7150800085C
:10012000ED000008064C074D06E0E06840F00103D2
:1001300094E8070098471034AC42F6D3FFF7DAFF93
:10014000AC140008CC14000830B58C1810F8012B42
:1001500012F00F0301D110F8013B120906D110F87B
:10016000012B03E010F8015B01F8015B5B1EF9D184
:1001700001E001F8013B521EFBD1A142E6D3002071
:1001800030BD00BFFEE770472DE9F0410246002573
:100190000026002000230024002791F803C00CF063
:1001A0000F0591F803C00CF0100CBCF1000F03D048
:1001B00091F802C04CEA050591F800C0BCF1000FAF
:1001C00031D0146800202BE04FF0010C0CFA00F342
:1001D000B1F800C00CEA03069E4220D183004FF024
:1001E0000F0C0CFA03F7BC4305FA03FC4CEA0404B9
:1001F00091F803C0BCF1280F06D14FF0010C0CFAA6
:1002000000FCC2F814C00AE091F803C0BCF1480F2A
:1002100005D14FF0010C0CFA00FCC2F810C0401CD4
:100220000828D1D31460B1F800C0BCF1FF0F34DD51
:10023000546800202EE000F1080C4FF0010808FA85
:100240000CF3B1F800C00CEA03069E4221D18300F2
:100250004FF00F0C0CFA03F7BC4305FA03FC4CEA11
:10026000040491F803C0BCF1280F05D100F1080C7B
:1002700008FA0CF8C2F8148091F803C0BCF1480FDA
:1002800007D100F1080C4FF0010808FA0CF8C2F889
:100290001080401C0828CED35460BDE8F08102468F
:1002A000002093680B400BB1012000E00020704754
:1002B000416170470161704700BFFEE708B5012149
:1002C000042000F0E7F94FF4C050ADF8000003201F
:1002D0008DF8020010208DF8030069460148FFF7F1
:1002E00053FF08BD0008014070B5044600F0F4F962
:1002F000002529E04FF400611548FFF7D9FF0220DF
:1003000000F0B0FB04F0800028B14FF48051104899
:10031000FFF7D0FF04E04FF480510D48FFF7C8FF0E
:100320004FF400610A48FFF7C5FF022000F09AFB76
:100330004FF400610648FFF7BBFF022000F092FB7C
:100340006006040E681CC5B2082DD3DB70BD00002A
:100350000008014010B500F0BFF94FF480510E487D
:10036000FFF7A8FF4FF400610B48FFF7A3FF02203F
:1003700000F078FB4FF480510748FFF799FF022007
:1003800000F070FB4FF400610348FFF791FF02207B
:1003900000F068FB10BD00000008014010B54FF4EC
:1003A00000610A48FFF786FF4FF480510748FFF7C6
:1003B0007FFF022000F056FB4FF480510348FFF707
:1003C00079FF022000F04EFB10BD00000008014044
:1003D00010B5002400F06EF94FF400610E48FFF7ED
:1003E00069FF022000F03EFB05E0601CC4B2FA2C5D
:1003F00001DD012010BD4FF480510748FFF74FFF8A
:100400000028F2D14FF400610348FFF751FF0220AA
:1004100000F028FB0020EDE70008014000BFFEE7E8
:10042000704710B5002000F001F810BD70B5064609
:10043000002415E004F1B001C8B200F090FA0020E9
:1004400000F08DFA102000F08AFA002504E0304612
:1004500000F09BFA681CC5B2802DF8DB601CC4B2AA
:10046000082CE7DB70BD10B5642000F0D5FAAE2093
:1004700000F075FA202000F072FA102000F06FFAF8
:10048000B02000F06CFAC82000F069FA002000F0FB
:1004900066FA102000F063FA402000F060FA812034
:1004A00000F05DFAFF2000F05AFAA12000F057FAA0
:1004B000A62000F054FAA82000F051FA3F2000F0E6
:1004C0004EFAA42000F04BFAD32000F048FA0020A6
:1004D00000F045FAD52000F042FAF02000F03FFA93
:1004E000D92000F03CFA222000F039FADA2000F09E
:1004F00036FA122000F033FADB2000F030FA202028
:1005000000F02DFA8D2000F02AFA142000F027FACE
:10051000AF2000F024FA10BD70B504460D4605F179
:10052000B001C8B200F01BFA102141EA141000F02B
:1005300016FA04F00F0141F0010000F010FA70BD4E
:100540002DE9F04107460D461646782F02DD0027BB
:10055000681CC5B229463846FFF7DEFF002407E0D5
:100560000F4A02EB8611085D00F00FFA601CC4B25E
:10057000202CF5DB681CC1B23846FFF7CDFF002404
:1005800009E07100491C064A02EB4111085D00F0C8
:10059000FCF9601CC4B2202CF3DBBDE8F081000044
:1005A000140000202DE9F0470646894617469A4672
:1005B0004FF0000800240025BAF1010F03D0BAF172
:1005C000020F5ED125E020E0785D203800F0FF08C2
:1005D0007E2E04DD002609F1010000F0FF094946E6
:1005E0003046FFF799FF002409E008EB4801264A4E
:1005F00002EB4101085D00F0C8F9601CC4B2062C92
:10060000F3DBB01DC6B2681CC5B2785D0028DBD133
:1006100037E032E0785D203800F0FF08782E04DD06
:10062000002609F1010000F0FF0949463046FFF7B6
:1006300073FF002407E004EB0811144A505C00F03B
:10064000A4F9601CC4B2082CF5DB09F10100C1B2A9
:100650003046FFF761FF002408E004EB0811083181
:100660000A4A505C00F091F9601CC4B2082CF4DB1B
:1006700006F10800C6B2681CC5B2785D0028C9D171
:1006800000BF00BFBDE8F087920C0008BA0E00085A
:100690007047000029B1064A92690243044B9A61EF
:1006A00004E0034A92698243014B9A61704700005B
:1006B0000010024008B54FF48050ADF80000032050
:1006C0008DF8020048208DF8030069460148FFF7C5
:1006D0005BFD08BD0008014008B54FF48050ADF83F
:1006E000000003208DF8020010208DF803006946F9
:1006F0000148FFF749FD08BD00080140704710B5EB
:1007000000F002F810BD00000CB500200190009030
:100710003348006840F480303149086000BF3048F9
:10072000006800F4003000900198401C019000988F
:1007300018B90198B0F5A06FF1D12948006800F40C
:10074000003010B10120009001E0002000900098DE
:10075000012843D12348006840F010002149086077
:100760000846006820F0030008600846006840F072
:10077000020008601A484068194948600846406805
:1007800048600846406840F4806048600846406819
:1007900020F47C1048600846406840F4E810486047
:1007A0000846006840F08070086000BF0C48006890
:1007B00000F000700028F9D00948406820F00300DC
:1007C000074948600846406840F00200486000BFA2
:1007D0000348406800F00C000828F9D10CBD000067
:1007E0000010024000200240042808D14FF0E02110
:1007F000096941F004014FF0E022116107E04FF078
:10080000E021096921F004014FF0E02211617047F5
:100810007047000010B51348006840F0010011490E
:10082000086008464068104908400E49486008467C
:1008300000680E4908400B4908600846006820F42B
:10084000802008600846406820F4FE0048604FF4AD
:100850001F008860FFF753FF4FF0006004490860F5
:1008600010BD0000001002400000FFF8FFFFF6FE80
:1008700008ED00E010B540F225511D4800F03EF8AB
:1008800010B31B4800F064F8C4B21A48008800F4A2
:100890000040C8B91748008800F4804060B10A2CB5
:1008A00003D000201349088020E01248008840F45B
:1008B00000401049088019E00D2C06D10D48008831
:1008C00040F480400B49088010E00A480088C0F3DB
:1008D0000D0009490C5407480088401C0549088050
:1008E00008460088C72801DD0020088010BD0000F0
:1008F000003801405C0100206001002070B5024614
:10090000002400230025002040F66A16B14200D1E1
:1009100000BFC1F3421501F01F03012606FA03F3DD
:10092000012D02D19689334006E0022D02D1168AAC
:10093000334001E0968A33400C12012606FA04F493
:100940001688344013B10CB1012000E0002070BDC6
:1009500001468888C0F30800704700BFFEE710B565
:100960000446FFF7F7FC7820FFF7BEFCFFF730FDE9
:100970000020FFF7B9FCFFF72BFD2046FFF7B4FC82
:10098000FFF726FDFFF70AFD10BD10B50446FFF77F
:10099000E1FC7820FFF7A8FCFFF71AFD4020FFF7E5
:1009A000A3FCFFF715FD2046FFF79EFCFFF710FDA7
:1009B000FFF7F4FC10BD02E008C8121F08C1002AAE
:1009C000FAD170477047002001E001C1121F002AD0
:1009D000FBD1704710B56FF00400FFF705FF0A4820
:1009E00000680A49B0FBF1F0094908700846007830
:1009F00000EB4001C1EBC0104FF6FF7101EAC000EF
:100A00000449088010BD00000000002000127A0098
:100A100054010020560100200146114A12884A4321
:100A20004FF0E0235A6100229A611A46126942F09F
:100A300001021A6100BF4FF0E022106900F00102CC
:100A40001AB100F48032002AF5D04FF0E02212698A
:100A500022F001024FF0E0231A6100229A617047F0
:100A6000560100200146114A12784A434FF0E02314
:100A70005A6100229A611A46126942F001021A6113
:100A800000BF4FF0E022106900F001021AB100F43B
:100A90008032002AF5D04FF0E022126922F00102E4
:100AA0004FF0E0231A6100229A6170475401002040
:100AB000FFF790FFFFF702FCFFF7D5FCFFF7B1FC53
:100AC00029E0012000F02EF8022000F02BF8FF2092
:100AD000FFF7ACFC4FF49670FFF79EFF0020FFF786
:100AE000A5FC022000F01EF8012000F01BF8FF20FA
:100AF000FFF79CFC4FF49670FFF78EFF022306A2CF
:100B000004212020FFF74EFD4FF49670FFF784FF7D
:100B10000020FFF78BFCD4E7566963746F7279216C
:100B20002121000010B50446204604EBD071491085
:100B3000A4EB4101491C022950D100221146104664
:100B4000FFF7FEFC4FF49670FFF766FF01220021CD
:100B50001020FFF7F5FC4FF49670FFF75DFF0222BF
:100B600000212020FFF7ECFC4FF49670FFF754FFB4
:100B7000002203211046FFF7E3FC4FF49670FFF7C5
:100B80004BFF032211461020FFF7DAFC4FF496705A
:100B9000FFF742FF022203212020FFF7D1FC4FF490
:100BA0009670FFF739FF002206211046FFF7C8FCB8
:100BB0004FF49670FFF730FF042206211020FFF754
:100BC000BFFC4FF49670FFF727FF0222062120207A
:100BD000FFF7B6FC4FF49670FFF71EFF204604EBBC
:100BE000D0714910A4EB4101491C012950D10022C8
:100BF00011464F20FFF7A4FC4FF49670FFF70CFF4F
:100C0000012200215F20FFF79BFC4FF49670FFF755
:100C100003FF022200216F20FFF792FC4FF4967031
:100C2000FFF7FAFE002203214F20FFF789FC4FF463
:100C30009670FFF7F1FE032211465F20FFF780FC5C
:100C40004FF49670FFF7E8FE022203216F20FFF7B2
:100C500077FC4FF49670FFF7DFFE002206214F204D
:100C6000FFF76EFC4FF49670FFF7D6FE04220621C4
:100C70005F20FFF765FC4FF49670FFF7CDFE022270
:100C800006216F20FFF75CFC4FF49670FFF7C4FE5F
:100C900010BD0000000000000000002F0000000058
:100CA0000700070000147F147F1400242A7F2A12F3
:100CB00000626408132300364955225000000503E2
:100CC000000000001C224100000041221C00001412
:100CD000083E08140008083E0808000000A0600054
:100CE00000080808080800006060000000201008E4
:100CF0000402003E5149453E0000427F4000004250
:100D000061514946002141454B31001814127F10B2
:100D1000002745454539003C4A49493000017109E1
:100D2000050300364949493600064949291E000095
:100D3000363600000000563600000008142241003C
:100D4000001414141414000041221408000201516C
:100D5000090600324959513E007C1211127C007F75
:100D600049494936003E41414122007F4141221C10
:100D7000007F49494941007F09090901003E414975
:100D8000497A007F0808087F0000417F4100002069
:100D900040413F01007F08142241007F4040404015
:100DA000007F020C027F007F0408107F003E41415B
:100DB000413E007F09090906003E4151215E007F46
:100DC000091929460046494949310001017F0101BD
:100DD000003F4040403F001F2040201F003F403860
:100DE000403F00631408146300070870080700619F
:100DF0005149454300007F41410000552A552A557D
:100E0000000041417F000004020102040040404014
:100E10004040000001020400002054545478007F38
:100E20004844443800384444442000384444487F0F
:100E300000385454541800087E0901020018A4A474
:100E4000A47C007F080404780000447D400000403A
:100E500080847D00007F102844000000417F400016
:100E6000007C04180478007C0804047800384444AA
:100E7000443800FC242424180018242418FC007C86
:100E80000804040800485454542000043F444020FF
:100E9000003C4040207C001C2040201C003C403096
:100EA000403C004428102844001CA0A0A07C004422
:100EB00064544C4414141414141400000000000072
:100EC00000000000000000000000000000F800002A
:100ED0000000000000333000000000100C06100C71
:100EE0000600000000000000000040C07840C0780C
:100EF0004000043F04043F040400007088FC0830F4
:100F00000000001820FF211E0000F008F000E0188B
:100F1000000000211C031E211E0000F00888700044
:100F200000001E2123241927211010160E00000096
:100F300000000000000000000000000000E01804B5
:100F40000200000000071820400000020418E00022
:100F500000000040201807000000404080F0804062
:100F600040000202010F01020200000000F0000038
:100F700000000101011F010101000000000000004C
:100F8000000080B0700000000000000000000000C1
:100F9000000000010101010101010000000000004A
:100FA0000000003030000000000000000000806001
:100FB0001804006018060100000000E01008081086
:100FC000E000000F102020100F00001010F80000AB
:100FD00000000020203F2020000000700808088842
:100FE0007000003028242221300000300888884812
:100FF00030000018202020110E000000C02010F842
:10100000000000070424243F240000F80888880812
:1010100008000019212020110E0000E01088881817
:101020000000000F112020110E0000380808C838F9
:1010300008000000003F00000000007088080888D9
:101040007000001C222121221C0000E01008081062
:10105000E0000000312222110F00000000C0C0009B
:1010600000000000003030000000000000800000A0
:1010700000000000806000000000000080402010A0
:101080000800000102040810200040404040404099
:1010900040000404040404040400000810204080FC
:1010A0000000002010080402010000704808080831
:1010B000F0000000003036010000C030C828E81001
:1010C000E0000718272423140B000000C038E000BC
:1010D0000000203C23020227382008F88888887006
:1010E0000000203F202020110E00C0300808080812
:1010F0003800071820202010080008F808080810F9
:10110000E000203F202020100F0008F88888E80821
:101110001000203F20202320180008F88888E808C5
:101120001000203F200003000000C03008080838ED
:10113000000007182020221E020008F808000008FE
:10114000F808203F210101213F20000808F8080885
:1011500000000020203F2020000000000808F808C0
:101160000800C08080807F00000008F888C0281830
:101170000800203F20012638200008F80800000061
:101180000000203F20202020300008F8F800F8F868
:101190000800203F003F003F200008F830C0000852
:1011A000F808203F200007183F00E010080808104A
:1011B000E0000F10202020100F0008F80808080891
:1011C000F000203F210101010000E0100808081094
:1011D000E0000F18242438504F0008F888888888C9
:1011E0007000203F2000030C3020007088080808A1
:1011F00038000038202121221C00180808F80808AF
:1012000018000000203F2000000008F80800000837
:10121000F808001F202020201F000878880000C840
:101220003808000007380E010000F80800F8000830
:10123000F800033C0700073C03000818688080683A
:10124000180820302C03032C30200838C800C83878
:1012500008000000203F2000000010080808C838DF
:1012600008002038262120201800000000FE02027D
:1012700002000000007F40404000000C30C0000031
:101280000000000000010638C00000020202FE005B
:101290000000004040407F00000000000402020205
:1012A000040000000000000000000000000000003A
:1012B0000000808080808080808000020204000026
:1012C000000000000000000000000000808080801E
:1012D00000000019242222223F2008F8008080000C
:1012E0000000003F112020110E00000000808080CF
:1012F0000000000E112020201100000000808088D6
:10130000F800000E112020103F2000008080808017
:101310000000001F222222221300008080F0888813
:1013200088180020203F202000000000808080805E
:101330008000006B94949493600008F80080808093
:101340000000203F210000203F20008098980000EE
:1013500000000020203F202000000000008098981E
:10136000000000C08080807F000008F800008080BE
:101370008000203F24022D302000000808F80000E3
:1013800000000020203F202000008080808080809E
:101390008000203F20003F20003F80800080808030
:1013A0000000203F210000203F200000808080803E
:1013B0000000001F202020201F008080008080006F
:1013C000000080FFA12020110E000000008080801E
:1013D0008000000E112020A0FF808080800080808F
:1013E000800020203F2120000100000080808080BC
:1013F00080000033242424241900008080E08080B1
:1014000000000000001F20200000808000000080FD
:101410008000001F202020103F208080800000805E
:10142000808000010E30080601008080008000806E
:1014300080800F300C030C300F0000808000808013
:1014400080000020312E0E3120008080800000803E
:10145000808080818E7018060100008080808080EE
:1014600080000021302C2221300000000000807C10
:10147000020200000000003F404000000000FF00AA
:10148000000000000000FF0000000002027C80005D
:1014900000000040403F0000000000060101020281
:1014A000040400000000000000000000CC1400084C
:1014B0000000002060010000480100087C150008C1
:1014C00060010020C8040000C60900089500A24A77
:1014D00004001813010203040607080902E222228D
:1014E0003E8080FF80A09088868080354382423E87
:1014F0000912FF402106081020400010142020FF90
:101500002024F4545454FF545556F4040E12FF0092
:10151000080B1969090B49897D0B080F131060022C
:101520008C00F0022242F24A2602F00F1304047EDD
:1015300001007F444A514F414244FF0010121028DD
:1015400024E324285042424AD26A4640C03C01F972
:10155000494F49F9010040807F0214010F12806059
:10156000F8070808C839CE080808880832010D1E97
:0C157000FF040201FF4021060A11204088
:04000005080000ED02
:00000001FF
