:020000040800F2
:1000000080350020AD020008AF44000839420008E6
:10001000AD4400084D0800089D560008000000008F
:10002000000000000000000000000000F54600088D
:10003000890C000800000000B1440008F7460008E1
:10004000C7020008C7020008C7020008C70200086C
:10005000C7020008C7020008C7020008C70200085C
:10006000C7020008C7020008C7020008C70200084C
:10007000C7020008C7020008C7020008C70200083C
:10008000C7020008C7020008C7020008C70200082C
:10009000C7020008C7020008C7020008C70200081C
:1000A000C7020008C7020008C7020008C70200080C
:1000B000C7020008C7020008C7020008C7020008FC
:1000C000C7020008C7020008C7020008C7020008EC
:1000D000C7020008C7020008C7020008C7020008DC
:1000E000C7020008C702000800000000C70200089D
:1000F000C7020008C7020008C7020008C7020008BC
:10010000C7020008C7020008C7020008C7020008AB
:10011000C7020008C7020008C7020008C70200089B
:10012000C7020008C7020008C7020008C70200088B
:10013000C7020008C7020008C7020008C70200087B
:1001400000000000000000000000000000000000AF
:10015000C7020008C7020008C7020008C70200085B
:10016000C7020008C7020008C7020008C70200084B
:10017000C7020008C7020008C7020008000000000C
:10018000C7020008C7020008C7020008C70200082B
:10019000C7020008C7020008C7020008C70200081B
:1001A000C7020008C7020008C7020008C70200080B
:1001B000C7020008C7020008C7020008C7020008FB
:1001C000C7020008C7020008C7020008C7020008EB
:1001D000C7020008C7020008C7020008C7020008DB
:1001E000C7020008C7020008C7020008C7020008CB
:1001F000C7020008C7020008C7020008C7020008BB
:10020000C7020008C7020008C7020008C7020008AA
:10021000C7020008C7020008C7020008C70200089A
:10022000C7020008C7020008C7020008000000005B
:10023000C7020008C702000800000000C70200084B
:10024000C702000841080008C7020008C7020008EA
:10025000C7020008C7020008C7020008C70200085A
:10026000C7020008C7020008C7020008C70200084A
:10027000C7020008C7020008C7020008000000000B
:10028000C7020008C7020008C702000800000000FB
:1002900000000000C7020008DFF80CD000F000F9F1
:1002A00000480047DF560008803500200648804798
:1002B00006480047FEE7FEE7FEE7FEE7FEE7FEE74B
:1002C000FEE7FEE7FEE7FEE7C147000899020008E7
:1002D0009FED1A1AF5EE000A40EE010ABDEEE00AA3
:1002E000F5EEC00AF1EE10FA10EE100A38BF401E0B
:1002F00000EE100A9FED121A1249B8EEC00AF7EE8E
:10030000001A30EEC00A60EE010ABCEEE00A10EE00
:10031000100AC0F3080000EE100A01EB8000B8EEEE
:10032000400A90ED011A70EEC00A90ED000A71EEDD
:10033000E01A21EE800A00EE810A704783F9223E1E
:100340000000004414570008B5EEC00AF1EE10FAA0
:1003500007D2DFED1E0AB4EEE00AF1EE10FAA8BFF4
:100360007047DFED1B0AB5EEC00AF1EE10FA20EE81
:10037000200AFDEEC00A10EE900A38BF401E00EEC3
:10038000900A9FED141A1449F8EEE00AF7EE001AED
:1003900030EE600A60EE010ABCEEE00A10EE100AD0
:1003A000C0F3080000EE100A01EB8000B8EE400A2E
:1003B00090ED011A70EEC00A90ED000A71EEE01A9D
:1003C00021EE800A00EE810A70470000CD024CB495
:1003D00083F9223E00000044145700082DE9F05F25
:1003E0000546002092469B468846064681464024A4
:1003F0001BE0284641464746224600F041F8534656
:100400005A46C01A914110D311461846224600F0B0
:1004100028F82D1A67EB01084F46224601200021DB
:1004200000F01FF817EB00094E41201EA4F1010453
:10043000DFDC484631462A464346BDE8F09FD2B24B
:1004400001E000F8012B491EFBD270470022F6E7BD
:1004500010B513460A4604461946FFF7F0FF20463A
:1004600010BD202A04DB203A00FA02F10020704778
:100470009140C2F1200320FA03F3194390407047E2
:10048000202A04DB203A21FA02F00021704721FAE9
:1004900002F3D040C2F12002914008431946704750
:1004A000064C074D06E0E06840F0010394E80700C1
:1004B00098471034AC42F6D3FFF7F2FE185F0008FD
:1004C000385F000870B53A4905460068884202D096
:1004D000384A904202D1D1F8080302E03648D0F8F9
:1004E000080310F4403F11D003F06AFA044668682C
:1004F000B0F5803F06D0B0F5003F03D0B0F5403FE7
:1005000026D101E0000C17E0A40821E04FF4002000
:1005100002F0F8FB044668688103890B18D1811446
:100520000C2915D2DFE801F0140606060606060BB4
:100530000D0F1113800C4000B4FBF0F408E0240907
:1005400006E0640904E0A40902E0E40900E0240AEA
:1005500002F0F2F841F20301884208D817488442B9
:100560002868816813D821F48071816070BD1449B6
:100570006008884204D82868816821F44071F4E753
:100580001049884206D82868816821F4407141F4F6
:100590008071EAE70C4988422868816804D821F410
:1005A000407141F40071E0E741F44071DDE7000083
:1005B000002002400021024000600258002D31015D
:1005C000105E5F0020BCBE0040787D012DE9F04147
:1005D0000027044600680D4603F033FE06462068F7
:1005E00003F02BFE304359D020682D4EC16889019D
:1005F00005D5617D012902D1217D01290BD0022D74
:100600001DD0206803F01DFEB8B120688168C1F3D9
:10061000400169B111E02349012502E08F422ED249
:100620007F1C0268D2435206F8D440210160E8E7FB
:100630008168314041F010018160012D11D02068A6
:1006400003F0FBFD48B120688168C1F3400121B986
:100650008168314041F020018160022D08D0032DD6
:1006600004D0042502F06EF8064613E00C25F9E7E5
:100670000825F7E702F066F8801B05280AD9606DA7
:1006800040F010006065A06D40F00100A065012001
:10069000BDE8F081206880682842EBD10020F7E7B0
:1006A000C0FFFF7F00DC0C0010B5846B616D11F0A2
:1006B000500F06D0616DC90625D5204600F0D6FC46
:1006C00010BD606D40F40070606520680168090726
:1006D00007D503F0BAFD90B12068C068800403D547
:1006E0000DE0C06880070AD1606D20F480706065FD
:1006F000606DC00403D4606D40F001006065204669
:1007000000F0B2FC10BDE16CC96CBDE810400847B8
:1007100010B5806B416D41F040014165816D41F044
:100720000401816500F0A2FC10BD10B5806B00F0E3
:100730009CFC10BD70B50446006881688268C1F3F6
:10074000400112F0010F24D019BB816801F00D01A6
:10075000012910D18168104A1140891C81602168EB
:100760000320086001F0EEFF05460EE001F0EAFF0D
:10077000401B022809D9606D40F010006065A06D33
:1007800040F00100A065012070BD20688068C007AE
:10079000ECD1002070BD0000C0FFFF7F70B50446A3
:1007A0000068816811F0010F3DD181681F4A114234
:1007B0002AD18168D5432940491C816001F0C2FFDC
:1007C0001B4B064620681B49984201D0884201D144
:1007D000194A00E0194A9268884202F01F0201D1CA
:1007E000194600E00146814218D0BAB11BE0816889
:1007F00011F0010F03D181682940491C816001F08B
:10080000A1FF801B022809D9606D40F010006065CF
:10081000A06D40F00100A065012070BD2068016856
:10082000C943C907E3D1002070BD00003F0000802C
:1008300000200240002102400023024000630258D1
:10084000014800F0DBBF000078000020FEE7000058
:10085000294A016891423AD0274A1832914236D04B
:10086000254A3032914232D0234A483291422ED02A
:10087000214A603291422AD01F4A7832914226D0D2
:100880001D4A9032914222D01B4AA83291421ED07A
:100890001A4A91421BD0194A1832914217D0174A6E
:1008A0003032914213D0154A483291420FD0134A48
:1008B000603291420BD0114A7832914207D00F4AF0
:1008C0009032914203D00D4AA832914211D1CAB25E
:1008D0001823103AB2FBF3F26FF30901032A02F076
:1008E0000703074AD25CC26500D9091D8165084625
:1008F000704721F0FF01F9E71000024010040240A8
:10090000FC56000830B5224A012301689142CAB260
:100910001BD01F4C1434A14217D01D4C2834A142C7
:1009200013D01B4C3C34A1420FD0194C5034A1427F
:100930000BD0174C6434A14207D0154C7834A14237
:1009400003D0134C8C34A1420CD11421114C083A21
:10095000B2FBF1F10F4A803201F01F0504EB810177
:10096000AB4010E00C4D1824103A0D44B2FBF4F1EA
:10097000A82D00D80831094A01F01F0402EB8101BB
:10098000064AA3408032603080E80E0030BD00008F
:100990000854025800580258F0FBFDBF00080240FE
:1009A00010B50279531E072B2DD8174C0168A142B0
:1009B0001BD0154C1434A14217D0134C2834A1423B
:1009C00013D0114C3C34A1420FD00F4C5034A142F3
:1009D0000BD00D4C6434A14207D00B4C7834A142AB
:1009E00003D0094C8C34A14203D10849074C44314F
:1009F00002E00749064C443104EB8202C0E91B21A6
:100A000001219940416710BD08540258FC58025812
:100A1000FC08024010B583694FF0C074826A014639
:100A2000002053B1B3F5005F15D072B1012A0CD08C
:100A3000022A0AD0032A09D104E01AB1012A06D0F9
:100A4000022A03D1C96AC90100D5012010BDC96AB3
:100A5000A142FAD010BD002AF7D0012AF2D0022A12
:100A6000F3D0032AF3D010BD2DE9F04F804E804F14
:100A7000DFF8FC911836DFF8F8A148370468856D77
:100A80000AF1300ADFF8ECB14C45DFF8ECC1DFF8D1
:100A9000ECE16DD0B4426BD0544569D0BC4267D014
:100AA000DFF8D081A8F11808444561D05C455FD0DB
:100AB00064455DD074455BD0DFF8C481444557D0B0
:100AC000DFF8BC8108F11808444551D0DFF8B08147
:100AD00008F1300844454BD0DFF8A48108F14808FC
:100AE000444545D0DFF8988108F1600844453FD07F
:100AF000DFF88C8108F17808444539D0DFF880812F
:100B000008F19008444533D0DFF8748108F1A80853
:100B100044452DD0DFF86C81444529D0DFF864814D
:100B200008F11408444523D0DFF8588108F128085B
:100B300044451DD0DFF84C8108F13C08444517D0EE
:100B4000DFF8408108F15008444511D0DFF83481C6
:100B500008F1640844450BD0DFF8288108F17808D3
:100B6000444505D0DFF81C8108F18C08444509D1C3
:100B7000D0E91948C4F80480C46E1CB1D0E91C48FF
:100B8000C4F8048004684C452ED0B4422CD054459F
:100B90002AD0BC4228D0374E183EB44224D05C45FF
:100BA00022D0644520D074451ED0354EB4421BD0AF
:100BB000334E1836B44217D0314E3036B44213D0CB
:100BC0002F4E4836B4420FD02D4E6036B4420BD073
:100BD0002B4E7836B44207D0294E9036B44203D01B
:100BE000274EA836B44215D190F85C603F2406F039
:100BF0001F06B440AC600468256825F48025256094
:100C00002EE09A600068C160BDE8F08F99600068CE
:100C1000C260F9E71B4EB4421BD01A4E1436B442E0
:100C200017D0184E2836B44213D0164E3C36B44274
:100C30000FD0144E5036B4420BD0124E6436B4422C
:100C400007D0104E7836B44203D00E4E8C36B442E4
:100C5000DAD190F85C60012406F01F06B4406C60A5
:100C6000046863608368402B0368CFD1C9E7000044
:100C70001000024088000240A0000240B80002407C
:100C80001004024008540258704770472DE9F84F8D
:100C90004FF0000B0446E64E0D46CDF800B05F461F
:100CA00090F85000DFF88CA3012808D04FF001091C
:100CB00084F85090206803F0C4FA18B16BE1022068
:100CC000BDE8F88F21682868CA69030328D090FA24
:100CD000A0F0B0FA80F000BF00F01F0309FA03F0A3
:100CE0000243CA61D5E900124FF00C0C20681F23A3
:100CF000C1F384610CEA921C02F01F02604493402D
:100D00009140026B9A430A430263206803F099FA08
:100D10008046206803F091FA58EA000003D07FE093
:100D2000C0F38460D8E72068AA68296803F095FAC0
:100D3000C1490968B9EB117F06D121686869C968A2
:100D4000C1F38201490008E02068C168C906C16892
:100D50006869F5D501F0100149088840296904291E
:100D60002ED023682A6803EB810102F0F8420B6E53
:100D7000024303F0004010430866697E20682A6938
:100D8000012917D05FF0000100EB8200026E22F013
:100D900000420A430266297E20682A6901290CD094
:100DA0000021036902F01F02914023F4F0420A433C
:100DB000026135E04FF00041E6E74FF40061F0E7F3
:100DC00020682978026E02F0F842B2EB816F03D1FD
:100DD000016E21F00041016620682978426E02F020
:100DE000F842B2EB816F03D1416E21F000414166C0
:100DF00020682978826E02F0F842B2EB816F03D14D
:100E0000816E21F00041816620682978C26E02F06F
:100E1000F842B2EB816F03D1C16E21F00041C1668F
:100E20002068816811F0010F78D150F8C03F2A7B0B
:100E3000DFF808C2296802F018022CFA02FCC1F39C
:100E4000130823EA08030CEA010C43EA0C030360CD
:100E50007B48E968814277D1286801031BD090FA6A
:100E6000A0F1B1FA81F1491C01F01F0109294FEAF3
:100E7000003131D8002911D090FAA0F1B1FA81F1F6
:100E800001F1010101F01F0109FA01F209D100BFCE
:100E9000C0F3846109E0C0F38461E4E7C0F38461D6
:100EA000EEE790FAA0F1B1FA81F101F1010101F050
:100EB0001F0142EA816102D1C0F3846003E090FA2D
:100EC000A0F0B0FA80F000F1010000F01F0000EB8C
:100ED000400041EA005133E000290ED090FAA0F121
:100EE000B1FA81F101F1010101F01F0109FA01F2EA
:100EF00006D100BFC0F3846106E0C0F38461F1E76E
:100F000090FAA0F1B1FA81F101F1010101F01F01A4
:100F100042EA816103D1C0F3846004E040E090FACA
:100F2000A0F0B0FA80F0474A00F1010000F01F0085
:100F300000EB400002EB005041EA000141F000717B
:100F4000AA68206803F089F9D5F800C0BCF1000F49
:100F500026DA3D4B20683D49DFF8F490984201D0F5
:100F6000B04201D10A4600E04A469268984202F037
:100F7000E07201D0B04209D19D68D6F8088005F032
:100F8000010508F0010845EA080503E0DAF8085011
:100F900005F0010545B1606D012740F02000606556
:100FA000384684F850B08BE62A4DAC451BD115026B
:100FB00019D45045F4D1984202D0B04200D04946ED
:100FC0008B6842F4000023F0E07202438A602349F8
:100FD00021480968B1FBF0F0400000E0401E00909D
:100FE0000028FBD1DCE71E4DAC450CD1D5010AD45D
:100FF0005045D5D1984202D0B04200D049468B68C6
:1010000042F080700EE0174DAC45C9D15502C7D4EF
:101010005045C5D1984202D0B04200D049468B68B5
:1010200042F4800023F0E07202438A60B8E70000D7
:1010300000210240006002580010005CFFFF0F001A
:101040000000FF47000020FE002002400023024075
:1010500000630258000084CB400D03000C00002008
:10106000000052C70000B8CF7047704770470000BB
:10107000F8B54FF0000604003546009602D0606DCA
:1010800010B107E00120F8BD204600F003F9A66585
:1010900084F8506020688168C1F3407119B181689B
:1010A0006F4A1140816020688168C1F3007179B98D
:1010B00081686C4A114041F0805181606B496A48F7
:1010C0000968B1FBF0F000E0401E00900028FBD161
:1010D00020688168C1F3007141B9616D012541F05B
:1010E00010016165A16D41F00101A16503F0A9F84E
:1010F000616DC90600D420B1606D012540F010007B
:1011000093E0606D20F4807040F00200606520681C
:10111000816811F0010F1FD15549564B884201D00B
:10112000984207D18A689E6802F0010206F0010623
:10113000324303E0504A926802F0010262B98842E9
:1011400001D0984201D14D4800E04D488268616865
:1011500022F47C120A43826001F0EEFA41F20301AC
:10116000884202D9A06810280CD0617D227FA36834
:10117000206B490341EA024118430843217F0129BA
:101180000CD010E0607D227F216B400340EA0242D8
:1011900041F01000104340F00C00EFE7218C394A79
:1011A00002EB41410843616A29B1A26A01F47871F6
:1011B000014342EA01002268334BD16819400143E0
:1011C000D160206803F03DF80646206803F035F84A
:1011D00030431DD1216844F20303267DE26AC868CA
:1011E00042EA863298431043C86094F838000128D8
:1011F0001ED02068016921F0010101612068626B45
:10120000016921F07041114301612046FFF75AF94D
:10121000E068012820681CD0016B21F00F010163F8
:10122000606D20F0020040F0010060652846F8BDC6
:101230002068A38F154FD4E9101C154E07EB034708
:10124000A26C036941EA0C013A433340114319434C
:10125000D3E7A269016B521E21F00F011143DEE7B3
:10126000C0FFFF5FC0FFFF7F400D03000C000020A8
:10127000002002400021024000600258002302408A
:10128000006302580000FEFF03C0F0FF0100FFFFF3
:101290001EF800FCF8B51B490546006888422FD1AE
:1012A0001948016841F080710160016801F08071A6
:1012B0000091016841F004010160006800F0040041
:1012C00000904FF08060014602F0C6FE0F4C0020F7
:1012D0000F4911224FF480634FF4807C21609E00FF
:1012E000C4E9012004F10C02DF0082E8C910206289
:1012F000204600F0FBFD08B1FFF7C7FCEC64A563D6
:10130000F8BD000000600258E04402587800002058
:10131000085402582DE9F047384E044600689146BB
:10132000DFF8DC808A46B04201D0404501D1354922
:1013300000E03549896801F01F0502F082FF0028AE
:1013400059D194F85000012855D001204FF00007E2
:1013500084F8500025B1052D02D0092D00D003E0FE
:101360002046FFF71BFA18B184F85070BDE8F087EB
:10137000616D40F6016320689943404541F48071F6
:10138000616500D00646864200D01DB9606D20F42C
:1013900080106065606DC00404D5A06D20F006006B
:1013A000A06500E0A7651C20E16C184ACA63E26CE6
:1013B00017491164E26C1749D1642168086084F808
:1013C00050702068416841F0100141602068E16A76
:1013D000C26822F003020A43C26021684B46E06CF7
:1013E0005246403100F04AFF21680B4B8A681A4090
:1013F000121D8A60BAE70220B8E700000020024010
:10140000002102400023024000630258A9060008A0
:101410002B07000811070008C0FFFF7F70B50446C6
:1014200090F85000012809D0012084F850000321D1
:101430002046FFF7CBF8050002D027E0022070BD60
:101440002068C16821F00301C160E06C90F835109C
:10145000022907D100F020F8050003D0606D40F0AC
:10146000400060652068416821F01001416020461D
:1014700015B1FFF75FF909E0FFF75CF9050005D149
:10148000606D20F4885040F001006065002084F811
:101490005000284670BD00002DE9F84F044601F0C9
:1014A00051F9002C009008D094F83500022805D09E
:1014B00080216165002084F83400E3E0C84DC84E07
:1014C000C749183520683036DFF81883DFF81893DD
:1014D0008842DFF818A3DFF818B32ED0A8422CD02A
:1014E000B0422AD0404528D0484526D0504524D087
:1014F000584522D0BE4A183290421ED0BD4A904272
:101500001BD0BC4A1832904217D0BA4A30329042AF
:1015100013D0B84A483290420FD0B64A6032904257
:101520000BD0B44A7832904207D0B24A90329042FF
:1015300003D0B04AA832904209D1026822F01E02BC
:1015400002602068426922F08002426103E0026882
:1015500022F00E02026027688F4238464DD0A84222
:101560004BD0B04249D0404547D0484545D0504582
:1015700043D0584541D09E4A183290423DD09D4AB2
:1015800090423AD09B4A1832904236D0994A303233
:10159000904232D0974A483290422ED0954A6032DB
:1015A00090422AD0934A7832904226D0914A903283
:1015B000904222D08F4AA83290421ED08E4A90424A
:1015C0001BD08D4A1432904217D08B4A2832904259
:1015D00013D0894A3C3290420FD0874A5032904211
:1015E0000BD0854A6432904207D0834A78329042C9
:1015F00003D0814A8C32974204D1206E026822F4D3
:101600008072026076492068884228D0A84226D09D
:10161000B04224D0404522D0484520D050451ED06D
:1016200058451CD072491831884218D071498842F7
:1016300015D070491831884211D06E493031884236
:101640000DD06C494831884209D06A4960318842DE
:1016500005D068497831884201D0664990310168E7
:1016600021F00101016010E001F06CF80099401ACE
:1016700005280AD9202262650020032184F834005D
:1016800084F835100120BDE8F88F3868C007EBD129
:10169000534A0121206890422ED0A8422CD0B0425B
:1016A0002AD0404528D0484526D0504524D058451A
:1016B00022D04F4B183398421ED04E4B98421BD02D
:1016C0004C4B1833984217D04A4B3033984213D0C2
:1016D000484B483398420FD0464B603398420BD06A
:1016E000444B7833984207D0424B9033984203D012
:1016F000404BA833984208D194F85C703F23A06D0A
:1017000007F01F07BB40836007E094F85C30A06DD2
:1017100003F01F0301FA03F34360206890424DD0A9
:10172000A8424BD0B04249D0404547D0484545D06B
:10173000504543D0584541D02D4A183290423DD0B3
:101740002C4A90423AD02B4A1832904236D0294A3D
:101750003032904232D0274A483290422ED0254A29
:10176000603290422AD0234A7832904226D0214AD1
:101770009032904222D01F4AA83290421ED01E4A78
:1017800090421BD01C4A1432904217D01A4A283279
:10179000904213D0184A3C3290420FD0164A503231
:1017A00090420BD0144A6432904207D0124A7832E9
:1017B000904203D0104A8C3290420BD1D4E91902E6
:1017C0004260E06E30B1026822F480720260D4E9B7
:1017D0001C024260002084F8340084F8351052E77F
:1017E0001000024058000240700002408800024091
:1017F000A000024010040240085402582DE9FC5F8A
:101800000446FA4E0020DFF8E48300904FF41652AD
:10181000F74808F11808A56DDFF8D0A3DFF8CCB3BE
:1018200001680AF1300A20680BF1480BB1FBF2F1B4
:10183000B04201912F68D5F800C0DFF8B89336D0D8
:101840004146884233D0504531D058452FD0E749E2
:10185000603188422BD0E5497831884227D0E3496E
:101860009031884223D0E149A83188421FD04845B1
:101870001DD0E0491831884219D0DE493031884204
:1018800015D0DC4A4832904211D0DA4960318842A2
:101890000DD0DFF860E30EF1780E704507D0D54B20
:1018A0009033984203D0D349A83188427ED194F82E
:1018B0005C20082102F01F0201FA02F23A424BD0EA
:1018C000B04233D0404531D050452FD058452DD06F
:1018D000C64A6032904229D0C44A7832904225D01C
:1018E000C24A9032904221D0C04AA83290421DD0C4
:1018F00048451BD0BF4A1832904217D0BD4A3032FB
:10190000904213D0BB4A483290420FD0B94A60325D
:1019100090420BD0B74A7832904207D0B54A903205
:10192000904203D0B34AA832904203D1026802F039
:10193000040202E0026802F008026AB1026822F0C2
:101940000402026094F85C0000F01F008140A9606E
:10195000606D40F00100606594F85C00012100F0CA
:101960001F008140394241D02068B04235D0404507
:1019700033D0504531D058452FD09C4A60329042E8
:101980002BD09A4A7832904227D0984A903290428F
:1019900023D0964AA83290421FD048451DD0954A80
:1019A0001832904219D0934A303200E0B2E19042AE
:1019B00013D0904A483290420FD08E4A6032904203
:1019C0000BD08C4A7832904207D08A4A90329042AB
:1019D00003D0884AA83290427ED1406910F0800F2F
:1019E00004D0A960606D40F00200606594F85C006E
:1019F000042100F01F00814039423FD02068B042EE
:101A000033D0404531D050452FD058452DD0774A5E
:101A10006032904229D0754A7832904225D0734A7C
:101A20009032904221D0714AA83290421DD0484550
:101A30001BD0704A1832904217D06E4A3032904212
:101A400013D06C4A483290420FD06A4A60329042BA
:101A50000BD0684A7832904207D0664A9032904262
:101A600003D0644AA83290424FD1006810F0020FB0
:101A700004D0A960606D40F00400606594F85C00DB
:101A8000102100F01F008140394259D02068B04237
:101A900035D0404533D0504531D058452FD0534AEA
:101AA000603290422BD0514A7832904227D04F4A30
:101AB0009032904223D04D4AA83290421FD04845E0
:101AC0001DD04C4A1832904219D04A4A30329042C6
:101AD00015D0484A483200E015E090420FD0454A00
:101AE000603290420BD0434A7832904207D0414A4C
:101AF0009032904203D03F4AA832904207D100680A
:101B000000F0080006E0006870E70068B6E70068CB
:101B100000F00400A0B1A96020680168490304D561
:101B20000068000308D5A16C07E00168C90503D46B
:101B3000016821F008010160216C09B12046884745
:101B400094F85C00202100F01F008140394278D0D9
:101B50002068B04233D0404531D050452FD0584551
:101B60002DD0224A6032904229D0204A78329042C9
:101B700025D01E4A9032904221D01C4AA832904271
:101B80001DD048451BD01B4A1832904217D0194A25
:101B90003032904213D0174A483290420FD0154A43
:101BA000603290420BD0134A7832904207D0114AEB
:101BB0009032904203D00F4AA832904203D100687D
:101BC00000F0100002E0006800F00200A0B3A9607D
:101BD00094F835000428206801680DD049037DD5AC
:101BE0000068000329D4616C28E000001000024066
:101BF0000C0000201004024021F016010160206852
:101C0000416921F080014161206C08B9A06C20B1CC
:101C10002068016821F00801016094F85C303F21E0
:101C2000002203F01F0301209940A96084F83420AA
:101C300084F83500216D66E003E0E16B09B12046D0
:101C40008847606D00287DD0606DC0075AD020683D
:101C5000042184F83510B0422BD0404529D050459E
:101C600027D0584525D09E49884222D09C4918311A
:101C700088421ED09A49303188421AD0984948315A
:101C8000884216D0484514D09649884211D09549CB
:101C9000183188420DD093493031884209D091499A
:101CA0004831884205D08F496031884201D08D4942
:101CB0007831016821F00101016020680099019AE2
:101CC000491C0091914202D80168C907F6D1002150
:101CD00084F834100068C00711D000E001E0032050
:101CE0000EE00168C905A8D403680022012123F091
:101CF0001003036084F8342084F835109DE7012038
:101D000084F83500E16C00291CD002B02046BDE803
:101D1000F05F0847744988421DD0734914318842E6
:101D200019D071492831884215D06F493C31884219
:101D300011D06D49503188420DD06B4964318842D1
:101D400009D000E086E068497831884203D06649CE
:101D50008C3188427ED194F85C800427016808F0B9
:101D60001F0807FA08F717EA0C0F009746D04F072D
:101D700044D500980F04686003D5C8033CD4A16C17
:101D8000C1E7880638D42068B0422DD0544948397C
:101D9000884229D0504527D0584525D050498842FF
:101DA00022D04F49183188421ED04D4930318842E7
:101DB0001AD04B494831884216D0484514D0494979
:101DC000884211D04749183188420DD090420BD03B
:101DD00044494831884207D0704505D0984203D025
:101DE00040499031884203D1016821F0080102E0A6
:101DF000016821F004010160216C84E7022707FAE1
:101E000008F717EA0C0F00974ED08F074CD50098B3
:101E10000F04686003D5C80344D4616C73E7880677
:101E200040D42068B0422FD02D49483988422BD069
:101E3000504529D0584527D02949884224D02849DF
:101E40001831884220D02649303188421CD024499C
:101E5000483100E041E0884216D0484514D021497D
:101E6000884211D01F49183188420DD090420BD0C2
:101E70001C494831884207D0704505D0984203D0AC
:101E800018499031884203D1016821F0140102E021
:101E9000016821F00A010160002184F8341001205A
:101EA00084F83500E16B2EE7082202FA08F212EA04
:101EB0000C0F12D0090710D5016821F00E01016046
:101EC00094F85C100120002201F01F0100FA01F1DA
:101ED0006960606584F8342012E7BDE8FC9F00006B
:101EE0007000024028040240085402582DE9F05FB7
:101EF000044600F027FC002C07467DD0D74E022177
:101F000020684FF00308DFF858934FF00005DFF822
:101F100054A3B042DFF850B334D0D04A18329042C4
:101F200030D048452ED050452CD058452AD0CE4AE6
:101F30001832904226D0CC4A3032904222D0CA4A3F
:101F4000483290421ED0C94A90421BD0C74A18322C
:101F5000904217D0C54A3032904213D0C34A48321B
:101F600090420FD0C14A603290420BD0BF4A7832C3
:101F7000904207D0BD4A9032904203D0BB4AA8326B
:101F800090427CD184F8345084F83510B0422ED081
:101F9000B249183188422AD0484528D0504526D029
:101FA000584524D0B0491831884220D0AE4930314C
:101FB00088421CD0AC494831884218D0AB4988428D
:101FC00015D0AA491831884211D0A8493031884229
:101FD0000DD0A6494831884209D0A44960318842D1
:101FE00005D0A2497831884201D0A04990310168DA
:101FF00021F0010101600BE010E100BF00F0A2FB45
:10200000C01B052804D92021616584F8358005E1CD
:1020100020680068C007F1D104F108002168D4E904
:10202000053C8E4685C809681043D4E907281F433C
:10203000636A38438E4F40EA0C001043394040EA4F
:102040000800042B40EA010003D1D4E90B1211432C
:102050000843CEF800002068676A4069042F20F02A
:10206000070047EA00070BD1D4E90A01074339B159
:102070002046FEF7CFFC18B140200121CBE00CE058
:10208000206847612046FEF7E3FB94F85C203F217F
:1020900002F01F029140816054E0764A90421BD0CA
:1020A000744B1433984217D0724B2833984213D094
:1020B000704B3C3398420FD06E4B503398420BD04C
:1020C0006C4B6433984207D06A4B7833984203D004
:1020D000684B8C3398427DD1674B84F8345084F838
:1020E00035100168A26801EA030E402A73D0802AE5
:1020F00072D00022D4E90378D4E9053142EAD7024C
:1021000042EAD8085B4AD4E9077C48EAD30848EA9F
:10211000D10141EAD701524241EA1C11142341EA9C
:102120000E01016020681044B0FBF3F08000E06510
:102130002046FEF78DFB94F85C20012102F01F027F
:10214000914041602068B04257D0444918318842DC
:1021500053D0484551D050454FD058454DD04249B5
:102160001831884249D040493031884245D03E49F3
:102170004831884241D03D4988423ED03B491831E0
:1021800088423AD039493031884236D037494831CF
:10219000884232D03549603188422ED03349783177
:1021A00088422AD031499031884226D02F49A8311F
:1021B000884222D02F4988421FD02E4914318842AC
:1021C0001BD02C492831884217D02A493C318842FB
:1021D00013D002E01DE017E018E026495031884294
:1021E0000BD024496431884207D022497831884293
:1021F00003D020498C3188422AD12046FEF782FB49
:10220000A06880280DD00DE0102273E74FF48042C3
:1022100070E740204146606584F835100120BDE834
:10222000F09F6560216E20790860D4E91901416052
:102230006068401E072808D82046FEF7B1FBE06E14
:102240000560D4E91C01416002E0E5662567656729
:102250000120656584F835000020E0E710000240A9
:10226000400002405800024070000240100402404A
:102270003F8010FE085402580F00FEFF2DE9F84F72
:1022800004008C464FF00000009013D094F8340006
:10229000012811D094F835500120002184F8340031
:1022A000012D0BD084F83410C202009062650098B2
:1022B000BDE8F88F0120FBE70220F9E78C4D0226EC
:1022C000206884F83560A8428A4D61658A4E8B4F3C
:1022D000DFF82C82DFF82C92DFF82CA2DFF82CB28A
:1022E00026D0A84224D0B04222D0B84220D04045C7
:1022F0001ED048451CD050451AD0584518D08449A6
:10230000884215D082491831884211D08049303135
:1023100088420DD07E494831884209D07C496031DD
:10232000884205D07A497831884201D07849903185
:10233000016821F00101016061462046FEF794FB2F
:102340006B49206888422CD0A8422AD0B04228D0BD
:10235000B84226D0404524D0484522D0504520D010
:1023600058451ED06A4A90421BD0694A18329042A2
:1023700017D0674A3032904213D0654A48329042B3
:102380000FD0634A603290420BD0614A783290425B
:1023900007D05F4A9032904203D05D4AA832904203
:1023A0000CD1026822F01E0242F016020260206C7C
:1023B00088B12068026842F008020BE0026822F04F
:1023C0000E0242F00A020260206C20B1206802680E
:1023D00042F004020260206888424BD0A84249D0F3
:1023E000B04247D0B84245D0404543D0484541D09F
:1023F00050453FD058453DD0454A90423AD0444A96
:102400001832904236D0424A3032904232D0404A5E
:10241000483290422ED03E4A603290422AD03C4A06
:102420007832904226D03A4A9032904222D0384AAE
:10243000A83290421ED0374A90421BD0354A1432FF
:10244000904217D0334A2832904213D0314A3C325E
:1024500090420FD02F4A503290420BD02D4A643216
:10246000904207D02B4A7832904203D0294A8C32CE
:1024700090420DD1206E0268D20303D5026842F467
:1024800080720260E06E18B1026842F480720260ED
:102490002068884226D0A84224D0B04222D0B84238
:1024A00020D040451ED048451CD050451AD0584534
:1024B00018D01749884215D015491831884211D0D3
:1024C0001349303188420DD011494831884209D032
:1024D0000F496031884205D00D497831884201D0DA
:1024E0000B499031016841F001010160DFE6000015
:1024F0001000024028000240400002405800024004
:102500007000024088000240A0000240B800024073
:10251000100402400854025870B5044600F012F945
:102520000546601C02D004480078044400F00AF913
:10253000401BA042FAD370BD000000202DE9F84FE7
:10254000714C00234FF0B04E4FF001094FF0030BD8
:102550004FF00F0AD0E000BF09FA03F812EA0802B0
:1025600074D04D68022D01D0122D0FD1DD085F0708
:1025700000EB850500950E692D6AFF0E0AFA07FC2F
:10258000BE4025EA0C052E43009D2E625D000F79AA
:1025900006680BFA05FC07F0030726EA0C06AF40B5
:1025A000374307604E68012E05D0022E03D0112E4E
:1025B00001D0122E0FD18668CF6826EA0C06AF40F4
:1025C0003743876046680F7926EA0806C7F3001785
:1025D0009F4037434760C6688F6826EA0C06AF40C5
:1025E0003743C7604D68ED0030D5484D2E6846F042
:1025F00002062E602D6823F0030606F1B04605F0B2
:10260000020500959D072F0FD6F80854DFF80081CA
:102610000AFA07FC404525EA0C0502D14FF0000CF0
:1026200041E0DFF8F0C0604502D14FF0010C3AE024
:10263000DFF8E4C0604502D14FF0020C33E0DFF870
:10264000DCC0604503D14FF0030C2CE053E0DFF811
:10265000D0C0604502D14FF0040C24E0DFF8C4C0C4
:10266000604502D14FF0050C1DE0DFF8BCC06045AD
:1026700002D14FF0060C16E0DFF8B0C0604502D181
:102680004FF0070C0FE0DFF8A8C0604502D14FF013
:10269000080C08E0DFF89CC0604502D14FF0090C3F
:1026A00001E04FF00A0C0CFA07FC4CEA050CC6F8E6
:1026B00008C425684E6825EA0205F60300D51543CF
:1026C000256065684E6825EA0205B60300D5154306
:1026D00065604F687546DEF80060FF0226EA020674
:1026E00000D516432E604F686E68BF0226EA0206C8
:1026F00000D516436E605B1C0A6832FA03F57FF45E
:102700002BAFBDE8F88F000080000058F444025859
:10271000000002580004025800080258000C025839
:10272000001002580014025800180258001C0258E9
:10273000002002580024025801480068000C70472D
:102740000010005C01488068704700000000002015
:1027500002488168027811448160704700000020BF
:10276000032010B500F084F801F064F90E490F4A17
:102770000F4B0C68C4F30324145D04F01F04E04005
:102780001860096801F00F01515C01F01F01C84099
:1027900008490860002000F00FF808B1012010BDC2
:1027A00000F02AF8002010BD184402580457000811
:1027B0000C0000201000002070B50D4D0446287854
:1027C000A0B14FF47A71B1FBF0F00A490968B1FB8E
:1027D000F0F001F049FC48B9102C07D20022214644
:1027E000501E00F025F800206C6070BD012070BD07
:1027F000000000200C000020054808B5016841F0E9
:1028000002010160006800F00200009008BD0000B5
:10281000F4440258002809DB410900F01F02890036
:10282000012001F1E0219040C1F800017047000053
:102830000E4BF0B41B680D46C3F30223C3F1070629
:10284000042E00D90426191D072901D2002300E017
:10285000DB1E012404FA06F19C40491E2940641E37
:10286000994014402143F0BC02F019BF0CED00E088
:10287000064900F0070210B54FF6FF040868044B44
:10288000204040EA02201843086010BD0CED00E033
:102890000000FA05134970B50A68D243520705D5FE
:1028A000096801F00701814213D118E00A6822F09B
:1028B000070202430A60FFF745FF0A4D4FF47A769C
:1028C0000446083D07E000BFFFF73CFF001BB04295
:1028D00001D9012070BD2868C0438004F4D40020D1
:1028E00070BD00000C48025810B501F0A3F8064A6C
:1028F00006491268064BC2F303229A5C02F01F02DB
:10290000D040086010BD0000184402580C000020A0
:102910000457000810B501F053F805490968054A45
:10292000C1F30211515C01F01F01C84010BD00004D
:102930002044025804570008494930B5484C0B1D43
:102940000A680C3409681D68246802F0030305F066
:102950000102C1F30511C4F3CC04002914FB02F2F7
:1029600000EE102AF8EE400A75D03F4A9FED3D1A5E
:10297000B7EE000A6BB1DFED3D1A012B01D0022B3F
:1029800064D002EE101A1168F8EE422A81EEA22AF3
:1029900021E0334C283C23689B0612D5344B246835
:1029A00001EE901A1168C4F3C104F8EE612AE34005
:1029B00001EE903AC1F30801F8EE611A81EEA22A05
:1029C0000BE001EE901ADFED2B2A00BFF8EE611A42
:1029D000116882EEA12AC1F3080101EE901A116874
:1029E000F8EE611A40EE811A71EE800A62EE200A5A
:1029F000C1F3462101EE101AB8EE411A31EE001A69
:102A0000C0EE811ABCEEE11A80ED001A1168C1F324
:102A1000064101EE101AB8EE411A31EE001AC0EE6E
:102A2000811ABCEEE11A80ED011A1168C1F306614A
:102A300001EE101AB8EE411A31EE000A80EE801A4B
:102A4000BCEEC10A80ED020A30BD04E001EE901A2E
:102A5000DFED092ABAE70021016041608160F3E7F8
:102A60002844025800000039304402580024744AB7
:102A70000090D0030024744C20BCBE4B494930B5B3
:102A8000484C0B1D0A68143409681D68246802F05C
:102A90000303C5F30012C1F30531C4F3CC040029CC
:102AA00014FB02F200EE102AF8EE400A75D03F4AFD
:102AB0009FED3D1AB7EE000A6BB1DFED3D1A012B19
:102AC00001D0022B64D002EE101A1168F8EE422AEF
:102AD00081EEA22A21E0334C283C23689B0612D5C4
:102AE000344B246801EE901A1168C4F3C104F8EE67
:102AF000612AE34001EE903AC1F30801F8EE611A51
:102B000081EEA22A0BE001EE901ADFED2B2A00BF26
:102B1000F8EE611A116882EEA12AC1F3080101EEF4
:102B2000901A1168F8EE611A40EE811A71EE800A6F
:102B300062EE200AC1F3462101EE101AB8EE411AE6
:102B400031EE001AC0EE811ABCEEE11A80ED001AD7
:102B50001168C1F3064101EE101AB8EE411A31EEC8
:102B6000001AC0EE811ABCEEE11A80ED011A11685C
:102B7000C1F3066101EE101AB8EE411A31EE000AF7
:102B800080EE801ABCEEC10A80ED020A30BD04E07E
:102B900001EE901ADFED092ABAE7002101604160D9
:102BA0008160F3E728440258000000393844025895
:102BB0000024744A0090D0030024744C20BCBE4B07
:102BC000494930B5484C0B1D0A681C3409681D681A
:102BD000246802F00303C5F30022C1F30551C4F3D6
:102BE000CC04002914FB02F200EE102AF8EE400A91
:102BF00075D03F4A9FED3D1AB7EE000A6BB1DFED8D
:102C00003D1A012B01D0022B64D002EE101A11687C
:102C1000F8EE422A81EEA22A21E0334C283C2368B8
:102C20009B0612D5344B246801EE901A1168C4F348
:102C3000C104F8EE612AE34001EE903AC1F30801C5
:102C4000F8EE611A81EEA22A0BE001EE901ADFED98
:102C50002B2A00BFF8EE611A116882EEA12AC1F397
:102C6000080101EE901A1168F8EE611A40EE811A1F
:102C700071EE800A62EE200AC1F3462101EE101ABD
:102C8000B8EE411A31EE001AC0EE811ABCEEE11A1C
:102C900080ED001A1168C1F3064101EE101AB8EE7A
:102CA000411A31EE001AC0EE811ABCEEE11A80ED35
:102CB000011A1168C1F3066101EE101AB8EE411A4B
:102CC00031EE000A80EE801ABCEEC10A80ED020AE5
:102CD00030BD04E001EE901ADFED092ABAE70021C9
:102CE000016041608160F3E7284402580000003928
:102CF000404402580024744A0090D0030024744CCD
:102D000020BCBE4B2DE9F0474FF480760146B0421F
:102D10006F48DFF8B8818AB06E4B4FF080576E4D28
:102D2000A8F104044FEA20124FF0005C29D1D8F832
:102D3000001001F0070105291FD2DFE801F0030AA6
:102D40000F20140006A8FFF7F7FD07980AB0BDE8AA
:102D5000F0876846FFF792FE0098F7E703A8FFF7B1
:102D60002FFF0398F2E7216811F04051EED0B942ED
:102D700075D11046EAE71846E8E70020E6E728465E
:102D8000E4E7B1F5007F19D0544EB1F5806F26D03D
:102D9000B1F5006F37D04FF4805949454FF4804A60
:102DA0004BD1D8F8001001F4E041B1F5005FD5D067
:102DB0003DDC0029C6D04945DFD1CAE7D8F800106C
:102DC00001F4E0718029C9D004DC0029BAD040297F
:102DD000D3D1BEE7C029D2D0B142CED1C3E731684A
:102DE00001F46001B1F5800FB8D005DC0029A9D04D
:102DF000B1F5001FC1D1ACE7B1F5C00FBFD0B1F53F
:102E0000000FBAD1AFE7316801F0E061B1F1007FA6
:102E1000A4D005DC002995D0B1F1807FADD198E731
:102E2000B1F1407FABD0B1F1806FA6D19BE7B1F596
:102E3000405FA4D05145A0D195E7B1F5002F4FF4E4
:102E400080350DD0A9421DD1206810F48030B1D05A
:102E5000A84292D16846FFF711FE029876E70EE08D
:102E6000316811F44031A8D0A94203D0B1F5003F38
:102E700083D178E703A8FFF7A3FE059866E76145CD
:102E80009AD178E7514597D1316801F0E041B1F12D
:102E9000405FE3D009DC81B1B94211D061458BD1EB
:102EA00003A8FFF78DFE049850E7B1F1804F3FF47F
:102EB00060AFB1F1A04F8BD15DE7FFF72BFD45E788
:102EC0006846FFF7DBFD019840E7000050440258D8
:102ED0000090D00340787D010080BB005844025828
:102EE0002DE9FC5F044650F8241B002500902E4677
:102EF0000801FE4FDFF8F8831DD5606E50B1B0F5C4
:102F0000801F0CD0B0F5001F0ED0B0F5401F1DD0B3
:102F100001250FE0386840F40030386016E00221E7
:102F2000201D01F0C7FA03E00098022101F052FBD6
:102F300005000BD02E462088C00523D5606D0528DE
:102F40001ED2DFE800F00C11161B1B00626ED8F8D1
:102F5000001021F440111143C8F80010EBE7386865
:102F600040F40030386009E00021201D01F0A2FA91
:102F700003E00098002101F02DFB05466DB100E053
:102F800001252E462088800528D5A06D80281ED0DA
:102F90000CDC90B140280ED114E0626DD8F800101E
:102FA00021F007011143C8F80010EBE7C02813D047
:102FB000B0F5807F10D001250FE0386840F4003074
:102FC000386009E00021201D01F074FA03E0009848
:102FD000002101F0FFFA054695B12E462088DFF862
:102FE0001093400509F108092CD5D4F8A400B0F5D8
:102FF000800F20D00DDCA0B1B0F5001F0FD115E07F
:10300000A26DD8F8001021F4E0711143C8F8001047
:10301000E4E7B0F5C00F13D0B0F5000F10D00125D4
:103020000FE0386840F40030386009E00021201DCE
:1030300001F040FA03E00098002101F0CBFA0546C8
:1030400075B12E46208800052DD5D4F8A800B0F122
:10305000007F21D00EDCA8B1B0F1807F10D116E046
:10306000D4F8A420D9F8001021F460011143C9F864
:103070000010E7E7B0F1407F13D0B0F1806F10D0BF
:1030800001250FE0386840F40030386009E0002185
:10309000201D01F00FFA03E00098002101F09AFAD8
:1030A00005468DB12E462068DFF844B28001ABF1B1
:1030B000040B1FD5A06CD8B110280FD0202812D037
:1030C000302815D0012514E0D4F8A820D9F8001034
:1030D00021F0E0611143C9F80010E4E7386840F4DA
:1030E0000030386004E00221201D01F0E3F90546BC
:1030F0006DB12E462088C0042BD5E06DB0F5005F81
:1031000020D00DDCA0B1B0F5805F0FD115E0A26C2E
:10311000DBF8001021F030011143CBF80010E9E793
:10312000B0F5405F13D0B0F5804F10D001250FE00F
:10313000386840F40030386009E00021201D01F0BB
:10314000B9F903E00098002101F044FA054685B181
:103150002E462088800429D5206EB0F5403F23D02C
:1031600010DC08B3B0F5803F14D0B0F5003F0FD1AC
:1031700015E0E26DD8F8001021F4E0411143C8F8E1
:103180000010E6E7B0F5802F0ED0B0F5A02F0BD0E1
:1031900001250AE00121201D01F08CF903E00098CF
:1031A000012101F017FA05468DB12E462088400412
:1031B0002AD5D4F8AC00B0F1405F23D010DC08B3BE
:1031C000B0F1805F14D0B0F1005F0FD115E0226E36
:1031D000D8F8001021F4E0211143C8F80010E5E709
:1031E000B0F1804F0ED0B0F1A04F0BD001250AE016
:1031F0000121201D01F05EF903E00098012101F09A
:10320000E9F905466DB12E46208800041FD5E06E11
:10321000D8B1B0F1805F0ED0B0F1005F10D00125C1
:1032200014E0D4F8AC20D9F8001021F0E0411143AB
:10323000C9F80010E8E7386840F40030386004E06E
:103240000121201D01F036F905466DB12E4620689A
:10325000C0011ED5606CD0B101280ED0022811D05B
:10326000032814D0012513E0E26ED8F8001021F0F5
:1032700040511143C8F80010E9E7386840F40030C5
:10328000386004E00221201D01F014F9054665B103
:103290002E462068400257D51648016841F48071D7
:1032A0000160FFF74FFA82460EE0626CDBF8001017
:1032B00021F003011143CBF80010EAE7FFF742FACF
:1032C000A0EB0A0064283DD80A480068C005F5D57F
:1032D0007DBBDFF81CA0B4F8B0100AF1200ADAF8C0
:1032E000000001F4407100F4407005E02C440258E5
:1032F0005044025800480258884211D0DAF80010B1
:10330000DAF8002021F4407142F48032CAF800203B
:10331000DAF8002022F48032CAF80020CAF800103F
:10332000D4F8B000B0F5807F21D1FFF70BFA0190FF
:1033300019E008E0FFF706FA0199411A41F28830D6
:10334000814210D903252E462078DFF80CA4C0074F
:103350003DD0A06F182838D026DC80B3082829D0AB
:10336000102825D12CE0DAF800008007E2D5D4F847
:10337000B010C1F301200328F8480DD0016821F4F2
:103380007C510160B4F8B020DAF80010C2F30B02EF
:103390001143CAF80010D7E7F14A036802EA111294
:1033A00023F47C511143ECE720280ED028280CD0C0
:1033B00001250BE00121201D01F07CF804E004E070
:1033C0000098012101F006F905465DB12E462078EE
:1033D00080071ED5606F062819D2DFE800F0160CB2
:1033E00011161616A26FDAF8001021F038011143F9
:1033F000CAF80010EBE70121201D01F05BF803E0A3
:103400000098012101F0E6F8054675B100E00125BC
:103410002E46207840071FD5D4F89000062819D2F0
:10342000DFE800F0160C11161616626FDAF80010BD
:1034300021F007011143CAF80010EAE70121201D1D
:1034400001F038F803E00098012101F0C3F80546C7
:103450009DB100E001252E46207880062BD5D4F8BA
:103460008C00B0F1405F24D011DC10B3B0F1805F6C
:1034700015D0B0F1005F10D116E0D4F89020D9F843
:10348000001021F007011143C9F80010E4E7B0F182
:10349000804F0ED0B0F1A04F0BD001250AE00021E3
:1034A000201D01F007F803E00098022101F092F8D6
:1034B00005468DB12E46207840062BD5D4F89800CD
:1034C000B0F5406F24D011DC10B3B0F5806F15D08B
:1034D000B0F5006F10D116E0D4F88C20DAF80010A7
:1034E00021F0E0411143CAF80010E4E7B0F5805F35
:1034F0000ED0B0F5A05F0BD001250AE00021201D01
:1035000000F0D8FF03E00098022101F063F80546BF
:103510008DB12E46207800062BD5D4F89C00B0F54E
:10352000C04F24D011DC10B3B0F5005F15D0B0F55A
:10353000804F10D116E0D4F89820D9F8001021F46B
:10354000E0511143C9F80010E4E7B0F5004F0ED088
:10355000B0F5204F0BD001250AE00021201D00F01E
:10356000A9FF03E00098022101F034F805464DB1AF
:103570002E46207800071ED5D4F88000B0F5805F75
:103580000AD00FE0D4F89C20D9F8001021F4604153
:103590001143C9F80010ECE70098022101F01AF875
:1035A00000B10126D4F88020DAF8001021F440514F
:1035B0001143CAF800102078C00613D5D4F894003F
:1035C000B0F5807F05D10098022101F003F800B129
:1035D0000126D4F89420D9F8001021F44071114349
:1035E000C9F800102068000316D5D4F8A00038B13F
:1035F000B0F5803F09D0B0F5003F0BD001250AE0BF
:103600000021201D00F056FF03E00098022100F089
:10361000E1FF054685B12E462068400322D5D4F847
:103620008400B0F5801F11D0B0F5001F13D0B0F5A5
:10363000401F15D0012514E0D4F8A020D9F80010BF
:1036400021F440311143C9F80010E5E7386840F42F
:103650000030386004E00098012100F0BBFF05460F
:1036600055B12E462068C0031CD5E06C70B1B0F592
:10367000803F10D0012514E0D4F88420DAF800103F
:1036800021F440111143CAF80010EBE7386840F408
:103690000030386004E00221201D00F00BFF0546D9
:1036A000CDB12E462068800005D50098022100F09B
:1036B00091FF00B10126206880031BD5E06FB8B1EF
:1036C000B0F5807F10D0B0F5007F11D0B0F5407F0D
:1036D0000ED001250DE0E26CDBF8001021F4803102
:1036E0001143CBF80010DDE7386840F40030386053
:1036F000C5B32E462068C00207D5226FD8F8001047
:1037000021F000411143C8F800102068800207D55D
:10371000A26ED8F8001021F080711143C8F8001093
:103720002068400009D50D48016821F4004101607E
:103730000168D4F8B820114301602068002807DA36
:10374000226DDBF8001021F040511143CBF800103E
:1037500096B10120BDE8FC9F544402581044025821
:10376000CFFFFF00FFE7E26FDAF8001021F44071AD
:103770001143CAF80010BDE70020EBE72DE9F05F28
:1037800004000F467ED0DFF82482D8F8000000F055
:103790000F00B8420CD2D8F8001021F00F013943C5
:1037A000C8F80010D8F8000000F00F00B84269D146
:1037B00020787F4D40070AD52069296801F0700103
:1037C000884204D9296821F07001014329602078DA
:1037D000774E361D00070AD56069316801F0700127
:1037E000884204D9316821F07001014331602078AA
:1037F000C0060AD5A069316801F4E061884204D9A5
:10380000316821F4E061014331602078DFF8A0B134
:1038100080060BF1080B0CD5E1695846DBF8002057
:1038200002F07002914204D9026822F070020A4349
:103830000260207880070AD5E068296801F00F014E
:10384000884204D9296821F00F01014329602078BA
:10385000C0073ED05649A2682868183920F4706025
:10386000104328606068022818D0032819D009681E
:10387000012819D0490700294ADADFF834A1AAF152
:10388000080A00E044E0DAF8002022F007020243D0
:10389000CAF80020FEF756FF814612E00968890346
:1038A000E9E709688901E6E7C905E4E7FEF74AFFA9
:1038B000A0EB090141F28830814202D90320BDE822
:1038C000F09F6168DAF8000000F03800B0EBC10F3B
:1038D000ECD1207880070AD5E068296801F00F0153
:1038E000884204D2296821F00F0101432960D8F8E9
:1038F0000010404601F00F01B9420BD9016821F0D8
:103900000F0139430160006800F00F00B84201D098
:103910000120D4E7207840070AD52069296801F002
:103920007001884204D2296821F0700101432960A6
:10393000207800070AD56069316801F0700188427B
:1039400004D2316821F07001014331602078C00653
:103950000AD5A069316801F4E061884204D2316877
:1039600021F4E06101433160207880060CD5E169E3
:103970005846DBF8002002F07002914204D202683F
:1039800022F070020A43026000F054F82968094AE4
:10399000C1F30321515C01F01F01C84006490860D2
:1039A00006480068BDE8F05FFEF706BF0020005241
:1039B00018440258045700080C000020040000209E
:1039C00010B5FEF791FF064A06491268064B02F051
:1039D0000F029A5C02F01F02D040086010BD000088
:1039E00018440258100000200457000810B5FFF7D3
:1039F000E7FF05490968054AC1F30211515C01F06E
:103A00001F01C84010BD00001C44025804570008A4
:103A100010B5FFF7D5FF05490968054AC1F3022132
:103A2000515C01F01F01C84010BD00001C44025849
:103A300004570008454970B545480968434B103B99
:103A400011F0380208D00111082A03D0102A0BD037
:103A5000182A0BD0084670BD19688906FBD519686D
:103A6000C1F3C101C84070BD3A4870BD3749374DF8
:103A700018310C1D24350A68096826682D6802F083
:103A8000030406F00102C1F30511C5F3CC0515FBD3
:103A900002F200EE102AB8EE400AE9B32F4ADFED39
:103AA0002E0AB7EE001A6CB1DFED2D1A012C01D0F1
:103AB000022C43D002EE101A1068F8EE422A81EE72
:103AC000A22A1EE01C68A40611D51B6801EE901AFC
:103AD0001168C3F3C103F8EE612AD84001EE900AE1
:103AE000C1F30800F8EE611A81EEA22A0BE001EEA4
:103AF000901ADFED1C2A00BFF8EE611A106882EE02
:103B0000A12AC0F3080001EE900AF8EE611A40EE17
:103B1000201A31EE810A00E015E022EE000A10685A
:103B2000C0F34620401C00EE900AF8EE600A80EEDA
:103B3000201ABCEEC10A10EE100A70BD01EE901AF8
:103B4000DFED092AD8E7002070BD000010440258BC
:103B50000090D00340787D010000003930440258C5
:103B60000024744A0024744C20BCBE4B2DE9F05F45
:103B700004007CD0FF4F2078FE4D1837DFF8F49317
:103B8000103DC00748D0D9F80000396800F038006F
:103B9000102815D0182803D101F0030002280FD0F7
:103BA0006068B0F5803F12D010B1B0F5A02F18D0EA
:103BB000286820F480302860286820F4802009E0FC
:103BC0002868800328D560680028D2D024E02868BF
:103BD00040F480302860606888B1FEF7B3FD064687
:103BE00009E0286840F480202860F0E7FEF7AAFD8D
:103BF000801B64287ED828688003F7D50CE0FEF788
:103C0000A1FD064605E000BFFEF79CFD801B642871
:103C1000F0D828688003F7D4207841F20308D54E05
:103C20000C3E80074BD5D9F80000396810F03800F9
:103C30000ED0182801D188070AD0E06868B3296837
:103C400021F0190101432960FEF77CFD824619E04D
:103C50002868400702D5E06800288AD0FEF76CFD8E
:103C6000404513D82069316821F47C3100E0BEE082
:103C700041EA0030306022E0FEF764FDA0EB0A006C
:103C80000228B7D828684007F6D5E7E7207C3168D6
:103C900021F0FE4141EA0060ECE7286820F00100D5
:103CA0002860FEF74FFD824606E000BFFEF74AFDA2
:103CB000A0EB0A0002289DD828684007F6D4207897
:103CC000C00659D5D9F80000DFF8A8B2396800F06D
:103CD0003800ABF1040B082812D0182803D101F0EA
:103CE000030001280CD0E0690028286834D040F097
:103CF000800000E0DCE02860FEF724FD824623E03F
:103D00002868C00523D5E069802870D11FE000BF76
:103D100094F82000316821F0F84141EA8060306079
:103D20002AE000BF94F82010DBF8002022F07C523B
:103D300042EA0161CBF800101EE000BFFEF702FD71
:103D4000A0EB0A0002289CD82868C005F6D5FEF72B
:103D5000F3FC4045E6D8DBE720F080002860FEF762
:103D6000F1FC064605E000BFFEF7ECFC801B0228D4
:103D700087D82868C005F7D42078000729D57D4862
:103D80006169643000298046016811D041F0010169
:103D90000160FEF7D7FC064605E000BFFEF7D2FC47
:103DA000801B022887D8D8F800008007F6D510E0DD
:103DB00021F001010160FEF7C5FC064605E000BFE9
:103DC000FEF7C0FC801B022872D8D8F800008007DC
:103DD000F6D42078800623D5A0690028286810D062
:103DE00040F480502860FEF7ADFC064605E02EE169
:103DF000FEF7A8FC801B02285AD828688004F7D553
:103E00000EE020F480502860FEF79CFC064604E09B
:103E1000FEF798FC801B02284AD828688004F7D453
:103E2000207840074FD5DFF85081D8F8001041F4D2
:103E30008071C8F80010FEF785FC064605E000BF5B
:103E4000FEF780FC801B642832D8D8F80000C0053B
:103E5000F6D5484EA068603601280AD008B105287A
:103E600013D0306820F001003060306820F004008A
:103E700002E0306840F001003060A06841F2883A0A
:103E800090B1FEF75FFC80460AE0306840F0040025
:103E90003060EEE7FEF756FCA0EB0801514507D86D
:103EA00030688007F6D50EE0FEF74CFC804607E050
:103EB00084E000BFFEF746FCA0EB080151457DD829
:103EC00030688007F6D4606AF0B3DFF8A880D9F8CC
:103ED000001008F12008C1F3C20103296FD00228A5
:103EE000286820F08070286003D0FEF72BFC044681
:103EF00082E0FEF727FC064605E000BFFEF722FC45
:103F0000801B022875D828688001F7D4E26A40F245
:103F1000F331386854F8283F884340EA02101843C8
:103F20003860217B4FF4FE0C22894FF0FE47208A37
:103F30004902267D521E401EA1F5007189B20CEA8D
:103F40000040C2F3080200E083E01143761E014303
:103F5000084807EA06621143064A1C30C8F80010F8
:103F60002432016821F00101016011684FF6F876F2
:103F7000B14303E01044025800480258236A41EA62
:103F8000C30111600168A26921F00C0111430160B5
:103F90000168E26921F0020111430160016841F406
:103FA00080310160016841F400310160016841F431
:103FB00080210160016841F0010101E019E01FE08A
:103FC0000160286840F080702860FEF7BBFB044663
:103FD00005E000BFFEF7B6FB001B022809D82868E1
:103FE0008001F7D535E000BFFEF7ACFB001B0228CF
:103FF00002D90320BDE8F09F28688001F4D428E0AE
:1040000039680128D8F8000021D0A26A01F0030322
:1040100093421CD1E26AC1F305118A4217D1216B88
:10402000C0F30802491E8A4211D1616BC0F34622D7
:10403000491E91420BD1A16BC0F30642491E914229
:1040400005D1E16BC0F30660491E814201D0012019
:10405000D0E70020CEE70000024A136883430B43F9
:104060001360704704040058401EB0F1807F10B503
:1040700001D3012010BD4FF0E02460610F216017D3
:1040800001F00DFB0020A0610721216110BD30B5BA
:1040900090F87C10012918D0012280F87C2024217E
:1040A000C0F880100022202450F8601B0B680D68B7
:1040B00023F0005325F001050D60426050F8601CAC
:1040C0000B6004620277104630BD022030BD70B52F
:1040D000044690F87C0001281DD0012284F87C2041
:1040E0002420C4F8800020680568026822F00102DC
:1040F00002602068826822F060620A438260204683
:1041000000F0ACFB2268202100201560C4F880106C
:1041100084F87C0070BD022070BD70B5044690F834
:104120007C0001281DD0012284F87C202420C4F8C2
:10413000800020680568026822F0010202602068A1
:10414000826822F060420A438260204600F086FBCB
:104150002268202100201560C4F8801084F87C00BB
:1041600070BD022070BD10B5040003D0D4F88000EB
:1041700010B107E0012010BD002084F87C0020462B
:1041800000F026F82420C4F880002068016821F09F
:1041900001010160204600F027FC0128EBD0A06A55
:1041A00010B1204600F08CFB2068416821F490415A
:1041B00041602068816821F02A01816020680168DF
:1041C00041F0010101602046BDE8104000F0DCBB79
:1041D00010B586B0044614216846FCF737F9134938
:1041E0002068884220D11248016841F01001016026
:1041F000006800F0100005900D481038016841F08B
:104200000201016000680423022200F00200059010
:1042100000204FF4404100916946CDE90120CDE9ED
:1042200003030448FEF78AF906B010BD00100140F0
:10423000F044025800040258FEE78068C0F3C00052
:1042400070478068C0F380007047C06810F4406F0A
:1042500001D0002070470120704710B5042404EA03
:10426000D1540723C1F3045120448B408A40416953
:1042700099431143416110BD2DE9F0414FF4806431
:104280002D4822462DED0C8BADF5805D6D462946FF
:10429000FDF740F84FF47A70FEF73EF92648FDF737
:1042A000BDF82F4EA046304F00249FED249B9FED7C
:1042B00025AB9FED26BB9FED27CADFED278ADFEDFB
:1042C00027CA9FED28DA00BF55F8240000EE100A37
:1042D000B8EE400B20EE090B80EE0A1B21EE0B0B13
:1042E000B7EEC00BFBF7F4FFB0EE688A55F8240078
:1042F00000EE4C8A00EE100AB8EE400B20EE090BDF
:1043000080EE0A1B21EE0B0BB7EEC00BFCF71CF87E
:1043100000EE2C8A06EBC40007EBC401641C444584
:1043200080ED008A81ED01DACEDB0DF5805DBDEC1C
:104330000C8BBDE8F081000014000020C3F5285C60
:104340008FC20A4000000000E0FFEF40BF9B4DCB52
:1043500038DB163F0000DB4400C0DE440018304666
:104360007C010020000000007C21002070B588B096
:104370001C216846FCF76AF81748002415490426F2
:104380000125C0E9001484600321C0E903460475D7
:104390004575856104774462C0E90A41046344635A
:1043A00080F83840FCF764FE08B1FCF76EFC06208C
:1043B0000095CDE9010440F2FF710594CDE90316A3
:1043C00005486946FCF762FC002801D0FCF75DFC5B
:1043D00008B070BD0060025814000020094808B5FC
:1043E000016841F40011016000680022114600F4E8
:1043F000001000908120FEF71BFABDE808408120E4
:10440000FEF708BAE04402580D4808B5016841F0CB
:1044100080010160016801F080010091016841F0B4
:1044200004010160016801F004010091016841F09C
:1044300002010160006800F00200009008BD000069
:10444000E04402581848002110B5164C0C224FF4D5
:10445000E1330460C0E90131C160C0E90412816147
:10446000C161016241628162FFF77DFE08B1FCF724
:104470000CFC0D480021FFF750FE08B1FCF705FCCD
:1044800009480021FFF723FE08B1FCF7FEFB0648B0
:10449000FFF7FDFD002803D0BDE81040FCF7F5BB99
:1044A00010BD000000100140F0000020FEE7704742
:1044B000704700002DE9F047454D044689464FF00E
:1044C000000A2868C04380070AD0414E283E306861
:1044D00020F080603060FEF735F90746B04608E00E
:1044E0000120BDE8F08700BFFEF72CF9C01B0228B1
:1044F00067D8D8F800000001F6D4206829684FF486
:10450000FE0721F47C313E0241EA00302860207A27
:10451000A389B4F804C040022D4D2D495B1E227CB6
:10452000ACF1010C1035091DA0F5007080B2521ECF
:10453000CCF3080C07EA034340EA0C00184306EAF0
:104540000262104328600868626920F0C0001043CE
:1045500008600A68A06922F0200202430A60281D50
:104560000A6822F010020A6002684FF6F873E469E4
:104570009A4342EAC40202600868B9F1000F40F0B1
:1045800010020A6011D00868B9F1010F11D040F48F
:1045900000100860D8F80000444640F08060C8F879
:1045A0000000FEF7CFF805460DE0086840F4002053
:1045B000EFE740F48010ECE7FEF7C4F8401B022858
:1045C00001D903208DE720680001F5D5504688E722
:1045D000284402582DE9F047454D044689464FF0DE
:1045E000000A2868C04380070AD0414E283E306840
:1045F00020F080503060FEF7A5F80746B04608E08E
:104600000120BDE8F08700BFFEF79CF8C01B022820
:1046100067D8D8F800008000F6D4208829684FF4C5
:10462000FE0721F07C713E0241EA00502860207AAA
:10463000A389B4F804C040022D4D2D495B1E227C95
:10464000ACF1010C1835091DA0F5007080B2521EA6
:10465000CCF3080C07EA034340EA0C00184306EACF
:104660000262104328600868626920F440601043C9
:1046700008600A68A06922F4007202430A60281DDB
:104680000A6822F480720A6002684FF6F873E469DF
:104690009A4342EAC40202600868B9F1000F40F48C
:1046A00080720A6011D00868B9F1010F11D040F092
:1046B00080700860D8F80000444640F08050C8F888
:1046C0000000FEF73FF805460DE0086840F4800062
:1046D000EFE740F40000ECE7FEF734F8401B022857
:1046E00001D903208DE720688000F5D5504688E782
:1046F000284402587047FEF72BB80000F0B5CBB045
:104700004C212FA8FBF7A2FE202142A8FBF79EFE1A
:10471000BC216846FBF79AFE0220FEF7BBF824494D
:1047200024480A6822F001020A600968016800242E
:1047300021F4404141F480410160016801F44041AD
:104740004A9101688904FCD51B48022503680122AF
:10475000402123F00303036038942FA82F95CDE95F
:1047600032213994FFF702FA3F204494CDE9420404
:104770000021459442A84694479448944994FEF7F2
:10478000FDFF0DF1040C0D4F042000970A210522B6
:104790008CE8270020266846C023CDE907641E94D4
:1047A0002894CDE90553FEF79BFB4BB0F0BD00000C
:1047B0002C040058184802582844025801000800E8
:1047C000214A30B5214914680020204B44F470047C
:1047D000146010330A681E4D42F001020A6018602E
:1047E0000A681A4B2A400A6018331C1D251D174AF7
:1047F000186028322060131D28601C1D251D1060C4
:104800002A1D1860131D20601C1D2860251D1060C6
:104810001860206028600A680C4B0E4C22F480223D
:1048200060330A60186020686FF30F00B0F1005F1A
:1048300003D209490120C1F808014FF00060024984
:104840008039086030BD000088ED00E00044025867
:104850007FEDF6EA0010005C008000513FB514A126
:10486000D1E9002314A1CDE90023D1E90021CDE94C
:104870000221416EB9B1016802AC8A688968C2F34D
:104880004262490F1DF80150615CED00B5FBF1F18A
:10489000A0F86A101DF80210A25CC900B1FBF2F189
:1048A000A0F868103FBD0121A0F86A10F8E70000E9
:1048B00001010103070100000804020408010101CD
:1048C00090F82810C90706D00168C36A4A6822F424
:1048D00000321A434A6090F82810890706D501680B
:1048E000036B4A6822F480321A434A6090F8281019
:1048F000490706D50168436B4A6822F480221A43AF
:104900004A6090F82810090706D50168836B4A6849
:1049100022F400421A434A6090F82810C90606D5CE
:104920000168C36B8A6822F480521A438A6090F847
:104930002810890606D50168036C8A6822F40052A3
:104940001A438A6090F82810490611D50168436C13
:104950004A6822F480121A434A60416CB1F5801F04
:1049600006D10168836C4A6822F4C0021A434A6087
:1049700090F82810090606D50168C26C486820F432
:104980000020104348607047F8B500260446C0F880
:104990008860FDF7D7FE054620686FF07E47006807
:1049A000000708D500222B464FF40011204600973F
:1049B00000F022FE60B92068006840070AD5002296
:1049C0002B464FF480012046009700F015FE08B1F9
:1049D0000320F8BD2020C4F8800084F87C60C4F86F
:1049E00084000020F8BD00002DE9F04F04468068E7
:1049F000F94E87B02168D4E90457E269636E284311
:104A00000D6817433843F54A03434FF0000835401B
:104A10001D430D602068E368416821F4405119434B
:104A200041602368A069934201D0216A08439D68D0
:104A3000EB4FEC4EEC493D4005439D602068656AB4
:104A4000C36A23F00F032B43C3622068B0420ED128
:104A5000096801F03801182973D047DCB9B3082977
:104A600079D010296FD178E028297ED17BE0DF4B07
:104A7000984209D1096801F00701062975D2DFE8DB
:104A800001F0546A6C6E7072D94B984209D1096872
:104A900001F00701062968D2DFE801F0475D5F6198
:104AA0006365D44B984209D1096801F007010629D2
:104AB0005BD2DFE801F03A5052545658CE4B984240
:104AC0000BD1096801F0070106294ED200E010E081
:104AD000DFE801F02B4143454749C84B98420AD1D2
:104AE000096801F03801182939D0B7DD2029BBD178
:104AF00037E001273AE0C24B984209D1096801F03A
:104B00000701062931D2DFE801F01026282A2C2ED1
:104B1000BC4B98420BD1096801F00701062924D249
:104B2000DFE801F003191B1D1F2100271EE0904242
:104B30001BD1AD49091D096801F00701062914D2EE
:104B400002E00CE007E010E0DFE801F003050709F0
:104B50000B0D02270AE0042708E0082706E01027CB
:104B600004E0202702E0402700E08027DFF898A239
:104B7000DFF898B290424FF480754FF000097AD177
:104B8000102F51D006DC022F09D0042F27D0082F78
:104B900072D12DE0202F70D0402F6DD1F0E0FDF7C5
:104BA000B9FE0146606A1FE0012827D0022827D0FD
:104BB000032827D0042827D0052827D0062827D067
:104BC000072827D0082827D0092827D00A2827D047
:104BD0000B2827D00AE000BFB1FBF0F07EE068466A
:104BE000FDF74CFF606A01990028DDD10120F3E751
:104BF00003A8FDF7E5FF606A0499F5E70220EBE7FB
:104C00000420E9E70620E7E70820E5E70A20E3E7D4
:104C10000C20E1E71020DFE72020DDE74020DBE784
:104C20008020D9E72846D7E7DBF800005946800600
:104C3000606A39D50968C1F3C1012AFA01F2A8B145
:104C400001281BD002281BD003281BD004281BD00E
:104C500005281BD006281BD007281BD008281BD0EE
:104C600009281BD00A281BD00B281BD05FF001009D
:104C7000B2FBF0F032E033E2A2E050E00220F7E7CE
:104C80000420F5E70620F3E70820F1E70A20EFE724
:104C90000C20EDE71020EBE72020E9E74020E7E7D4
:104CA0008020E5E72846E3E7A8B1012821D00228C3
:104CB00021D0032821D0042821D0052821D006287E
:104CC00021D0072821D0082821D0092821D00A285E
:104CD00021D00B2821D00120BAFBF0F000286ED0A3
:104CE000666806EB460181426AD8B0EB063F67D89A
:104CF0009DE00220F0E70420EEE70620ECE7082024
:104D0000EAE70A20E8E70C20E6E71020E4E72020A5
:104D1000E2E74020E0E78020DEE72846DCE7606A43
:104D2000A8B1012816D0022816D0032816D00428CE
:104D300016D0052816D0062816D0072816D0082821
:104D400016D0092816D00A2816D00B2816D0012014
:104D50002F4941E70220FBE70420F9E70620F7E7A7
:104D60000820F5E70A20F3E70C20F1E71020EFE731
:104D70002020EDE74020EBE78020E9E72846E7E741
:104D8000606AA8B1012818D002281AD003281AD0C6
:104D900004281AD005281AD006281AD0072839D096
:104DA000082839D0092839D00A2839D00B2839D019
:104DB0005FF001004FF400410EE70220FAE77CE2C9
:104DC00032E00420F6E70620F4E70820F2E70A20A4
:104DD000F0E70C20EEE70000F369FFCF000C00586D
:104DE000FFF4FF11001001405444025800440040F9
:104DF00000480040004C00400050004000140140BA
:104E000000780040007C00400090D003004402582D
:104E100000093D001020CDE72020CBE74020C9E766
:104E20008020C7E72846C5E74FF0010845E2102F6C
:104E30007FD023DC022F4ED0042F75D0082FF3D162
:104E400003A8FDF7BDFE0499606AA8B1012846D009
:104E5000022846D0032846D0042846D0052846D04C
:104E6000062846D0072846D0082846D0092846D02C
:104E70000A2846D00B2845D0012543E0202F7DD0BD
:104E8000402FD1D1606AA8B1012878D0022877D00C
:104E9000032876D0042875D0052874D0062873D04E
:104EA000072872D0082871D0092870D00A286FD03E
:104EB0000B2800D001254F4600232A464FF400401E
:104EC0000021FBF78BFA02467008130E120210182D
:104ED00043EA01216AE0FDF71DFD0146B4E7022522
:104EE00010E004250EE006250CE008250AE00A255E
:104EF00008E00C2506E0102504E0202502E040250E
:104F000000E080254E4600232A4608461946FBF756
:104F100065FA62680902030241EA10615008181834
:104F2000714145E005E0FFE76846FDF7A7FD0199FF
:104F30008AE7DBF800105846890656D50068C0F3AA
:104F4000C1002AFA00F1606AA8B1012839D002280C
:104F500039D0032839D0042839D0052839D006287B
:104F600039D0072839D0082839D0092839D00A285B
:104F700039D00B2800D001252A460AE067E099E0E5
:104F80009AE09BE09CE09DE09EE09FE0A0E0A1E035
:104F9000A2E000234F4608461946FBF71FFA090214
:104FA000034672080002801841EA136132467941D3
:104FB0000023FBF713FAFA49A0F540728A426ED932
:104FC00032E70225D8E70425D6E70625D4E70825E9
:104FD000D2E70A25D0E70C25CEE71025CCE720251F
:104FE000CAE74025C8E78025C6E7606AA8B101285E
:104FF00019D0022819D0032819D0042819D005285F
:1050000019D0062819D0072819D0082819D009283E
:1050100019D00A2819D00B2800D001254F460023AB
:105020002A4650464CE70225F8E70425F6E7062510
:10503000F4E70825F2E70A25F0E70C25EEE710254E
:10504000ECE72025EAE74025E8E78025E6E7606A07
:10505000A8B1012819D0022819D0032819D0042892
:1050600019D0052819D006281AD007281AD00828E0
:105070001AD009281AD00A281AD00B2800D00125E6
:10508000C84800234F462A461AE70225F8E70425B8
:10509000F6E70625F4E70825F2E70A25F0E71DE024
:1050A0000C25EDE71025EBE72025E9E74025E7E7AC
:1050B0008025E5E70225FEE60425FCE60625FAE65E
:1050C0000825F8E60A25F6E60C25F4E61025F2E6B2
:1050D0002025F0E64025EEE68025ECE62168EBE0B1
:1050E000E0694FF400414FF6EF7688426FD1082F08
:1050F00065D00BDC6FB3012F5CD0042F7FF460AF61
:105100006846FDF7BBFC606A01995DE0102F5FD037
:10511000202F7DD0402FF1D1606AA8B1012878D02E
:10512000022877D0032876D0042875D0052874D0BB
:10513000062873D0072872D0082871D0092870D0AB
:105140000A286FD00B2800D001256068B1FBF5F16B
:10515000A0E0FEF74BFC2FE0012815D0022815D067
:10516000032815D0042815D0052815D0062815D0F9
:10517000072815D0082815D0092815D00A2815D0D9
:105180000B2814D0012512E0022510E004250EE0C2
:1051900006250CE008250AE00A2508E00C2506E0B3
:1051A000102504E0202502E0402500E08025B1FB29
:1051B000F5F13EE0FEF72CFC0146606A04E003A82E
:1051C000FDF7FEFC606A04990028DBD0C4E7D8E054
:1051D000DBF8000059468006606A40D50968C1F3D3
:1051E000C1012AFA01F208B3012824D0022824D0F0
:1051F000032824D0042824D0052824D0062824D02D
:10520000072824D0082824D0092824D00A280AE016
:1052100074E0A2E0A3E0A4E0A5E0A6E0A7E0A8E097
:10522000A9E0AAE0ABE018D00B2800D00125B2FB22
:10523000F5F160682EE00225F9E70425F7E7062579
:10524000F5E70825F3E70A25F1E70C25EFE7102538
:10525000EDE72025EBE74025E9E78025E7E7A8B162
:10526000012837D0022837D0032837D0042837D078
:10527000052837D0062837D0072837D0082837D058
:10528000092837D00A2837D00B2800D001256068BC
:10529000BAFBF5F1490001EB5001B1FBF0F080B22F
:1052A000A0F11001B1423FF68BAE4FF6F0732168CA
:1052B000C0F3420218401043C8600121A4F86A10EC
:1052C0004046A4F86810C4F86C90C4F8709007B019
:1052D000BDE8F08F0225DAE70425D8E70625D6E7F2
:1052E0000825D4E70A25D2E70C25D0E71025CEE71C
:1052F0002025CCE74025CAE78025C8E7606AA8B129
:10530000012816D0022816D0032816D0042816D05B
:10531000052816D0062816D0072816D0082816D03B
:10532000092816D00A2816D00B2800D001251D49BF
:105330000BE70225FBE70425F9E70625F7E7082533
:10534000F5E70A25F3E70C25F1E71025EFE720251F
:10535000EDE74025EBE78025E9E70225F5E60425A2
:10536000F3E60625F1E60825EFE60A25EDE60C252D
:10537000EBE61025E9E62025E7E64025E5E6802571
:10538000E3E6082F6AD00FDC8FB3012F61D0042F22
:105390007FF416AE6846FDF771FB606A019962E022
:1053A000FFFC0F0000093D00102F5FD0202F7DD0A3
:1053B000402FEDD1606AA8B1012878D0022877D0BB
:1053C000032876D0042875D0052874D0062873D019
:1053D000072872D0082871D0092870D00A286FD009
:1053E0000B2800D001256068B1FBF5F1A0E0FFE7D4
:1053F000FEF7FCFA2FE0012815D0022815D003286B
:1054000015D0042815D0052815D0062815D0072852
:1054100015D0082815D0092815D00A2815D00B2832
:1054200014D0012512E0022510E004250EE0062527
:105430000CE008250AE00A2508E00C2506E0102506
:1054400004E0202502E0402500E08025B1FBF5F1D5
:105450003DE0FEF7DDFA0146606A04E003A8FDF7CF
:10546000AFFB606A04990028DBD0C4E7DBF80000DA
:1054700059468006606A40D50968C1F3C1012AFA1D
:1054800001F208B3012824D0022824D0032824D014
:10549000042824D0052824D0062824D0072824D086
:1054A000082824D0092824D00A280AE05FE08DE0EB
:1054B0008EE08FE090E091E092E093E094E095E060
:1054C00096E018D00B2800D00125B2FBF5F16068FA
:1054D0002EE00225F9E70425F7E70625F5E708257C
:1054E000F3E70A25F1E70C25EFE71025EDE7202586
:1054F000EBE74025E9E78025E7E7A8B1012822D0BE
:10550000022822D0032822D0042822D0052822D025
:10551000062822D0072822D0082822D0092822D005
:105520000A2822D00B2800D001256068BAFBF5F1CB
:1055300001EB5001B1FBF0F080B2A0F11001B142DB
:105540007FF6CCAD70E40225EFE70425EDE70625F4
:10555000EBE70825E9E70A25E7E70C25E5E710254D
:10556000E3E72025E1E74025DFE78025DDE7606A06
:10557000A8B1012816D0022816D0032816D0042876
:1055800016D0052816D0062816D0072816D00828C9
:1055900016D0092816D00A2816D00B2800D00125CD
:1055A000144920E70225FBE70425F9E70625F7E77C
:1055B0000825F5E70A25F3E70C25F1E71025EFE7C5
:1055C0002025EDE74025EBE78025E9E702250AE7FE
:1055D000042508E7062506E7082504E70A2502E76B
:1055E0000C2500E71025FEE62025FCE64025FAE61E
:1055F0008025F8E600093D002DE9F0479A46174658
:105600000E460446089D4FF000094FF0200839E08F
:10561000681C37D0FDF796F8A0EB0A00A84222D804
:105620000DB32068016849072CD5C069C043000547
:1056300028D423684FF40061196221680B6823F4B1
:10564000D0730B6021688B6823F001038B60C4F872
:105650008080C4F88480C4F8888000BF032084F868
:105660007C90BDE8F08721680B6823F4D0730B6051
:1056700021688B6823F001038B60C4F88080C4F834
:105680008480EBE72068C06936EA000004D000207F
:10569000B842BDD00020E4E70120F9E7FEE70907A2
:1056A00000284FEA116104DB00F1E02080F80014CB
:1056B000704700F00F0000F1E02080F8141D7047E3
:1056C00002E008C8121F08C1002AFAD170477047CB
:1056D000002001E001C1121F002AFBD17047FDF735
:1056E0003FF8FFF70BF8FEF78FFEFEF777FEFEF7A9
:1056F0003DFEFEF7A7FEFEF7BFFDFCE70006101615
:105700000006101600000000010203040102030459
:105710000607080900000000920E493CB10AC93C86
:105720002BC3163D2EFB483D752B7B3D04A9963DB2
:1057300080B6AF3D36BDC83D2FBCE13D73B2FA3DEA
:1057400087CF093E8340163EB5AB223EA2102F3EC6
:10575000CF6E3B3EC2C5473E0115543E135C603ED2
:105760007F9A6C3ECCCF783EC07D823E938E883E41
:10577000229A8E3E32A0943E86A09A3EE59AA03EA2
:10578000128FA63ED47CAC3EEF63B23E2A44B83EB4
:10579000491DBE3E15EFC33E53B9C93ECA7BCF3E3D
:1057A0004136D53E80E8DA3E4F92E03E7533E63E24
:1057B000BBCBEB3EEA5AF13ECBE0F63E275DFC3E2A
:1057C000E4E7003F3D9C033F824B063F9BF5083FCB
:1057D0006B9A0B3FDA390E3FCDD3103F2A68133F47
:1057E000D9F6153FC07F183FC6021B3FD17F1D3F32
:1057F000CBF61F3F9967223F25D2243F5636273FDD
:105800001594293F4AEB2B3FDE3B2E3FBB85303FB3
:10581000C9C8323FF304353F233A373F4268393F26
:105820003B8F3B3FF9AE3D3F67C73F3F70D8413F9D
:1058300001E2433F03E4453F65DE473F12D1493F64
:10584000F8BB4B3F029F4D3F207A4F3F3D4D513FAC
:105850004918533F31DB543FE595563F5348583F75
:105860006AF2593F1A945B3F532D5D3F05BE5E3F80
:105870002146603F97C5613F5A3C633F59AA643F48
:10588000880F663FD86B673F3CBF683FA7096A3FF8
:105890000C4B6B3F5E836C3F93B26D3F9ED86E3F67
:1058A00073F56F3F0809713F5213723F4714733FFE
:1058B000DD0B743F0BFA743FC6DE753F07BA763FC7
:1058C000C58B773FF853783F9812793F9DC7793F52
:1058D00002737A3FBE147B3FCDAC7B3F283B7C3FBD
:1058E000C9BF7C3FAC3A7D3FCCAB7D3F23137E3FAD
:1058F000B0707E3F6DC47E3F580E7F3F6D4E7F3F40
:10590000AB847F3F0FB17F3F97D37F3F43EC7F3F17
:1059100011FB7F3F0000803F11FB7F3F43EC7F3F47
:1059200097D37F3F0FB17F3FAB847F3F6D4E7F3F6B
:10593000580E7F3F6DC47E3FB0707E3F23137E3F85
:10594000CCAB7D3FAC3A7D3FC9BF7C3F283B7C3F21
:10595000CDAC7B3FBE147B3F02737A3F9DC7793F3E
:105960009812793FF853783FC58B773F07BA763F57
:10597000C6DE753F0BFA743FDD0B743F4714733F6F
:105980005213723F0809713F73F56F3F9ED86E3F07
:1059900093B26D3F5E836C3F0C4B6B3FA7096A3F30
:1059A0003CBF683FD86B673F880F663F59AA643F8A
:1059B0005A3C633F97C5613F2146603F05BE5E3F4D
:1059C000532D5D3F1A945B3F6AF2593F5348583F4D
:1059D000E595563F31DB543F4918533F3D4D513F0C
:1059E000207A4F3F029F4D3FF8BB4B3F12D1493FBA
:1059F00065DE473F03E4453F01E2433F70D8413F46
:105A000067C73F3FF9AE3D3F3B8F3B3F4268393F61
:105A1000233A373FF304353FC9C8323FBB85303F97
:105A2000DE3B2E3F4AEB2B3F1594293F5636273F4E
:105A300025D2243F9967223FCBF61F3FD17F1D3FE0
:105A4000C6021B3FC07F183FD9F6153F2A68133F97
:105A5000CDD3103FDA390E3F6B9A0B3F9BF5083FD1
:105A6000824B063F3D9C033FE4E7003F275DFC3E41
:105A7000CBE0F63EEA5AF13EBBCBEB3E7533E63E59
:105A80004F92E03E80E8DA3E4136D53ECA7BCF3EBB
:105A900053B9C93E15EFC33E491DBE3E2A44B83E28
:105AA000EF63B23ED47CAC3E128FA63EE59AA03E98
:105AB00086A09A3E32A0943E229A8E3E938E883ED5
:105AC000C07D823ECCCF783E7F9A6C3E135C603EB8
:105AD0000115543EC2C5473ECF6E3B3EA2102F3E3D
