:020000040800F2
:1000000088040020450100085311000881100008F1
:1000100051110008FD010008BB110008000000009C
:100020000000000000000000000000005711000860
:100030000D020008000000005511000859110008C9
:100040005F0100085F0100085F0100085F01000810
:100050005F0100085F0100085F0100085F01000800
:100060005F0100085F0100085F010008010200084D
:100070005F0100085F0100085F0100085F010008E0
:100080005F0100085F0100085F0100085F010008D0
:100090005F0100085F0100085F0100085F010008C0
:1000A0005F0100085F0100085F0100085F010008B0
:1000B0005F0100085F0100085F0100085F010008A0
:1000C0005F0100085F0100085F0100085F01000890
:1000D0005F0100085F0100085F0100085F01000880
:1000E0005F0100085F0100085F0100085F01000870
:1000F0005F0100085F0100085F0100085F01000860
:100100005F0100085F0100085F0100085F0100084F
:100110005F0100085F0100085F0100085F0100083F
:100120005F0100085F0100085F0100085F0100082F
:10013000DFF80CD000F02AF800480047FB11000857
:10014000880400200648804706480047FEE7FEE78F
:10015000FEE7FEE7FEE7FEE7FEE7FEE7FEE7FEE777
:10016000B911000831010008D2B201E000F8012BFA
:10017000491EFBD270470022F6E710B513460A4627
:1001800004461946FFF7F0FF204610BD064C074D08
:1001900006E0E06840F0010394E807009847103457
:1001A000AC42F6D3FFF7C8FF201200084012000847
:1001B00070B5044600688168C943C9071CD18168CD
:1001C00021F00101816000F0D7FB05460FE000BF80
:1001D00000F0D2FB401B022809D9A06A40F01000B1
:1001E000A062E06A40F00100E062012070BD20687A
:1001F0008068C043C007EBD0002070BDFEE7000060
:10020000014800F05BB900004000002070477047D3
:10021000F8B50024009490F824202546012A12D035
:10022000012280F824204A681F23072A0DD206687D
:10023000776B521E02EB820293409F430B68934000
:100240001F43776319E00220F8BD06680D2A0AD221
:10025000376BD21F02EB820293409F430B6893409F
:100260001F43376309E0F76A0D3A02EB82029340BD
:100270009F430B6893401F43F7620A680723066891
:100280000A2A0AD3F7680A3A02EB420293409F43D4
:100290008B6893401F43F76008E0376902EB420226
:1002A00093409F438B6893401F4337610A68102A2D
:1002B00001D0112A20D1124B02689A4217D19368BB
:1002C0001B0219D4936843F4000393600968102952
:1002D00012D10C490C4A0968B1FBF2F101EB810122
:1002E000490000E0491E00910029FBD104E0816A29
:1002F00041F020018162012480F824502046F8BD9D
:10030000002401400C00002040420F002DE9F04184
:1003100004004FF0000514D0A06A002628B9E66258
:1003200084F82460204600F083F82046FFF740FF61
:10033000A16A01F01001014304D0A06A40F010004E
:10034000A0626BE0A16A21F4885141F00201A16230
:10035000334923688B42E16904D1B1F5402F01D1C3
:100360004FF40021277B4FF4807C41EA470261680B
:100370000A43A168614509D0012907D05FF0000157
:1003800094F814E0BEF1010F02D00AE06146F7E7ED
:10039000C7B1A76A47F02007A762E76A47F00107DD
:1003A000E7625F6827F469470F435F6023689968D5
:1003B0001C4F394011439960A16861450BD0012958
:1003C00009D00CE0DFF860E0A7690EEB47370F4378
:1003D00047F40061E5E7218A0D05A5F58015216840
:1003E000CB6A23F470032B43CB62216889680F4BDF
:1003F0001940914208D1E662A16A21F0020141F060
:100400000101A162BDE8F081A06A20F0020040F085
:100410001000A062E06A40F00100E0620120F1E714
:10042000003C0140FDF7E1FF00E0FFFFFE0E1FFF73
:1004300070B586B000250646009501950295039596
:100440000068194988422DD11849886940F4007024
:100450008861886900F400700490886940F00400A5
:1004600088618869694600F00400049003200090C8
:1004700001900F4800F084F90F4C0E48C4E90005C4
:100480008020C4E90250800020618000606120204B
:10049000C4E90605204600F035F908B1FFF7B7FEBC
:1004A0003462666206B070BD002401400010024054
:1004B0000008014008000240400000202DE9F05FE4
:1004C000C16B0A6801680B68046C4FF0040808FAF5
:1004D00004F8844D844E854FDFF814C2DFF814927F
:1004E000DFF814A2DFF814B2DFF814E218EA020F02
:1004F00065D05FEA437862D50A68920603D40A6839
:1005000022F004020A60DFF8F0814FF48062016893
:1005100008F1140813011402414524D9A9420DD051
:10052000B1420FD0B9421AD0614515D0494515D016
:10053000514501D1120312E0594501D104220EE0C8
:10054000714501D140220AE06D4D1435A94206D013
:100550006B4A2832914201D11A4600E0224667498F
:10056000091F0A6029E0A94213D0B14215D0B9424F
:1005700020D061451BD049451BD0514502D14FF4D5
:10058000800217E0414502D14FF0806212E05945E8
:1005900001D104220EE0714501D140220AE0584DFC
:1005A0001435A94206D0564A2832914201D11A4642
:1005B00000E022464B4908394A60C16A71E04FF0B9
:1005C000020808FA04F818EA020F70D05FEA83788C
:1005D0006DD50A68920606D40A6822F00A020A60FB
:1005E000012180F82110DFF810814FF400720168BA
:1005F00008F1140813011402414524D9A9420DD071
:10060000B1420FD0B9421AD0614515D0494515D035
:10061000514501D1120312E0594501D102220EE0E9
:10062000714501D120220AE0354D1435A94206D08A
:10063000334A2832914201D11A4600E022462F491E
:10064000091F0A6029E0A94213D0B14215D0B9426E
:1006500020D061451BD049451BD0514502D14FF4F4
:10066000001217E0414502D14FF0007212E05945E7
:1006700001D102220EE0714501D120220AE0204D75
:100680001435A94206D01E4A2832914201D11A4699
:1006900000E02246134908394A60002180F8201002
:1006A000816A00291CD0BDE8F05F0847FFE70825F4
:1006B000A540154214D01A0712D50A6822F00E027E
:1006C0000A6090F84020C36B012101FA02F25A60DF
:1006D000816380F82110002180F82010016BE0E791
:1006E000BDE8F09F080002401C00024030000240BC
:1006F00044000240580002406C00024008040240DE
:100700001C04024030B560B11A4B026814219A42B1
:1007100009D2194B1344B3FBF1F189000164174965
:100720000AE0012030BD134B5B421344B3FBF1F1EF
:10073000890001640F490839C163022180F8211042
:10074000136843F6F0718B43F0E901142143D0E9BB
:1007500002452C43214304692143446921438469B0
:10076000214319431160002141630122427701773F
:10077000084630BD08040240F8FFFDBF00000240FB
:100780002DE9F84FDFF8C891002409F1040A0AF1B5
:10079000040B23460F270BF1040ED1E00125A540E1
:1007A00006EA0502AA4276D1DFF8A8C14E68A6EB98
:1007B0000C0866452BD00DDC032E34D005DC36B397
:1007C000012E19D0022E2FD11BE0112E16D0122E81
:1007D0002AD119E0B8F5881F19D006DCB8F5803F9A
:1007E00015D0B8F5801F1FD111E0B8F5001F0ED04D
:1007F000B8F5041F18D10AE0CB6815E0CB681B1DC3
:1008000012E0CB6808330FE0CB680C330CE08B6848
:100810002BB1012B4FF0080303D0456104E0042302
:1008200002E0056100E00023FF2A01D8064601E04E
:1008300000F104064FEA840501D9A5F12005D6F898
:10084000008007FA05FC28EA0C0803FA05F548EAD7
:100850000508C6F800804D68ED0070D53E4DAE69C4
:1008600046F00106AE61AD6924F0030605F001050E
:1008700000953A4D06EB050CDCF80850A607360F3C
:1008800007FA06F825EA0805DFF8D480404503D1C9
:100890004FF0000825E052E0DFF8C880404502D163
:1008A0004FF001081DE0DFF8C080404502D14FF055
:1008B000020816E0DFF8B480404502D14FF003088B
:1008C0000FE0DFF8AC80404502D14FF0040808E0AB
:1008D000DFF8A080404502D14FF0050801E04FF05D
:1008E000060808FA06F848EA0508CCF808804D68BA
:1008F000D9F80060ED034D4601D5164300E096435C
:100900002E604D68DAF80060AD03554601D51643F8
:1009100000E096432E604D68DBF80060ED025D4616
:1009200001D5164300E096432E604D68DEF8006066
:10093000AD02754601D5164300E096432E60641C57
:100940000A681646E2407FF429AFBDE8F88F000040
:10095000000401400000111000100240000001409E
:1009600000080140000C014000100140001401404B
:1009700000180140001C01400148806870470000D9
:1009800000000020024881680278114481607047AD
:1009900000000020074810B5016841F01001016017
:1009A000032000F075F8002000F006F800F024F8AD
:1009B000002010BD0020024070B50D4D04464FF4DC
:1009C0007A712878B1FBF0F00A490968B1FBF0F0C0
:1009D00000F042FB48B9102C07D200222146501EDD
:1009E00000F036F800206C6070BD012070BD000082
:1009F000000000200C0000200C4808B5816941F07F
:100A000001018161816901F001010091C16941F039
:100A10008051C161C06900F0805000900448416875
:100A200021F0E06141F08061416008BD00100240AA
:100A300000000140002809DB00F01F020121914065
:100A40004009800000F1E020C0F80011704700006C
:100A5000F0B40E4B1B680C46C3F30223C3F1070529
:100A6000042D00D90425191D072901D2002300E017
:100A7000DB1E012606FA05F1491E214099409E40E1
:100A8000761E16403143F0BC00F098BB0CED00E040
:100A9000064900F0070208684FF6FF03184040EAD5
:100AA0000220034A10430860704700000CED00E08C
:100AB0000000FA052DE9F84305460078354CC007DB
:100AC00054D0E0690026C00008D4E06940F08050AE
:100AD000E061E069012600F0805000902E48016836
:100AE000C90512D40168804641F480710160FFF7A6
:100AF00043FF074605E000BFFFF73EFFC01B642829
:100B000023D8D8F80000C005F6D5206A10F440704C
:100B100021D0A98801F4407181421CD0206A1F496C
:100B2000012220F440700A6000220A602062C0079F
:100B300011D0FFF721FF074641F2883808E000BFD7
:100B4000FFF71AFFC11B414502D90320BDE8F88316
:100B5000206A8007F4D5206A696820F44070084351
:100B600020621EB1E06920F08050E06128788007A3
:100B700005D56068A96820F4404008436060287883
:100B8000C00605D56068696920F48000084360608C
:100B90000020DBE7001002400070004040044242A9
:100BA0002DE9F0470F46050061D0434E306800F054
:100BB0000700B84209D2306820F00700384330609F
:100BC000306800F00700B84251D128683B4C8107DB
:100BD00012D5400703D5606840F4E0606060287873
:100BE000000703D5606840F4605060606068A968E1
:100BF00020F0F000084360602878C00728D06868BB
:100C0000012810D02168022810D0890700292EDA87
:100C1000616821F0030101436160FFF7ADFE80468A
:100C200041F288390DE021688903EFE78901EDE79A
:100C3000FFF7A2FEA0EB0801494502D90320BDE859
:100C4000F0876068696800F00C00B0EB810FEFD1AD
:100C5000306800F00700B8420BD9306820F0070078
:100C600038433060306800F00700B84201D00120FE
:100C7000E5E72878400705D56068E96820F4E0607A
:100C8000084360602878000706D56068296920F469
:100C9000605040EAC100606000F018F86168084ADE
:100CA000C1F30311515CC84006490860064800685A
:100CB000FFF782FE0020C2E7002002400010024041
:100CC000101200080C0000200400002012A185B0C2
:100CD0000FC98DE80F0014A0144A006804905168F1
:100CE000134801F00C03042B10D0082B0ED1C1F3D4
:100CF0008343C9031DF803000AD5516804AAC1F350
:100D00004041515C0A4A5043B0FBF1F005B07047D6
:100D100008494843FAE700000203040506070809EA
:100D20000A0B0C0D0E0F1010010200000010024003
:100D300000127A0000093D002DE9F84F040070D040
:100D40002078C04DC00749D06868C0F381000128F1
:100D500007D06868C0F38100022809D16868C00321
:100D600006D52868800339D560680028E7D035E0CB
:100D70006068B0F5803F0BD010B1B0F5A02F11D056
:100D8000286820F480302860286820F4802002E061
:100D9000286840F480302860606890B1FFF7ECFD6F
:100DA00006460AE0286840F480202860F0E700BF8B
:100DB000FFF7E2FD801B642873D828688003F7D50D
:100DC0000CE0FFF7D9FD064605E000BFFFF7D4FDB4
:100DD000801B6428F0D828688003F7D420789A4EC6
:100DE00080074FF001094FF0000839D5686810F00E
:100DF0000C0F07D06868C0F38100022809D1686829
:100E0000C00306D42868800714D52069012808D1BA
:100E100010E02069B0B1C6F80090FFF7ADFD0746BD
:100E200005E00AE1FFF7A8FDC01B0228C4D8286826
:100E30008007F7D52868616920F0F80040EAC10012
:100E400028600DE0C6F80080FFF796FD074604E035
:100E5000FFF792FDC01B022823D828688007F7D42B
:100E6000207800072CD57948A169D9B1C0F8009045
:100E7000FFF782FD074604E0FFF77EFDC01B022856
:100E80000FD8686A8007F7D571484FF4FA510068A7
:100E9000B0FBF1F0009000BF0098411E0091FAD223
:100EA0000EE080E0C0F80080FFF766FD074604E032
:100EB000FFF762FDC01B022875D8686A8007F7D467
:100EC0002078400760D5E8690027C00008D4E869A9
:100ED00040F08050E861E869012700F08050009000
:100EE0005C480168C90513D40168834641F48071E8
:100EF0000160FFF741FD824606E000BFFFF73CFDC1
:100F0000A0EB0A0064284ED8DBF80000C005F5D538
:100F1000E06801280AD008B1052813D0286A20F01B
:100F200001002862286A20F0040002E0286A40F0EC
:100F300001002862E06841F2883B98B1FFF71CFD90
:100F400082460BE0286A40F004002862EEE700BF0A
:100F5000FFF712FDA0EB0A0159455AD8286A80070D
:100F6000F6D50CE0FFF708FD824605E0FFF704FD2B
:100F7000A0EB0A0159454CD8286A8007F6D41FB166
:100F8000E86920F08050E861E06988B36968C1F3DE
:100F90008101022944D00228C6F8608004D0FFF7FE
:100FA000EBFC044638E034E0FFF7E6FC074604E0DB
:100FB000FFF7E2FCC01B02282BD828688001F7D479
:100FC000206AB0F5803F05D16868A16820F4003040
:100FD00008436860D4E908010843696821F4741182
:100FE00008436860C6F86090FFF7C6FC044606E058
:100FF00025E000BFFFF7C0FC001B022809D82868C5
:101000008001F7D51BE000BFFFF7B6FC001B0228EC
:1010100002D90320BDE8F88F28688001F4D40EE0DF
:101020000128F7D06868226A00F48031914204D127
:10103000616A00F47010884201D00120EAE70020C4
:10104000E8E70000001002400000424280044242F3
:101050000C0000200070004010B5401EB0F1807FF1
:1010600001D3012010BD4FF0E02460610F21601713
:1010700000F0A4F80020A06107202061002010BD2E
:10108000FEE70000FEB500241648009401941449C0
:10109000029401608915816001250573047502269B
:1010A00006614FF460214460C161FFF72FF908B178
:1010B000FFF7ADF8CDE9004569460A480294FFF70D
:1010C000A7F808B1FFF7A3F8CDE90056694605482F
:1010D000FFF79EF8002801D0FFF799F8FEBD000049
:1010E0000024014010000020094808B5416941F082
:1010F000010141614069002200F0010000901146A9
:101100000B20FFF7A5FCBDE808400B20FFF792BCC1
:10111000001002400D4808B5816941F0100181615D
:10112000816901F010010091816941F02001816124
:10113000816901F020010091816941F00401816120
:10114000806900F00400009008BD0000001002401B
:10115000FEE7704770477047FFF714BC30B595B095
:1011600028216846FFF707F814210AA8FFF703F8BB
:1011700018210FA8FEF7FFFF0121080400240491A5
:10118000CDE90010CDE908040294022507956846D0
:10119000FFF7D2FD0F20CDE90A056802CDE90C402A
:1011A00000210AA80E94FFF7FBFC0FA80F951194DD
:1011B000FFF780FC15B030BD7047FEE70907090E48
:1011C000002804DB00F1E02080F80014704700F0F4
:1011D0000F0000F1E02080F8141D704702E008C8FD
:1011E000121F08C1002AFAD170477047002001E0A1
:1011F00001C1121F002AFBD17047FFF7CBFBFFF79D
:10120000ADFFFFF787FFFFF76FFFFFF73BFFFEE73D
:1012100000000000000000000102030406070809A6
:10122000401200080000002010000000DC1100083F
:10123000501200081000002078040000EC11000893
:101240000100000010000000000000000024F40075
:0400000508000131BD
:00000001FF
