:020000040800F2
:1000000078040020AD0200087B270008892600083C
:100010007927000821040008352B000800000000A3
:10002000000000000000000000000000C1290008DE
:1000300023040008000000007D270008C3290008F1
:10004000C7020008C7020008C7020008C70200086C
:10005000C7020008C7020008C7020008C70200085C
:10006000C7020008C7020008C7020008C70200084C
:10007000C7020008C7020008C7020008C70200083C
:10008000C7020008C7020008C7020008C70200082C
:10009000C7020008C7020008C7020008C70200081C
:1000A000C7020008C7020008C7020008C70200080C
:1000B000C7020008C7020008C7020008C7020008FC
:1000C000C7020008C7020008C7020008C7020008EC
:1000D000C7020008C7020008C7020008C7020008DC
:1000E000C7020008C702000800000000C70200089D
:1000F000C7020008C7020008C7020008C7020008BC
:10010000C7020008C7020008C7020008C7020008AB
:10011000C7020008C7020008C7020008C70200089B
:10012000C7020008C7020008C7020008C70200088B
:10013000C7020008C7020008C7020008C70200087B
:1001400000000000000000000000000000000000AF
:10015000C7020008C7020008C7020008C70200085B
:10016000C7020008C7020008C7020008C70200084B
:10017000C7020008C7020008C7020008000000000C
:10018000C7020008C7020008C7020008C70200082B
:10019000C7020008C7020008C7020008C70200081B
:1001A000C7020008C7020008C7020008C70200080B
:1001B000C7020008C7020008C7020008C7020008FB
:1001C000C7020008C7020008C7020008C7020008EB
:1001D000C7020008C7020008C7020008C7020008DB
:1001E000C7020008C7020008C7020008C7020008CB
:1001F000C7020008C7020008C7020008C7020008BB
:10020000C7020008C7020008C7020008C7020008AA
:10021000C7020008C7020008C7020008C70200089A
:10022000C7020008C7020008C7020008000000005B
:10023000C7020008C702000800000000C70200084B
:10024000C7020008C7020008C7020008C70200086A
:10025000C7020008C7020008C7020008C70200085A
:10026000C7020008C7020008C7020008C70200084A
:10027000C7020008C7020008C7020008000000000B
:10028000C7020008C7020008C702000800000000FB
:1002900000000000C7020008DFF80CD000F02AF8C8
:1002A00000480047772B0008780400200648804764
:1002B00006480047FEE7FEE7FEE7FEE7FEE7FEE74B
:1002C000FEE7FEE7FEE7FEE7992A0008990200082C
:1002D000D2B201E000F8012B491EFBD27047002288
:1002E000F6E710B513460A4604461946FFF7F0FF35
:1002F000204610BD064C074D06E0E06840F00103C3
:1003000094E8070098471034AC42F6D3FFF7C8FFD3
:10031000982B0008B82B000870B53A4905460068CC
:10032000884202D0384A904202D1D1F8080302E054
:100330003648D0F8080310F4403F11D001F06AFEAF
:1003400004466868B0F5803F06D0B0F5003F03D0A2
:10035000B0F5403F26D101E0000C17E0A40821E0F1
:100360004FF4002000F0F8FF044668688103890B11
:1003700018D181140C2915D2DFE801F01406060605
:100380000606060B0D0F1113800C4000B4FBF0F4B1
:1003900008E0240906E0640904E0A40902E0E40995
:1003A00000E0240A00F000FD41F20301884208D871
:1003B000174884422868816813D821F480718160CD
:1003C00070BD14496008884204D82868816821F407
:1003D0004071F4E71049884206D82868816821F402
:1003E000407141F48071EAE70C49884228688168CD
:1003F00004D821F4407141F40071E0E741F4407108
:10040000DDE70000002002400021024000600258A9
:10041000002D3101105E5F0020BCBE0040787D01E0
:10042000FEE77047704700002DE9F047044690F85A
:10043000500000270E4601289AB021D0DFF8F48042
:10044000012122684FF0000984F85010424519D16B
:10045000394D0095284602F020F98246206802F0C6
:100460001CF950EA0A0115D0606D012740F0200008
:10047000C4F85400384684F850901AB0BDE8F087AC
:100480000220FAE7616D84F8509041F02001616527
:100490000120F2E720684146884201D0A84201D1FC
:1004A000264800E0264840F61F72D6F800C0254BCB
:1004B000BCF1000F23D0D0F808C0D6F804802CF48B
:1004C000404C4CEA080CC0F808C0D4F800C08C4579
:1004D00001D0AC4507D18968AB6801F0010103F098
:1004E0000103194302E0996801F001010029C1D11B
:1004F000B5683168836829439343194317E08668D8
:1005000026F44046866026688E4201D0AE4207D16E
:100510008968AB6801F0010103F00103194302E0AF
:10052000996801F001010029A4D18168914381609B
:10053000A0E700000020024000210240002302400A
:1005400000630258006002582DE9F84F4FF0000B8D
:100550000446E64E0D46CDF800B05F4690F85000D8
:10056000DFF88CA3012808D04FF0010984F85090DF
:10057000206802F08EF818B16BE10220BDE8F88F18
:1005800021682868CA69030328D090FAA0F0B0FA5D
:1005900080F000BF00F01F0309FA03F00243CA61B4
:1005A000D5E900124FF00C0C20681F23C1F38461C1
:1005B0000CEA921C02F01F02604493409140026BCF
:1005C0009A430A430263206802F063F88046206879
:1005D00002F05BF858EA000003D07FE0C0F38460CB
:1005E000D8E72068AA68296802F05BF8C149096861
:1005F000B9EB117F06D121686869C968C1F382012E
:10060000490008E02068C168C906C1686869F5D575
:1006100001F0100149088840296904292ED0236877
:100620002A6803EB810102F0F8420B6E024303F0EB
:10063000004010430866697E20682A69012917D0A6
:100640005FF0000100EB8200026E22F000420A43DC
:100650000266297E20682A6901290CD000210369DD
:1006600002F01F02914023F4F0420A43026135E098
:100670004FF00041E6E74FF40061F0E72068297889
:10068000026E02F0F842B2EB816F03D1016E21F0ED
:100690000041016620682978426E02F0F842B2EB10
:1006A000816F03D1416E21F00041416620682978B5
:1006B000826E02F0F842B2EB816F03D1816E21F0BD
:1006C0000041816620682978C26E02F0F842B2EBE0
:1006D000816F03D1C16E21F00041C166206881683D
:1006E00011F0010F78D150F8C03F2A7BDFF808C223
:1006F000296802F018022CFA02FCC1F3130823EA5D
:1007000008030CEA010C43EA0C0303607B48E96828
:10071000814277D1286801031BD090FAA0F1B1FA89
:1007200081F1491C01F01F0109294FEA003131D83C
:10073000002911D090FAA0F1B1FA81F101F1010183
:1007400001F01F0109FA01F209D100BFC0F3846171
:1007500009E0C0F38461E4E7C0F38461EEE790FA56
:10076000A0F1B1FA81F101F1010101F01F0142EAAA
:10077000816102D1C0F3846003E090FAA0F0B0FA86
:1007800080F000F1010000F01F0000EB400041EAA2
:10079000005133E000290ED090FAA0F1B1FA81F1B6
:1007A00001F1010101F01F0109FA01F206D100BFB8
:1007B000C0F3846106E0C0F38461F1E790FAA0F130
:1007C000B1FA81F101F1010101F01F0142EA8161F9
:1007D00003D1C0F3846004E040E090FAA0F0B0FAE6
:1007E00080F0474A00F1010000F01F0000EB4000DC
:1007F00002EB005041EA000141F00071AA68206854
:1008000001F04FFFD5F800C0BCF1000F26DA3D4BD8
:1008100020683D49DFF8F490984201D0B04201D100
:100820000A4600E04A469268984202F0E07201D01F
:10083000B04209D19D68D6F8088005F0010508F09E
:10084000010845EA080503E0DAF8085005F001055B
:1008500045B1606D012740F020006065384684F89E
:1008600050B08BE62A4DAC451BD1150219D450452A
:10087000F4D1984202D0B04200D049468B6842F48D
:10088000000023F0E07202438A602349214809688E
:10089000B1FBF0F0400000E0401E00900028FBD1CA
:1008A000DCE71E4DAC450CD1D5010AD45045D5D15D
:1008B000984202D0B04200D049468B6842F0807026
:1008C0000EE0174DAC45C9D15502C7D45045C5D12E
:1008D000984202D0B04200D049468B6842F4800072
:1008E00023F0E07202438A60B8E700000021024072
:1008F000006002580010005CFFFF0F000000FF477F
:10090000000020FE00200240002302400063025845
:10091000000084CB400D03000C000020000052C7F3
:100920000000B8CFF8B54FF0000604003546009639
:1009300002D0606D10B107E00120F8BD204600F044
:1009400005F9A66584F8506020688168C1F340719C
:1009500019B18168704A1140816020688168C1F3D3
:10096000007179B981686D4A114041F08051816010
:100970006C496B480968B1FBF0F000E0401E009044
:100980000028FBD120688168C1F3007141B9616D15
:10099000012541F010016165A16D41F00101A165E2
:1009A00001F077FE616D01F010010143606D03D02D
:1009B000012540F0100092E020F4807040F0020029
:1009C00060652068816811F0010F1FD1564A574BAE
:1009D000904201D0984207D191689E6801F00101D0
:1009E00006F00106314303E05149896801F0010135
:1009F00061B9904201D0984201D14E4800E04E4882
:100A00008268616822F47C120A43826000F0CCF9AB
:100A100041F20301884202D9A06810280CD0617D00
:100A2000227FA368206B490341EA0241184308432F
:100A3000217F01290CD010E0607D227F216B4003D3
:100A400040EA024241F01000104340F00C00EFE792
:100A5000218C3A4A02EB41410843616A29B1A26AFA
:100A600001F47871014342EA01002168344BCA68FD
:100A70001A400243CA60206801F00BFE0646206857
:100A800001F003FE30431DD1226844F20303267DAA
:100A9000E16AD06841EA863198430843D06094F80F
:100AA000380001281ED02068016921F00101016190
:100AB0002068626B016921F0704111430161204699
:100AC000FFF72AFCE068012820681DD0016B21F0A7
:100AD0000F010163606D20F0020040F001006065CD
:100AE0002846F8BD2168A28F164FD4E9100C164E87
:100AF00007EB0247A36C0A6940EA0C003B43324013
:100B0000184310430861D3E7A269016B521E21F01C
:100B10000F011143DDE70000C0FFFF5FC0FFFF7F53
:100B2000400D03000C000020002002400021024084
:100B30000060025800230240006302580000FEFFDC
:100B400003C0F0FF0100FFFF1EF800FC10B586B0E7
:100B5000044614216846FFF7C2FB11492068884209
:100B60001CD11048016841F020010160006800F0CC
:100B7000200005900B480830016841F02001016019
:100B800000680321002200F0200005904FF4C050BF
:100B90008DE807000448694600F008F806B010BD6B
:100BA00000200240D8440258001402582DE9F84FA2
:100BB000714C00234FF0B04E4FF001094FF0030B82
:100BC0004FF00F0AD0E000BF09FA03F812EA08025A
:100BD00074D04D68022D01D0122D0FD1DD085F07B2
:100BE00000EB850500950E692D6AFF0E0AFA07FCD9
:100BF000BE4025EA0C052E43009D2E625D000F7954
:100C000006680BFA05FC07F0030726EA0C06AF405E
:100C1000374307604E68012E05D0022E03D0112EF7
:100C200001D0122E0FD18668CF6826EA0C06AF409D
:100C30003743876046680F7926EA0806C7F300172E
:100C40009F4037434760C6688F6826EA0C06AF406E
:100C50003743C7604D68ED0030D5484D2E6846F0EB
:100C600002062E602D6823F0030606F1B04605F05B
:100C7000020500959D072F0FD6F80854DFF8008174
:100C80000AFA07FC404525EA0C0502D14FF0000C9A
:100C900041E0DFF8F0C0604502D14FF0010C3AE0CE
:100CA000DFF8E4C0604502D14FF0020C33E0DFF81A
:100CB000DCC0604503D14FF0030C2CE053E0DFF8BB
:100CC000D0C0604502D14FF0040C24E0DFF8C4C06E
:100CD000604502D14FF0050C1DE0DFF8BCC0604557
:100CE00002D14FF0060C16E0DFF8B0C0604502D12B
:100CF0004FF0070C0FE0DFF8A8C0604502D14FF0BD
:100D0000080C08E0DFF89CC0604502D14FF0090CE8
:100D100001E04FF00A0C0CFA07FC4CEA050CC6F88F
:100D200008C425684E6825EA0205F60300D5154378
:100D3000256065684E6825EA0205B60300D51543AF
:100D400065604F687546DEF80060FF0226EA02061D
:100D500000D516432E604F686E68BF0226EA020671
:100D600000D516436E605B1C0A6832FA03F57FF407
:100D70002BAFBDE8F88F000080000058F444025803
:100D8000000002580004025800080258000C0258E3
:100D9000001002580014025800180258001C025893
:100DA000002002580024025801480068000C7047D7
:100DB0000010005C014880687047000000000020BF
:100DC0000248816802781144816070470000002069
:100DD000032010B500F076F801F032F90E490F4A01
:100DE0000F4B0C68C4F30324145D04F01F04E040AF
:100DF0001860096801F00F01515C01F01F01C84043
:100E000008490860002000F00FF808B1012010BD6B
:100E100000F02AF8002010BD18440258882B000862
:100E20000C0000201000002070B50D4D04462878FD
:100E3000A0B14FF47A71B1FBF0F00A490968B1FB37
:100E4000F0F001F00EFC48B9102C07D20022214628
:100E5000501E00F017F800206C6070BD012070BDBE
:100E6000000000200C000020054808B5016841F092
:100E700002010160006800F00200009008BD00005F
:100E8000F44402580E4BF0B41B680D46C3F3022322
:100E9000C3F10706042E00D90426191D072901D223
:100EA000002300E0DB1E012404FA06F19C40491EE9
:100EB0002940641E994014402143F0BC01F03BBE20
:100EC0000CED00E0064900F0070210B54FF6FF04F4
:100ED0000868044B204040EA02201843086010BD17
:100EE0000CED00E00000FA05134970B50A68D24322
:100EF000520705D5096801F00701814213D118E0B6
:100F00000A6822F0070202430A60FFF753FF0A4D06
:100F10004FF47A760446083D07E000BFFFF74AFF2A
:100F2000001BB04201D9012070BD2868C043800475
:100F3000F4D4002070BD00000C48025810B501F038
:100F40007FF8064A06491268064BC2F303229A5CF0
:100F500002F01F02D040086010BD00001844025883
:100F60000C000020882B000810B501F053F805494B
:100F70000968054AC1F30211515C01F01F01C84024
:100F800010BD000020440258882B0008494930B5A4
:100F9000484C0B1D0A680C3409681D68246802F06F
:100FA000030305F00102C1F30511C4F3CC040029C9
:100FB00014FB02F200EE102AF8EE400A75D03F4A08
:100FC0009FED3D1AB7EE000A6BB1DFED3D1A012B24
:100FD00001D0022B64D002EE101A1168F8EE422AFA
:100FE00081EEA22A21E0334C283C23689B0612D5CF
:100FF000344B246801EE901A1168C4F3C104F8EE72
:10100000612AE34001EE903AC1F30801F8EE611A5B
:1010100081EEA22A0BE001EE901ADFED2B2A00BF31
:10102000F8EE611A116882EEA12AC1F3080101EEFF
:10103000901A1168F8EE611A40EE811A71EE800A7A
:1010400062EE200AC1F3462101EE101AB8EE411AF1
:1010500031EE001AC0EE811ABCEEE11A80ED001AE2
:101060001168C1F3064101EE101AB8EE411A31EED3
:10107000001AC0EE811ABCEEE11A80ED011A116867
:10108000C1F3066101EE101AB8EE411A31EE000A02
:1010900080EE801ABCEEC10A80ED020A30BD04E089
:1010A00001EE901ADFED092ABAE7002101604160E4
:1010B0008160F3E7284402580000003930440258A8
:1010C0000024744A0090D0030024744C20BCBE4B12
:1010D000494930B5484C0B1D0A68143409681D682D
:1010E000246802F00303C5F30012C1F30531C4F311
:1010F000CC04002914FB02F200EE102AF8EE400A9C
:1011000075D03F4A9FED3D1AB7EE000A6BB1DFED97
:101110003D1A012B01D0022B64D002EE101A116887
:10112000F8EE422A81EEA22A21E0334C283C2368C3
:101130009B0612D5344B246801EE901A1168C4F353
:10114000C104F8EE612AE34001EE903AC1F30801D0
:10115000F8EE611A81EEA22A0BE001EE901ADFEDA3
:101160002B2A00BFF8EE611A116882EEA12AC1F3A2
:10117000080101EE901A1168F8EE611A40EE811A2A
:1011800071EE800A62EE200AC1F3462101EE101AC8
:10119000B8EE411A31EE001AC0EE811ABCEEE11A27
:1011A00080ED001A1168C1F3064101EE101AB8EE85
:1011B000411A31EE001AC0EE811ABCEEE11A80ED40
:1011C000011A1168C1F3066101EE101AB8EE411A56
:1011D00031EE000A80EE801ABCEEC10A80ED020AF0
:1011E00030BD04E001EE901ADFED092ABAE70021D4
:1011F000016041608160F3E7284402580000003933
:10120000384402580024744A0090D0030024744CDF
:1012100020BCBE4B494930B5484C0B1D0A681C34F4
:1012200009681D68246802F00303C5F30022C1F3B6
:101230000551C4F3CC04002914FB02F200EE102A7D
:10124000F8EE400A75D03F4A9FED3D1AB7EE000A0E
:101250006BB1DFED3D1A012B01D0022B64D002EE01
:10126000101A1168F8EE422A81EEA22A21E0334CCE
:10127000283C23689B0612D5344B246801EE901A53
:101280001168C4F3C104F8EE612AE34001EE903A1C
:10129000C1F30801F8EE611A81EEA22A0BE001EE1B
:1012A000901ADFED2B2A00BFF8EE611A116882EE6A
:1012B000A12AC1F3080101EE901A1168F8EE611A33
:1012C00040EE811A71EE800A62EE200AC1F34621D7
:1012D00001EE101AB8EE411A31EE001AC0EE811A72
:1012E000BCEEE11A80ED001A1168C1F3064101EE6F
:1012F000101AB8EE411A31EE001AC0EE811ABCEE97
:10130000E11A80ED011A1168C1F3066101EE101AAD
:10131000B8EE411A31EE000A80EE801ABCEEC10A26
:1013200080ED020A30BD04E001EE901ADFED092ADB
:10133000BAE70021016041608160F3E72844025868
:1013400000000039404402580024744A0090D00341
:101350000024744C20BCBE4B2DE9F0474FF480763E
:101360000146B0426F48DFF8B8818AB06E4B4FF04B
:1013700080576E4DA8F104044FEA20124FF0005C34
:1013800029D1D8F8001001F0070105291FD2DFE8A4
:1013900001F0030A0F20140006A8FFF7F7FD0798D5
:1013A0000AB0BDE8F0876846FFF792FE0098F7E7BD
:1013B00003A8FFF72FFF0398F2E7216811F04051CF
:1013C000EED0B94275D11046EAE71846E8E70020AA
:1013D000E6E72846E4E7B1F5007F19D0544EB1F5B1
:1013E000806F26D0B1F5006F37D04FF48059494552
:1013F0004FF4804A4BD1D8F8001001F4E041B1F528
:10140000005FD5D03DDC0029C6D04945DFD1CAE711
:10141000D8F8001001F4E0718029C9D004DC00295B
:10142000BAD04029D3D1BEE7C029D2D0B142CED163
:10143000C3E7316801F46001B1F5800FB8D005DC75
:101440000029A9D0B1F5001FC1D1ACE7B1F5C00F9B
:10145000BFD0B1F5000FBAD1AFE7316801F0E0615C
:10146000B1F1007FA4D005DC002995D0B1F1807FD7
:10147000ADD198E7B1F1407FABD0B1F1806FA6D18B
:101480009BE7B1F5405FA4D05145A0D195E7B1F5F8
:10149000002F4FF480350DD0A9421DD1206810F4E3
:1014A0008030B1D0A84292D16846FFF711FE029871
:1014B00076E70EE0316811F44031A8D0A94203D09C
:1014C000B1F5003F83D178E703A8FFF7A3FE0598A5
:1014D00066E761459AD178E7514597D1316801F0C7
:1014E000E041B1F1405FE3D009DC81B1B94211D0F4
:1014F00061458BD103A8FFF78DFE049850E7B1F149
:10150000804F3FF460AFB1F1A04F8BD15DE7FFF7A3
:101510002BFD45E76846FFF7DBFD019840E700003B
:10152000504402580090D00340787D010080BB00F9
:10153000584402582DE9FC5F044650F8241B00254E
:1015400000902E460801FE4FDFF8F8831DD5606E2F
:1015500050B1B0F5801F0CD0B0F5001F0ED0B0F523
:10156000401F1DD001250FE0386840F4003038607E
:1015700016E00221201D01F003F903E0009802218A
:1015800001F08EF905000BD02E462088C00523D52A
:10159000606D05281ED2DFE800F00C11161B1B0041
:1015A000626ED8F8001021F440111143C8F8001001
:1015B000EBE7386840F40030386009E00021201D76
:1015C00001F0DEF803E00098002101F069F905461A
:1015D0006DB100E001252E462088800528D5A06D3C
:1015E00080281ED00CDC90B140280ED114E0626D32
:1015F000D8F8001021F007011143C8F80010EBE7FC
:10160000C02813D0B0F5807F10D001250FE03868D6
:1016100040F40030386009E00021201D01F0B0F8EE
:1016200003E00098002101F03BF9054695B12E46F4
:101630002088DFF81093400509F108092CD5D4F86B
:10164000A400B0F5800F20D00DDCA0B1B0F5001FD4
:101650000FD115E0A26DD8F8001021F4E07111430C
:10166000C8F80010E4E7B0F5C00F13D0B0F5000FD4
:1016700010D001250FE0386840F40030386009E0F0
:101680000021201D01F07CF803E00098002101F00A
:1016900007F9054675B12E46208800052DD5D4F8EA
:1016A000A800B0F1007F21D00EDCA8B1B0F1807F9E
:1016B00010D116E0D4F8A420D9F8001021F460016C
:1016C0001143C9F80010E7E7B0F1407F13D0B0F143
:1016D000806F10D001250FE0386840F4003038608A
:1016E00009E00021201D01F04BF803E000980021E3
:1016F00001F0D6F805468DB12E462068DFF844B2D9
:101700008001ABF1040B1FD5A06CD8B110280FD00D
:10171000202812D0302815D0012514E0D4F8A820B4
:10172000D9F8001021F0E0611143C9F80010E4E796
:10173000386840F40030386004E00221201D01F0D8
:101740001FF805466DB12E462088C0042BD5E06DEC
:10175000B0F5005F20D00DDCA0B1B0F5805F0FD1F7
:1017600015E0A26CDBF8001021F030011143CBF83A
:101770000010E9E7B0F5405F13D0B0F5804F10D00E
:1017800001250FE0386840F40030386009E000219E
:10179000201D00F0F5FF03E00098002101F080F823
:1017A000054685B12E462088800429D5206EB0F5E7
:1017B000403F23D010DC08B3B0F5803F14D0B0F523
:1017C000003F0FD115E0E26DD8F8001021F4E041A0
:1017D0001143C8F80010E6E7B0F5802F0ED0B0F541
:1017E000A02F0BD001250AE00121201D00F0C8FF29
:1017F00003E00098012101F053F805468DB12E4613
:10180000208840042AD5D4F8AC00B0F1405F23D042
:1018100010DC08B3B0F1805F14D0B0F1005F0FD1DD
:1018200015E0226ED8F8001021F4E0211143C8F829
:101830000010E5E7B0F1804F0ED0B0F1A04F0BD013
:1018400001250AE00121201D00F09AFF03E0009825
:10185000012101F025F805466DB12E4620880004CF
:101860001FD5E06ED8B1B0F1805F0ED0B0F1005F4F
:1018700010D0012514E0D4F8AC20D9F8001021F0E4
:10188000E0411143C9F80010E8E7386840F400303F
:10189000386004E00121201D00F072FF05466DB1A3
:1018A0002E462068C0011ED5606CD0B101280ED034
:1018B000022811D0032814D0012513E0E26ED8F8D5
:1018C000001021F040511143C8F80010E9E73868D2
:1018D00040F40030386004E00221201D00F050FF89
:1018E000054665B12E462068400257D51648016866
:1018F00041F480710160FFF75DFA82460EE0626C90
:10190000DBF8001021F003011143CBF80010EAE7E7
:10191000FFF750FAA0EB0A0064283DD80A48006897
:10192000C005F5D57DBBDFF81CA0B4F8B0100AF1F6
:10193000200ADAF8000001F4407100F4407005E07C
:101940002C4402585044025800480258884211D092
:10195000DAF80010DAF8002021F4407142F4803205
:10196000CAF80020DAF8002022F48032CAF80020F9
:10197000CAF80010D4F8B000B0F5807F21D1FFF78D
:1019800019FA019019E008E0FFF714FA0199411AD9
:1019900041F28830814210D903252E462078DFF8A5
:1019A0000CA4C0073DD0A06F182838D026DC80B327
:1019B000082829D0102825D12CE0DAF8000080076B
:1019C000E2D5D4F8B010C1F301200328F8480DD0B7
:1019D000016821F47C510160B4F8B020DAF80010FD
:1019E000C2F30B021143CAF80010D7E7F14A0368AB
:1019F00002EA111223F47C511143ECE720280ED0A7
:101A000028280CD001250BE00121201D00F0B8FE94
:101A100004E004E00098012100F042FF05465DB1BA
:101A20002E46207880071ED5606F062819D2DFE881
:101A300000F0160C11161616A26FDAF8001021F03D
:101A400038011143CAF80010EBE70121201D00F016
:101A500097FE03E00098012100F022FF054675B1D2
:101A600000E001252E46207840071FD5D4F89000CD
:101A7000062819D2DFE800F0160C11161616626F50
:101A8000DAF8001021F007011143CAF80010EAE764
:101A90000121201D00F074FE03E00098012100F0F8
:101AA000FFFE05469DB100E001252E462078800608
:101AB0002BD5D4F88C00B0F1405F24D011DC10B3EA
:101AC000B0F1805F15D0B0F1005F10D116E0D4F80E
:101AD0009020D9F8001021F007011143C9F8001037
:101AE000E4E7B0F1804F0ED0B0F1A04F0BD001254C
:101AF0000AE00021201D00F043FE03E000980221CF
:101B000000F0CEFE05468DB12E46207840062BD53E
:101B1000D4F89800B0F5406F24D011DC10B3B0F5C4
:101B2000806F15D0B0F5006F10D116E0D4F88C207E
:101B3000DAF8001021F0E0411143CAF80010E4E7A0
:101B4000B0F5805F0ED0B0F5A05F0BD001250AE0A4
:101B50000021201D00F014FE03E00098022100F097
:101B60009FFE05468DB12E46207800062BD5D4F871
:101B70009C00B0F5C04F24D011DC10B3B0F5005F6D
:101B800015D0B0F5804F10D116E0D4F89820D9F8D0
:101B9000001021F4E0511143C9F80010E4E7B0F55A
:101BA000004F0ED0B0F5204F0BD001250AE00021E8
:101BB000201D00F0E5FD03E00098022100F070FE1A
:101BC00005464DB12E46207800071ED5D4F880007A
:101BD000B0F5805F0AD00FE0D4F89C20D9F800104F
:101BE00021F460411143C9F80010ECE7009802218C
:101BF00000F056FE00B10126D4F88020DAF800107B
:101C000021F440511143CAF800102078C00613D5C2
:101C1000D4F89400B0F5807F05D10098022100F03F
:101C20003FFE00B10126D4F89420D9F8001021F429
:101C300040711143C9F800102068000316D5D4F88C
:101C4000A00038B1B0F5803F09D0B0F5003F0BD00F
:101C500001250AE00021201D00F092FD03E000981C
:101C6000022100F01DFE054685B12E462068400386
:101C700022D5D4F88400B0F5801F11D0B0F5001F34
:101C800013D0B0F5401F15D0012514E0D4F8A020E2
:101C9000D9F8001021F440311143C9F80010E5E7EC
:101CA000386840F40030386004E00098012100F00A
:101CB000F7FD054655B12E462068C0031CD5E06CE3
:101CC00070B1B0F5803F10D0012514E0D4F8842025
:101CD000DAF8001021F440111143CAF80010EBE7C4
:101CE000386840F40030386004E00221201D00F024
:101CF00047FD0546CDB12E462068800005D50098E9
:101D0000022100F0CDFD00B10126206880031BD523
:101D1000E06FB8B1B0F5807F10D0B0F5007F11D082
:101D2000B0F5407F0ED001250DE0E26CDBF800102D
:101D300021F480311143CBF80010DDE7386840F41E
:101D400000303860C5B32E462068C00207D5226F28
:101D5000D8F8001021F000411143C8F800102068A5
:101D6000800207D5A26ED8F8001021F080711143CF
:101D7000C8F800102068400009D50D48016821F41A
:101D8000004101600168D4F8B82011430160206867
:101D9000002807DA226DDBF8001021F040511143D2
:101DA000CBF8001096B10120BDE8FC9F54440258C6
:101DB00010440258CFFFFF00FFE7E26FDAF800108F
:101DC00021F440711143CAF80010BDE70020EBE791
:101DD0002DE9F05F04000F467ED0DFF82482D8F8AA
:101DE000000000F00F00B8420CD2D8F8001021F02B
:101DF0000F013943C8F80010D8F8000000F00F00B8
:101E0000B84269D120787F4D40070AD520692968FA
:101E100001F07001884204D9296821F07001014362
:101E200029602078774E361D00070AD56069316831
:101E300001F07001884204D9316821F0700101433A
:101E400031602078C0060AD5A069316801F4E061EC
:101E5000884204D9316821F4E0610143316020787F
:101E6000DFF8A0B180060BF1080B0CD5E1695846EC
:101E7000DBF8002002F07002914204D9026822F0DF
:101E800070020A430260207880070AD5E06829685A
:101E900001F00F01884204D9296821F00F010143A4
:101EA00029602078C0073ED05649A26828681839B2
:101EB00020F47060104328606068022818D003285E
:101EC00019D00968012819D0490700294ADADFF832
:101ED00034A1AAF1080A00E044E0DAF8002022F078
:101EE00007020243CAF80020FEF764FF814612E0B1
:101EF00009688903E9E709688901E6E7C905E4E7B4
:101F0000FEF758FFA0EB090141F28830814202D967
:101F10000320BDE8F09F6168DAF8000000F03800A7
:101F2000B0EBC10FECD1207880070AD5E0682968B2
:101F300001F00F01884204D2296821F00F0101430A
:101F40002960D8F80010404601F00F01B9420BD9C2
:101F5000016821F00F0139430160006800F00F00B3
:101F6000B84201D00120D4E7207840070AD5206983
:101F7000296801F07001884204D2296821F07001BB
:101F800001432960207800070AD56069316801F0B3
:101F90007001884204D2316821F070010143316040
:101FA0002078C0060AD5A069316801F4E061884252
:101FB00004D2316821F4E061014331602078800669
:101FC0000CD5E1695846DBF8002002F0700291421E
:101FD00004D2026822F070020A43026000F030F876
:101FE0002968094AC1F30321515C01F01F01C8406F
:101FF0000649086006480068BDE8F05FFEF714BFB8
:102000000020005218440258882B00080C000020C1
:102010000400002010B5FEF791FF064A0649126839
:10202000064B02F00F029A5C02F01F02D0400860DB
:1020300010BD00001844025810000020882B000832
:10204000454970B545480968434B103B11F03802CB
:1020500008D00111082A03D0102A0BD0182A0BD05F
:10206000084670BD19688906FBD51968C1F3C1011E
:10207000C84070BD3A4870BD3749374D18310C1D06
:1020800024350A68096826682D6802F0030406F002
:102090000102C1F30511C5F3CC0515FB02F200EEF8
:1020A000102AB8EE400AE9B32F4ADFED2E0AB7EE48
:1020B000001A6CB1DFED2D1A012C01D0022C43D097
:1020C00002EE101A1068F8EE422A81EEA22A1EE0F3
:1020D0001C68A40611D51B6801EE901A1168C3F3A1
:1020E000C103F8EE612AD84001EE900AC1F308005E
:1020F000F8EE611A81EEA22A0BE001EE901ADFEDF4
:102100001C2A00BFF8EE611A106882EEA12AC0F303
:10211000080001EE900AF8EE611A40EE201A31EE46
:10212000810A00E015E022EE000A1068C0F34620A4
:10213000401C00EE900AF8EE600A80EE201ABCEE19
:10214000C10A10EE100A70BD01EE901ADFED092AE7
:10215000D8E7002070BD0000104402580090D00362
:1021600040787D0100000039304402580024744A50
:102170000024744C20BCBE4B2DE9F05F04007CD0E1
:10218000FF4F2078FE4D1837DFF8F493103DC0075D
:1021900048D0D9F80000396800F03800102815D070
:1021A000182803D101F0030002280FD06068B0F5B1
:1021B000803F12D010B1B0F5A02F18D0286820F4BD
:1021C00080302860286820F4802009E02868800397
:1021D00028D560680028D2D024E0286840F48030F8
:1021E0002860606888B1FEF7E5FD064609E02868CA
:1021F00040F480202860F0E7FEF7DCFD801B6428B7
:102200007ED828688003F7D50CE0FEF7D3FD06469C
:1022100005E000BFFEF7CEFD801B6428F0D82868DB
:102220008003F7D4207841F20308D54E0C3E800796
:102230004BD5D9F80000396810F038000ED01828B6
:1022400001D188070AD0E06868B3296821F0190134
:1022500001432960FEF7AEFD824619E02868400779
:1022600002D5E06800288AD0FEF79EFD404513D8CD
:102270002069316821F47C3100E0BEE041EA0030A1
:10228000306022E0FEF796FDA0EB0A000228B7D8E6
:1022900028684007F6D5E7E7207C316821F0FE4149
:1022A00041EA0060ECE7286820F001002860FEF7B2
:1022B00081FD824606E000BFFEF77CFDA0EB0A0030
:1022C00002289DD828684007F6D42078C00659D542
:1022D000D9F80000DFF8A8B2396800F03800ABF197
:1022E000040B082812D0182803D101F0030001289C
:1022F0000CD0E0690028286834D040F0800000E06D
:10230000DCE02860FEF756FD824623E02868C00521
:1023100023D5E069802870D11FE000BF94F8200029
:10232000316821F0F84141EA806030602AE000BF66
:1023300094F82010DBF8002022F07C5242EA016180
:10234000CBF800101EE000BFFEF734FDA0EB0A0042
:1023500002289CD82868C005F6D5FEF725FD404523
:10236000E6D8DBE720F080002860FEF723FD064674
:1023700005E000BFFEF71EFD801B022887D82868F5
:10238000C005F7D42078000729D57D4861696430FD
:1023900000298046016811D041F001010160FEF77B
:1023A00009FD064605E000BFFEF704FD801B02287C
:1023B00087D8D8F800008007F6D510E021F0010199
:1023C0000160FEF7F7FC064605E000BFFEF7F2FCF1
:1023D000801B022872D8D8F800008007F6D4207835
:1023E000800623D5A0690028286810D040F48050CA
:1023F0002860FEF7DFFC064605E02EE1FEF7DAFC7A
:10240000801B02285AD828688004F7D50EE020F4F3
:1024100080502860FEF7CEFC064604E0FEF7CAFCBA
:10242000801B02284AD828688004F7D42078400707
:102430004FD5DFF85081D8F8001041F48071C8F80A
:102440000010FEF7B7FC064605E000BFFEF7B2FC41
:10245000801B642832D8D8F80000C005F6D5484E55
:10246000A068603601280AD008B1052813D030686A
:1024700020F001003060306820F0040002E0306895
:1024800040F001003060A06841F2883A90B1FEF758
:1024900091FC80460AE0306840F004003060EEE7CE
:1024A000FEF788FCA0EB0801514507D8306880078B
:1024B000F6D50EE0FEF77EFC804607E084E000BF24
:1024C000FEF778FCA0EB080151457DD83068800705
:1024D000F6D4606AF0B3DFF8A880D9F8001008F1EC
:1024E0002008C1F3C20103296FD00228286820F018
:1024F0008070286003D0FEF75DFC044682E0FEF7A2
:1025000059FC064605E000BFFEF754FC801B02287C
:1025100075D828688001F7D4E26A40F2F331386850
:1025200054F8283F884340EA021018433860217B62
:102530004FF4FE0C22894FF0FE47208A4902267D87
:10254000521E401EA1F5007189B20CEA0040C2F390
:10255000080200E083E01143761E0143084807EAC1
:1025600006621143064A1C30C8F800102432016884
:1025700021F00101016011684FF6F876B14303E0E4
:102580001044025800480258236A41EAC30111600E
:102590000168A26921F00C01114301600168E26940
:1025A00021F0020111430160016841F480310160B2
:1025B000016841F400310160016841F4802101604B
:1025C000016841F0010101E019E01FE001602868A5
:1025D00040F080702860FEF7EDFB044605E000BF88
:1025E000FEF7E8FB001B022809D828688001F7D510
:1025F00035E000BFFEF7DEFB001B022802D90320F6
:10260000BDE8F09F28688001F4D428E039680128EB
:10261000D8F8000021D0A26A01F0030393421CD134
:10262000E26AC1F305118A4217D1216BC0F3080297
:10263000491E8A4211D1616BC0F34622491E914264
:102640000BD1A16BC0F30642491E914205D1E16B4B
:10265000C0F30660491E814201D00120D0E700206E
:10266000CEE7401EB0F1807F10B501D3012010BD30
:102670004FF0E02460610F21601700F05CFA002049
:10268000A0610721216110BDFEE78068C0F3C00092
:1026900070478068C0F3800070478068C0F3800096
:1026A000704710B5042404EAD1540723C1F3045140
:1026B00020448B408A40416999431143416110BDD8
:1026C00030B58BB0002468461C2107940894099407
:1026D000FDF705FE1A480425184A0121C0E9002427
:1026E0008460C0E9034504754475816104774462E0
:1026F0008462C4620463446380F83840FEF712F9D0
:1027000008B1FDF78FFE0E4807A90794FDF78CFE70
:1027100008B1FDF787FE0B4806210B4A8DE8130030
:10272000059469460648CDE90325FDF70DFF00280D
:1027300001D0FDF777FE0BB030BD00000020024055
:1027400014000020040060080000FF47094808B595
:10275000016841F080010160016801F08001009191
:10276000016841F020010160006800F02000009045
:1027700008BD0000E0440258FEE7704770470000C3
:102780002DE9F047454D044689464FF0000A286878
:10279000C04380070AD0414E283E306820F0806058
:1027A0003060FEF707FB0746B04608E00120BDE8B1
:1027B000F08700BFFEF7FEFAC01B022867D8D8F8E2
:1027C00000000001F6D4206829684FF4FE0721F4C8
:1027D0007C313E0241EA00302860207AA389B4F8B7
:1027E00004C040022D4D2D495B1E227CACF1010C32
:1027F0001035091DA0F5007080B2521ECCF3080CF4
:1028000007EA034340EA0C00184306EA0262104359
:1028100028600868626920F0C000104308600A68F8
:10282000A06922F0200202430A60281D0A6822F0F3
:1028300010020A6002684FF6F873E4699A4342EAAC
:10284000C40202600868B9F1000F40F010020A608B
:1028500011D00868B9F1010F11D040F400100860E0
:10286000D8F80000444640F08060C8F80000FEF749
:10287000A1FA05460DE0086840F40020EFE740F4B7
:102880008010ECE7FEF796FA401B022801D90320DE
:102890008DE720680001F5D5504688E728440258A6
:1028A0002DE9F047454D044689464FF0000A286857
:1028B000C04380070AD0414E283E306820F0805047
:1028C0003060FEF777FA0746B04608E00120BDE821
:1028D000F08700BFFEF76EFAC01B022867D8D8F851
:1028E00000008000F6D4208829684FF4FE0721F00C
:1028F0007C713E0241EA00502860207AA389B4F836
:1029000004C040022D4D2D495B1E227CACF1010C10
:102910001835091DA0F5007080B2521ECCF3080CCA
:1029200007EA034340EA0C00184306EA0262104338
:1029300028600868626920F44060104308600A68F3
:10294000A06922F4007202430A60281D0A6822F47A
:1029500080720A6002684FF6F873E4699A4342EAAB
:10296000C40202600868B9F1000F40F480720A6086
:1029700011D00868B9F1010F11D040F080700860E3
:10298000D8F80000444640F08050C8F80000FEF738
:1029900011FA05460DE0086840F48000EFE740F4C6
:1029A0000000ECE7FEF706FA401B022801D90320DD
:1029B0008DE720688000F5D5504688E72844025806
:1029C0007047FEF7FDB90000F0B5CBB04C212FA841
:1029D000FDF785FC202142A8FDF781FCBC2168465B
:1029E000FDF77DFC0220FEF77FFA284928480A6897
:1029F00022F001020A6009680168002421F44041C4
:102A000041F480410160016801F440414A9101684C
:102A10008904FCD51F4E0225306801234FF4A871AC
:102A200020F003071A041920BF1C37603895CDE940
:102A30003950CDE93B15CDE93E543D952FA8409442
:102A40004194CDE92F32FFF797FB42AB3F200321A2
:102A500083E813000822CDE945240121479442A8C8
:102A600048944994FFF7B4F9A804202181228DE805
:102A70002700C0230595CDE90634684604950894DF
:102A80002894FEF757FD4BB0F0BD00002C04005811
:102A90001848025828440258214A30B52149146880
:102AA0000020204B44F47004146010330A681E4D5B
:102AB00042F001020A6018600A681A4B2A400A6054
:102AC00018331C1D251D174A186028322060131D5D
:102AD00028601C1D251D10602A1D1860131D206014
:102AE0001C1D2860251D10601860206028600A6881
:102AF0000C4B0E4C22F4802260330A601860206870
:102B00006FF30F00B0F1005F03D209490120C1F853
:102B100008014FF0006002498039086030BD0000B4
:102B200088ED00E0004402587FEDF6EA0010005CFA
:102B300000800051FEE7090700284FEA116104DB1D
:102B400000F1E02080F80014704700F00F0000F161
:102B5000E02080F8141D704702E008C8121F08C169
:102B6000002AFAD170477047002001E001C1121F0E
:102B7000002AFBD17047FEF72BF9FFF725FFFFF77F
:102B8000E5FDFFF79DFDFEE70000000001020304E4
:102B90000102030406070809B82B00080000002002
:102BA00014000000582B0008CC2B00081400002053
:102BB00064040000682B0008010000001000000001
:0C2BC000000000000090D0030090D00343
:040000050800029954
:00000001FF
