:020000040800F2
:100000009804002045010008870F0008CD0D000866
:10001000850F0008B1010008BB12000800000000B5
:100020000000000000000000000000008B0F00082E
:10003000B301000800000000890F00088D0F0008C0
:100040005F0100085F0100085F0100085F01000810
:100050005F0100085F0100085F0100085F01000800
:100060005F0100085F0100085F0100085F010008F0
:100070005F0100085F0100085F0100085F010008E0
:100080005F0100085F0100085F0100085F010008D0
:100090005F0100085F0100085F0100085F010008C0
:1000A0005F0100085F0100085F0100085F010008B0
:1000B0005F0100085F0100085F0100085F010008A0
:1000C0005F0100085F0100085F0100085F01000890
:1000D0005F0100085F0100085F0100085F01000880
:1000E0005F0100085F0100085F0100085F01000870
:1000F0005F0100085F0100085F0100085F01000860
:100100005F0100085F0100085F0100085F0100084F
:100110005F0100085F0100085F0100085F0100083F
:100120005F0100085F0100085F0100085F0100082F
:10013000DFF80CD000F02AF800480047FD12000854
:10014000980400200648804706480047FEE7FEE77F
:10015000FEE7FEE7FEE7FEE7FEE7FEE7FEE7FEE777
:10016000DD0F000831010008D2B201E000F8012BD8
:10017000491EFBD270470022F6E710B513460A4627
:1001800004461946FFF7F0FF204610BD064C074D08
:1001900006E0E06840F0010394E807009847103457
:1001A000AC42F6D3FFF7C8FF6813000888130008B5
:1001B000FEE770477047000070B5044600F00AF98A
:1001C0000546601C02D004480078044400F002F99F
:1001D000401BA042FAD370BD040000202DE9F84F67
:1001E000DFF8C891002409F1040A0AF1040B234640
:1001F0000F270BF1040ED1E00125A54006EA050208
:10020000AA4276D1DFF8A8C14E68A6EB0C08664575
:100210002BD00DDC032E34D005DC36B3012E19D0E3
:10022000022E2FD11BE0112E16D0122E2AD119E04A
:10023000B8F5881F19D006DCB8F5803F15D0B8F5A1
:10024000801F1FD111E0B8F5001F0ED0B8F5041FB4
:1002500018D10AE0CB6815E0CB681B1D12E0CB6813
:1002600008330FE0CB680C330CE08B682BB1012B0B
:100270004FF0080303D0456104E0042302E0056168
:1002800000E00023FF2A01D8064601E000F1040641
:100290004FEA840501D9A5F12005D6F8008007FAB8
:1002A00005FC28EA0C0803FA05F548EA0508C6F833
:1002B00000804D68ED0070D53E4DAE6946F00106F8
:1002C000AE61AD6924F0030605F0010500953A4DD5
:1002D00006EB050CDCF80850A607360F07FA06F8FF
:1002E00025EA0805DFF8D480404503D14FF0000827
:1002F00025E052E0DFF8C880404502D14FF0010808
:100300001DE0DFF8C080404502D14FF0020816E042
:10031000DFF8B480404502D14FF003080FE0DFF86A
:10032000AC80404502D14FF0040808E0DFF8A0801F
:10033000404502D14FF0050801E04FF0060808FAE9
:1003400006F848EA0508CCF808804D68D9F800603E
:10035000ED034D4601D5164300E096432E604D68EF
:10036000DAF80060AD03554601D5164300E0964328
:100370002E604D68DBF80060ED025D4601D5164346
:1003800000E096432E604D68DEF80060AD027546D1
:1003900001D5164300E096432E60641C0A68164699
:1003A000E2407FF429AFBDE8F88F0000000401406F
:1003B0000000111000100240000001400008014040
:1003C000000C0140001001400014014000180140E1
:1003D000001C0140014880687047000004000020B4
:1003E000024881680278114481607047040000204F
:1003F000074810B5016841F010010160032000F0CA
:1004000067F8002000F006F800F024F8002010BD86
:100410000020024070B50D4D04464FF47A712878E3
:10042000B1FBF0F00A490968B1FBF0F000F0BEFA48
:1004300048B9102C07D200222146501E00F028F89F
:1004400000206C6070BD012070BD00000400002021
:10045000100000200C4808B5816941F0010181615C
:10046000816901F001010091C16941F08051C161D0
:10047000C06900F0805000900448416821F0E061BC
:1004800041F08061416008BD001002400000014061
:10049000F0B40E4B1B680C46C3F30223C3F10705EF
:1004A000042D00D90425191D072901D2002300E0DD
:1004B000DB1E012606FA05F1491E214099409E40A7
:1004C000761E16403143F0BC00F0F8BE0CED00E0A3
:1004D000064900F0070208684FF6FF03184040EA9B
:1004E0000220034A10430860704700000CED00E052
:1004F0000000FA052DE9F0470F46050061D0434E94
:10050000306800F00700B84209D2306820F00700D8
:1005100038433060306800F00700B84251D1286895
:100520003B4C810712D5400703D5606840F4E0607A
:1005300060602878000703D5606840F46050606010
:100540006068A96820F0F000084360602878C00760
:1005500028D06868012810D02168022810D08907A7
:1005600000292EDA616821F0030101436160FFF781
:1005700031FF804641F288390DE021688903EFE7B9
:100580008901EDE7FFF726FFA0EB0801494502D9F5
:100590000320BDE8F0876068696800F00C00B0EBEC
:1005A000810FEFD1306800F00700B8420BD93068F6
:1005B00020F0070038433060306800F00700B84290
:1005C00001D00120E5E72878400705D56068E96893
:1005D00020F4E060084360602878000706D5606872
:1005E000296920F4605040EAC100606000F018F80A
:1005F0006168084AC1F30311515CC84006490860AC
:1006000006480068FFF706FF0020C2E7002002400E
:1006100000100240581300081000002008000020BD
:1006200012A185B00FC98DE80F0014A0144A00680C
:1006300004905168134801F00C03042B10D0082BD0
:100640000ED1C1F38343C9031DF803000AD55168D5
:1006500004AAC1F34041515C0A4A5043B0FBF1F097
:1006600005B0704708494843FAE700000203040553
:10067000060708090A0B0C0D0E0F101001020000EE
:100680000010024000127A0000093D002DE9F84FE9
:10069000040070D02078C04DC00749D06868C0F30E
:1006A0008100012807D06868C0F38100022809D1C1
:1006B0006868C00306D52868800339D560680028BB
:1006C000E7D035E06068B0F5803F0BD010B1B0F5F1
:1006D000A02F11D0286820F480302860286820F4EA
:1006E000802002E0286840F480302860606890B183
:1006F000FFF770FE06460AE0286840F48020286074
:10070000F0E700BFFFF766FE801B642873D82868F7
:100710008003F7D50CE0FFF75DFE064605E000BF5D
:10072000FFF758FE801B6428F0D828688003F7D4B0
:1007300020789A4E80074FF001094FF0000839D514
:10074000686810F00C0F07D06868C0F381000228B9
:1007500009D16868C00306D42868800714D52069C9
:10076000012808D110E02069B0B1C6F80090FFF769
:1007700031FE074605E00AE1FFF72CFEC01B022808
:10078000C4D828688007F7D52868616920F0F80088
:1007900040EAC10028600DE0C6F80080FFF71AFEAD
:1007A000074604E0FFF716FEC01B022823D828687E
:1007B0008007F7D4207800072CD57948A169D9B1F2
:1007C000C0F80090FFF706FE074604E0FFF702FEC0
:1007D000C01B02280FD8686A8007F7D571484FF40C
:1007E000FA510068B0FBF1F0009000BF0098411E84
:1007F0000091FAD20EE080E0C0F80080FFF7EAFD39
:10080000074604E0FFF7E6FDC01B022875D8686ABA
:100810008007F7D42078400760D5E8690027C0003A
:1008200008D4E86940F08050E861E869012700F0E9
:10083000805000905C480168C90513D40168834664
:1008400041F480710160FFF7C5FD824606E000BFFC
:10085000FFF7C0FDA0EB0A0064284ED8DBF80000CB
:10086000C005F5D5E06801280AD008B1052813D0E5
:10087000286A20F001002862286A20F0040002E0C3
:10088000286A40F001002862E06841F2883B98B194
:10089000FFF7A0FD82460BE0286A40F004002862C2
:1008A000EEE700BFFFF796FDA0EB0A0159455AD8C5
:1008B000286A8007F6D50CE0FFF78CFD824605E03C
:1008C000FFF788FDA0EB0A0159454CD8286A80073C
:1008D000F6D41FB1E86920F08050E861E06988B380
:1008E0006968C1F38101022944D00228C6F86080FA
:1008F00004D0FFF76FFD044638E034E0FFF76AFDEF
:10090000074604E0FFF766FDC01B02282BD82868C5
:100910008001F7D4206AB0F5803F05D16868A168EE
:1009200020F4003008436860D4E90801084369688E
:1009300021F4741108436860C6F86090FFF74AFD1F
:10094000044606E025E000BFFFF744FD001B022837
:1009500009D828688001F7D51BE000BFFFF73AFDF2
:10096000001B022802D90320BDE8F88F2868800107
:10097000F4D40EE00128F7D06868226A00F48031D0
:10098000914204D1616A00F47010884201D00120C4
:10099000EAE70020E8E700000010024000004242C1
:1009A00080044242100000200070004010B5401E3C
:1009B000B0F1807F01D3012010BD4FF0E0246061D1
:1009C0000F21601700F07AFC0020A0610720206151
:1009D000002010BD10B590F83C20012A22D0012241
:1009E00080F83C20CA688C6822F4407222434C682C
:1009F00022F4806222430C6822F4006222430C69D4
:100A000022F4805222434C6922F400522243C969E5
:100A1000002322F480420A4301684A6480F83C3093
:100A2000002010BD022010BD70B590F83C20012AB6
:100A300019D0012400F83C4F0222427050F83C3C8F
:100A40005A689D6822F070060A684968324325F0AA
:100A5000800529435A6050F83C2C91604470002175
:100A60000170084670BD022070BD10B5040003D0AF
:100A700094F83D0010B107E0012010BD002084F87B
:100A80003C00204600F00CF8022084F83D00211DB7
:100A9000206800F0C7FA012084F83D00002010BD56
:100AA00008B50C4A01680C48914207D1816941F4AC
:100AB00000618161806900F4006009E0B1F1804F5C
:100AC00007D1C16941F00101C161C06900F00100B5
:100AD000009008BD002C0140001002400168CA6867
:100AE00042F00102CA600068816801F0070106292E
:100AF00003D0016841F0010101600020704770B52A
:100B0000044690F83C00012817D0012584F83C5099
:100B1000022084F83D002068826822F0770222F4E7
:100B20007F4282600868502830D00DDC20284DD0EC
:100B300005DC98B310283BD148E0022070BD302876
:100B400044D0402834D139E0602828D0702806D01D
:100B5000B0F5805F2CD0B0F5005F29D10AE0CB68FA
:100B6000D1E90121206800F0B0FA2068816841F0E5
:100B7000770109E0CB68D1E90121206800F0A5FAEE
:100B80002068816841F48041816011E0CA68496849
:100B9000206800F06FFB5021206807E016E0CA686B
:100BA0004968206800F077FB6021206800F097FA20
:100BB00084F83D50002084F83C0070BDCA68496844
:100BC000206800F057FB40212068EFE722680146CB
:100BD0001046EBE730B585B00021009101910291FC
:100BE00003910068214A22490224224D90422AD1D1
:100BF000886940F008008861886900F00800049066
:100C0000886940F0040088618869694600F0040042
:100C100004900120CDE9000417480394FFF7DEFAA1
:100C20002002CDE90004694628460394FFF7D6FA6E
:100C30001248416821F0C00141F0E06141F04001FB
:100C4000416005B030BDB0F1804FFAD1886940F005
:100C5000040088618869009400F004000194CDE9E3
:100C6000034069462846FFF7B9FAEAE7002C01403D
:100C70000010024000080140000C0140000001404B
:100C800070B5044690F83C000D4601280DD00126B1
:100C900084F83C60022084F83D0042B1042A18D058
:100CA000082A2AD00C2A4DD139E0022070BD2068D4
:100CB00000F01EFA2068816941F008018161206816
:100CC000816921F004018161206881692A691143E9
:100CD00011E0206800F03CFA2068816941F400616D
:100CE00081612068816921F4806181612068816966
:100CF0002A6941EA0221816124E0206800F05EFA5D
:100D00002068C16941F00801C1612068C16921F012
:100D10000401C1612068C1692A69114311E020689A
:100D200000F080FA2068C16941F40061C161206867
:100D3000C16921F48061C1612068C1692A6941EA01
:100D40000221C16184F83D60002084F83C0070BD40
:100D500010B5040003D094F83D0010B107E0012065
:100D600010BD002084F83C00204600F00CF8022062
:100D700084F83D00211D206800F054F9012084F81A
:100D80003D00002010BD704710B5044600680122E8
:100D900000F08EF90B492068884202D00A49884247
:100DA00003D1416C41F4004141642068816801F045
:100DB0000701062903D0016841F00101016000200C
:100DC00010BD0000002C014000340140FEE700008F
:100DD00000B585B000200190029003901048816911
:100DE00041F020018161816901F020010491816954
:100DF00041F004018161816901F00401049181697C
:100E000041F0080181618069694600F008000490A2
:100E10004FF4807000900348FFF7E0F905B000BD83
:100E2000001002400008014070B596B000240D4645
:100E300006460F9410941194129413941C2108A840
:100E40001494FFF798F920216846FFF794F9274892
:100E50002549C0E900166321C0E9024104614461EB
:100E60008461FFF702FE08B1FFF7A4F94FF4805048
:100E70000F900FA91D48FFF742FE08B1FFF79AF93E
:100E80001A48FFF765FF08B1FFF794F9139413A907
:100E900016481494FFF7C8FD08B1FFF78BF96020DE
:100EA0000890CDE909540B940C940D94042208A9E0
:100EB0000E480E94FFF7E4FE08B1FFF77BF90094AB
:100EC0004FF40050CDE90440029401940394694624
:100ED00006480794FFF77EFD08B1FFF76BF903485A
:100EE000FFF778FE16B070BD002C01401400002002
:100EF00010B58EB000240794089409940A940B94BA
:100F00001C2168460C94FFF736F91D484FF08041CC
:100F100001604F21C0E901146421C0E90314846118
:100F2000FFF7A3FD08B1FFF745F94FF48050079094
:100F300007A91348FFF7E3FD08B1FFF73BF9104895
:100F4000FFF706FF08B1FFF735F90B940BA90C4822
:100F50000C94FFF769FD08B1FFF72CF96020CDE98B
:100F6000000402940422694605480494FFF788FEB1
:100F700008B1FFF71FF90248FFF72CFE0EB010BDB5
:100F800054000020FEE7704770477047FFF728BA0B
:100F900030B58FB028216846FFF7EDF814210AA874
:100FA000FFF7E9F80121080400240491CDE90010BD
:100FB000CDE908040294022507956846FFF766FB11
:100FC0000F20CDE90A058020CDE90C0400210AA8F4
:100FD0000E94FFF78FFA0FB030BD00000D48016886
:100FE00041F00101016041680B4A11404160016814
:100FF0000A4A11400160016821F4802101604168C2
:1010000021F4FE0141604FF41F0181600449C003D7
:1010100008607047001002400000FFF8FFFFF6FE76
:1010200008ED00E0F0B502681C4B1D4D1D4E1E4F33
:101030001E4C4FF0804C984209D0A04207D060452A
:1010400005D0A84203D0B04201D0B84204D122F06A
:10105000700E4A6842EA0E02984209D0A04207D0B8
:10106000604505D0A84203D0B04201D0B84203D1B8
:1010700022F44075CA682A434D6922F080022A434F
:1010800002608A68C2620A688262984201D0A04205
:1010900001D10969016301214161F0BD002C0140CA
:1010A0000004004000080040000C004000340140F3
:1010B00010B501F01F030121046A99408C430462BA
:1010C000016A9A401143016210BD10B5846842EA7A
:1010D000032224F47F440A432243826010BD8268C5
:1010E00022F070020A4342F007018160704700005D
:1010F000F0B5026A22F001020262036A4268846962
:10110000124E24F073050C682C4323F002058B6803
:101110002B430D4DA84201D0B04205D123F0080762
:10112000CB683B4323F00403A84201D0B04205D171
:101130004D6922F4407215438A692A4342608461F2
:10114000496841630362F0BD002C01400034014056
:10115000F0B5026A22F010020262026A43688469F2
:101160000D6824F4E64444EA05248D6822F0200248
:1011700042EA05120F4D104EA84201D0B04206D1EE
:10118000CF6822F0800242EA071222F04002A84211
:1011900001D0B04207D14D6923F4406343EA85038F
:1011A0008D6943EA85034360846149688163026213
:1011B000F0BD0000002C014000340140F0B5026A8F
:1011C00022F480720262026A4368C46922F40072E7
:1011D00024F073050C68124E2C438D6842EA0522F8
:1011E0000E4DA84201D0B04206D1CF6822F4006271
:1011F00042EA072222F48062A84201D0B04207D11D
:101200004D6923F4405343EA05138D6943EA0513FE
:101210004360C4614968C1630262F0BD002C0140B3
:101220000034014030B5026A22F480520262046A3E
:101230004268C3690D6823F4E64343EA05238D68D9
:1012400024F4005444EA0534084DA84202D0084D65
:10125000A84204D14D6922F4804242EA85124260DC
:10126000C36149680164046230BD0000002C014084
:101270000034014010B5036A046A24F001040462DA
:10128000846924F0F00444EA021423F00A020A43B9
:101290008461026210BD10B5036A23F0100303627B
:1012A0008369046A23F4704343EA023224F0A00302
:1012B00043EA01118261016210BDFEE70907090ED0
:1012C000002804DB00F1E02080F80014704700F0F3
:1012D0000F0000F1E02080F8141D704702E008C8FC
:1012E000121F08C1002AFAD170477047002001E0A0
:1012F00001C1121F002AFBD170470000FFF778F8E8
:10130000FFF746FEFFF764FDFFF7F2FD00214F20D7
:10131000FFF78AFD0E48FFF7E1FB04210C48FFF7B9
:1013200033FD002601270B4CBD07207828B1632828
:101330000CD0617811B1401E01E06670401C207035
:10134000C0B2A8630A20FEF737FFEEE76770F2E746
:1013500054000020000000200000000000000000F9
:101360000102030406070809881300080000002092
:1013700014000000DC1200089C1300081400002078
:1013800084040000EC1200080000000001000000CE
:0C13900010000000000000000024F40029
:0400000508000131BD
:00000001FF
