:020000040800F2
:10000000500400209D010008FF0C0008970C000818
:10001000FD0C0008A9020008350F000800000000D0
:10002000000000000000000000000000030D0008B8
:10003000AB02000800000000010D0008050D0008DB
:10004000B7010008B7010008B7010008B7010008B0
:10005000B7010008B7010008B7010008B7010008A0
:10006000B7010008B7010008B7010008B701000890
:10007000B7010008B7010008B7010008B701000880
:10008000B7010008B7010008B7010008B701000870
:10009000B7010008B7010008B7010008B701000860
:1000A000B7010008B7010008B7010008B701000850
:1000B000B7010008B7010008B7010008B701000840
:1000C000B7010008B7010008B7010008B701000830
:1000D000B7010008B7010008B7010008B701000820
:1000E000B7010008B7010008B7010008B701000810
:1000F000B7010008B7010008B7010008B701000800
:10010000B7010008B7010008B7010008B7010008EF
:10011000B7010008B7010008B7010008B7010008DF
:10012000B7010008B7010008B7010008B7010008CF
:10013000B7010008B7010008B7010008B7010008BF
:10014000B7010008B7010008B7010008B7010008AF
:10015000B7010008B7010008B7010008B70100089F
:10016000B7010008B7010008B7010008B70100088F
:10017000B7010008B7010008B7010008000000003F
:10018000B7010008B7010008DFF80CD000F07AF8DA
:1001900000480047750F00085004002006488047BB
:1001A00006480047FEE7FEE7FEE7FEE7FEE7FEE75C
:1001B000FEE7FEE7FEE7FEE78D0D00088901000877
:1001C0002DE9F05F0546002092469B46884606468C
:1001D000814640241BE0284641464746224600F01F
:1001E00041F853465A46C01A914110D31146184659
:1001F000224600F028F82D1A67EB01084F462246E8
:100200000120002100F01FF817EB00094E41201ECD
:10021000A4F10104DFDC484631462A464346BDE8E6
:10022000F09FD2B201E000F8012B491EFBD27047CB
:100230000022F6E710B513460A4604461946FFF7B2
:10024000F0FF204610BD202A04DB203A00FA02F11C
:10025000002070479140C2F1200320FA03F31943B4
:1002600090407047202A04DB203A21FA02F0002156
:10027000704721FA02F3D040C2F1200291400843B6
:1002800019467047064C074D06E0E06840F0010350
:1002900094E8070098471034AC42F6D3FFF778FF94
:1002A000C40F0008E40F0008FEE770477047000025
:1002B00070B5044600F0EAF80546601C02D0044818
:1002C0000078044400F0E2F8401BA042FAD370BD6D
:1002D000000000202DE9F84F00224FF0010803250F
:1002E0004FF00F0E0B6808FA02F42340A3426ED1C0
:1002F0004E68012E05D0022E03D0112E01D0122EF1
:1003000012D186684FEA420C05FA0CF7BE43CF685B
:1003100007FA0CF7374387604668A6430C79C4F3A5
:100320000014944034434460C668570005FA07FC43
:100330008C6826EA0C06BC403443C4604C68022C2E
:1003400001D0122C13D1D40800EB8404A346D4F8B6
:10035000209054074FEAD46A0EFA0AF629EA0609F1
:100360000E6906FA0AF646EA0906CBF82060066826
:100370000C7926EA0C0604F00304BC403443046004
:100380004C68E40065D5364C266846F48046266005
:10039000246822F0030604F480440094314C344471
:1003A000A446D4F808489607370F0EFA07F6B44368
:1003B0002D4EB04201D1002624E02C4EB04201D196
:1003C00001261FE02A4EB04202D102261AE040E088
:1003D000284EB04201D1032614E0274EB04201D18D
:1003E00004260FE0254EB04201D105260AE0244E36
:1003F000B04201D1062605E0224EB04201D10726C7
:1004000000E00826BE402643CCF808681E4E34683B
:100410004F689C43FF0300D51C4334601A4C241DD5
:1004200026684F689E43BF0300D51E432660164EC4
:10043000083634684F689C43FF0200D51C43346083
:10044000114E0C3634684F689C43BF0200D51C43E4
:100450003460521C102AFFF445AFBDE8F88F00004D
:1004600044380240003001400000024000040240D5
:1004700000080240000C024000100240001402403C
:1004800000180240001C0240003C01400148806806
:100490007047000000000020024881680278114483
:1004A00081607047000000200B4810B5016841F4DE
:1004B00000710160016841F480610160016841F4EC
:1004C00080710160032000F061F8002000F006F860
:1004D00000F024F8002010BD003C024070B50D4D26
:1004E00004464FF47A712878B1FBF0F00A490968A4
:1004F000B1FBF0F000F0F6FA48B9102C07D2002258
:100500002146501E00F022F800206C6070BD0120D2
:1005100070BD0000000000200C0000200A4808B553
:10052000016841F480410160006800F4804000905F
:100530000548001F016841F080510160006800F02B
:100540008050009008BD000044380240F0B40E4BCB
:100550001B680C46C3F30223C3F10705042D00D921
:100560000425191D072901D2002300E0DB1E012606
:1005700006FA05F1491E214099409E40761E16401C
:100580003143F0BC00F0D7BC0CED00E0064900F0B0
:10059000070208684FF6FF03184040EA0220034AAA
:1005A00010430860704700000CED00E00000FA0501
:1005B0002DE9F0470E46050065D0DFF81481D8F824
:1005C0000000F7B200F00F00B04207D288F80070C8
:1005D000D8F8000000F00F00B04254D128683D4C1C
:1005E000810712D5400703D5206840F4E050206011
:1005F0002878000703D5206840F460402060206818
:10060000A96820F0F000084320602878C0072DD0AA
:10061000304968680839012812D0022813D003280D
:1006200011D00968890700292DDA216821F003011A
:1006300001432160FFF72AFF814641F2883A0EE02C
:1006400009688903EFE709688901ECE7FFF71EFFF6
:10065000A0EB0901514502D90320BDE8F0872068CD
:10066000696800F00C00B0EB810FEFD1D8F80010F2
:10067000404601F00F01B14207D90770006800F051
:100680000F00B04201D00120E7E72878400705D5E8
:100690002068E96820F4E0500843206028780007CB
:1006A00006D52068296920F4604040EAC100206036
:1006B00000F038F82168084AC1F30311515CC840C2
:1006C0000649086006480068FFF708FF0020C4E7F5
:1006D000003C024008380240AC0F00080C0000202B
:1006E000040000200448054900680968044AC1F371
:1006F0008221515CC84070470C000020083802403D
:10070000BC0F00080448054900680968044AC1F3A1
:100710004231515CC84070470C000020083802404C
:10072000BC0F0008154810B5006810F00C02144802
:1007300013D01449042A0FD0082A0ED10F4C241FBD
:100740002268236802F03F025B0207D52068C0F3ED
:100750008810A0FB010106E0084610BD2168C1F326
:100760008811A1FB00010023FFF72AFD2168C1F3D6
:100770000141491C4900B0FBF1F010BD08380240AE
:100780000024F40040787D012DE9F84F040076D074
:100790002078DFF838A3CE4DC00749D0DAF8001032
:1007A0005046C1F38101012908D00068C0F38100DF
:1007B00002280AD1281D0068400206D52868800357
:1007C00036D560680028E2D032E06068B0F5803F3E
:1007D00010D0B0F5A02F286810D020F48030286009
:1007E000286820F4802028606068A0B1FFF74EFEE2
:1007F00006460CE0286840F48030F4E740F480209E
:100800002860F7E7FFF742FE801B642873D828684A
:100810008003F7D50CE0FFF739FE064605E000BF80
:10082000FFF734FE801B6428F0D828688003F7D4D3
:100830002078DFF8A08280074FF000093ED5DAF873
:100840000010504611F00C0F09D00068C0F3810071
:1008500002280BD19D48001F0068400206D428687A
:10086000800715D5E068012809D111E0E068B8B12A
:100870000120C8F80000FFF709FE064605E020E168
:10088000FFF704FE801B0228C0D828688007F7D530
:100890002868216920F0F80040EAC10028600DE0D6
:1008A000C8F80090FFF7F2FD064604E0FFF7EEFD02
:1008B000801B02281FD828688007F7D420780007FB
:1008C00022D5824E844861696C3671B10121016084
:1008D000FFF7DCFD074604E0FFF7D8FDC01B022848
:1008E00009D830688007F7D50EE0C0F80090FFF710
:1008F000CDFD074605E082E0FFF7C8FDC01B0228DA
:100900007DD830688007F7D42078400768D5DFF8B5
:10091000BCB100270BF1380BDBF80000C0000BD492
:10092000DBF8001041F08051CBF80010DBF800003C
:10093000012700F080500090684E3068C00510D448
:10094000306840F480703060FFF7A0FD009005E053
:10095000FFF79CFD0099401A022850D83068C00566
:10096000F6D55A4EA068683601280FD005283068A1
:1009700010D020F001003060306820F004003060BA
:10098000A068B8B1FFF782FD00900FE0306840F03A
:100990000100F4E740F004003060F7E7FFF776FD70
:1009A0000099411A41F28830814266D83068800748
:1009B000F4D50EE0FFF76AFD009007E0FFF766FD53
:1009C0000099411A41F28830814256D83068800738
:1009D000F4D42FB1DBF8001021F08051CBF80010D7
:1009E000A069D0B3DAF800205146C2F38102022A8E
:1009F0004AD00228484607D0C8F8600000E03CE032
:100A0000FFF744FD04463BE04746C8F86000FFF7A7
:100A10003DFD064605E000BFFFF738FD801B0228BC
:100A20002BD828688001F7D4D4E907010843A16ACC
:100A30002B4A490802EB0141626A41EA82110843EC
:100A400094F82C1040EA01612048001F0160012049
:100A50003866FFF71BFD044605E034E0FFF716FD9E
:100A6000001B022809D828688001F7D52BE000BFB9
:100A7000FFF70CFD001B022802D90320BDE8F88F08
:100A800028688001F4D41EE00128F7D00868E269E4
:100A900000F48001914214D1226A00F03F0191429A
:100AA0000FD147F6C071626A0140914209D1A26A32
:100AB00000F44031914204D1E16A00F07060884254
:100AC00001D00120DAE70020D8E700000838024012
:100AD0000038024000004742800E4742007000404C
:100AE0000000FFFF10B5401EB0F1807F01D3012050
:100AF00010BD4FF0E02460610F21601700F01BFA79
:100B00000020A06107202061002010BD70B5040006
:100B100004D094F83900002510B106E0012070BD22
:100B200084F83850204600F023F8242084F8390057
:100B30002068C16821F40051C160204600F034F9FA
:100B40002068016921F4904101612068416921F028
:100B50002A0141612068C16841F40051C160E56328
:100B6000202084F8390084F83A00002070BD00008D
:100B700010B586B0044614216846FFF759FB1449A6
:100B80002068884221D113480021026842F01002F7
:100B90000260006800F0100005900E4814380268EA
:100BA00042F001020260006800F0010005904FF47D
:100BB000C06000900220CDE90101032003900720CE
:100BC000049069460448FFF785FB06B010BD00009D
:100BD0000010014044380240000002402DE9F84373
:100BE000044690F839001F4616460D46202850D17D
:100BF000B5B1AEB194F8380001284AD0012084F88C
:100C000038004FF00008C4F83C80212084F83900F7
:100C1000FFF73CFCA6848146E68484F8388026E011
:100C20000120BDE8F883E08C401EE084A0684B46BC
:100C3000B0F5805F4FF000024FF080012046009732
:100C400003D000F045F9E8B90DE000F041F9C8B96A
:100C500028882168C0F308004860206908B16D1C2D
:100C600005E0AD1C03E0216815F8010B4860E08C3D
:100C70000028D8D14B46002240212046009700F0A2
:100C800027F908B10320CCE7202084F839000020A0
:100C9000C7E70220C5E7FEE7094808B5016841F04B
:100CA00080010160016801F080010091016841F05C
:100CB00001010160006800F00100009008BD000023
:100CC000303802400C4810B50A4901604FF4165103
:100CD0004160002181600C22C160C0E90412816181
:100CE000C161FFF713FF002803D0BDE81040FFF7F4
:100CF000DDBA10BD0010014010000020FEE7704773
:100D000070477047FFF7C8BB30B593B030216846D5
:100D1000FFF78EFA14210CA8FFF78AFA194800256C
:100D2000016841F080510160006800F0805011902E
:100D30001548016841F4804101600068022400F414
:100D40008040119001200090000401908001CDE9C5
:100D5000064010200890C020CDE9090404200B9023
:100D60006846FFF711FD0F20CDE90C0480200E909E
:100D70004FF4A050CDE90F0502210CA8FFF718FC95
:100D800013B030BD40380240007000400548016893
:100D900041F47001016003494FF000608039086040
:100DA0007047000088ED00E02DE9F041044600683E
:100DB0000169E26821F44051114301612169A06891
:100DC000E26908436169114308432168CA6849F22E
:100DD0000C639A430243CA6020684169A26921F406
:100DE000407111434161E069192764253226B0F54D
:100DF000004F354A354920684FF0000806D0884238
:100E000001D0904236D1FFF77DFC35E0884201D019
:100E1000904202D1FFF776FC01E0FFF763FC6168C6
:100E20004A18A0FB070148EB0803FFF7C9F9014680
:100E3000B0FBF5F00201B1FBF5F06FF01803584379
:100E400001EB800006EBC000B0FBF5F000F0F8000D
:100E500002EB4002B1FBF5F0584301EB800006EBDA
:100E6000C000B0FBF5F000F0070021681044886076
:100E7000BDE8F081FFF736FC61688B0F8A00A0FBAC
:100E80000701FFF79DF90146B0FBF5F06FF018027E
:100E9000504301EB800006EB0010B0FBF5F000F0D2
:100EA000F002B1FBF5F002EB0012B1FBF5F06FF0D0
:100EB0001803584301EB800006EB0010B0FBF5F07F
:100EC00000F00F00D1E700000014014000100140C5
:100ED0002DE9F041984617460E460446069D1DE052
:100EE000681C1BD02DB1FFF7D1FAA0EB0800A84277
:100EF00014D92068C16821F4D071C16020684169AB
:100F000021F001014161202084F8390084F83A0081
:100F1000002084F838000320BDE8F08120680068D4
:100F200036EA000004D00020B842D9D00020F3E710
:100F30000120F9E7FEE70907090E002804DB00F1AC
:100F4000E02080F80014704700F00F0000F1E0206E
:100F500080F8141D704702E008C8121F08C1002A5B
:100F6000FAD170477047002001E001C1121F002A2A
:100F7000FBD1704708B5AA208DF80000FFF794FA5E
:100F8000FFF7C2FEFFF788FEFFF79CFE4FF4FA74EE
:100F900042F210752046FFF78BF92B460122694675
:100FA0000148FFF71BFEF5E71000002000000000DD
:100FB0000000000001020304060708090000000009
:100FC00001020304E40F00080000002010000000EC
:100FD000560F0008F40F0008100000204004000025
:100FE000660F000801000000100000000000000073
:040FF0000024F400E5
:040000050800018965
:00000001FF
